{
  "_format": "hh-sol-artifact-1",
  "contractName": "Factory1155",
  "sourceName": "contracts/Factory1155.sol",
  "abi": [
    {
      "anonymous": false,
      "inputs": [
        {
          "indexed": false,
          "internalType": "address",
          "name": "owner",
          "type": "address"
        },
        {
          "indexed": false,
          "internalType": "address",
          "name": "contractAddress",
          "type": "address"
        }
      ],
      "name": "Deployed",
      "type": "event"
    },
    {
      "inputs": [
        {
          "internalType": "bytes32",
          "name": "_salt",
          "type": "bytes32"
        },
        {
          "internalType": "string",
          "name": "name",
          "type": "string"
        },
        {
          "internalType": "string",
          "name": "symbol",
          "type": "string"
        },
        {
          "internalType": "string",
          "name": "tokenURIPrefix",
          "type": "string"
        }
      ],
      "name": "deploy",
      "outputs": [
        {
          "internalType": "address",
          "name": "addr",
          "type": "address"
        }
      ],
      "stateMutability": "nonpayable",
      "type": "function"
    }
  ],
  "bytecode": "0x608060405234801561001057600080fd5b50615ed1806100206000396000f3fe60806040523480156200001157600080fd5b50600436106200002e5760003560e01c8063bf3c7c951462000033575b600080fd5b6200005160048036038101906200004b919062000339565b62000069565b6040516200006091906200044d565b60405180910390f35b6000848484846040516200007d906200017a565b6200008b93929190620004fd565b8190604051809103906000f5905080158015620000ac573d6000803e3d6000fd5b50905060008190508073ffffffffffffffffffffffffffffffffffffffff1663f2fde38b336040518263ffffffff1660e01b8152600401620000ef91906200044d565b6020604051808303816000875af11580156200010f573d6000803e3d6000fd5b505050506040513d601f19601f820116820180604052508101906200013591906200058c565b507f09e48df7857bd0c1e0d31bb8a85d42cf1874817895f171c917f6ee2cea73ec20338360405162000169929190620005be565b60405180910390a150949350505050565b6158b080620005ec83390190565b6000604051905090565b600080fd5b600080fd5b6000819050919050565b620001b1816200019c565b8114620001bd57600080fd5b50565b600081359050620001d181620001a6565b92915050565b600080fd5b600080fd5b6000601f19601f8301169050919050565b7f4e487b7100000000000000000000000000000000000000000000000000000000600052604160045260246000fd5b6200022c82620001e1565b810181811067ffffffffffffffff821117156200024e576200024d620001f2565b5b80604052505050565b60006200026362000188565b905062000271828262000221565b919050565b600067ffffffffffffffff821115620002945762000293620001f2565b5b6200029f82620001e1565b9050602081019050919050565b82818337600083830152505050565b6000620002d2620002cc8462000276565b62000257565b905082815260208101848484011115620002f157620002f0620001dc565b5b620002fe848285620002ac565b509392505050565b600082601f8301126200031e576200031d620001d7565b5b813562000330848260208601620002bb565b91505092915050565b6000806000806080858703121562000356576200035562000192565b5b60006200036687828801620001c0565b945050602085013567ffffffffffffffff8111156200038a576200038962000197565b5b620003988782880162000306565b935050604085013567ffffffffffffffff811115620003bc57620003bb62000197565b5b620003ca8782880162000306565b925050606085013567ffffffffffffffff811115620003ee57620003ed62000197565b5b620003fc8782880162000306565b91505092959194509250565b600073ffffffffffffffffffffffffffffffffffffffff82169050919050565b6000620004358262000408565b9050919050565b620004478162000428565b82525050565b60006020820190506200046460008301846200043c565b92915050565b600081519050919050565b600082825260208201905092915050565b60005b83811015620004a657808201518184015260208101905062000489565b83811115620004b6576000848401525b50505050565b6000620004c9826200046a565b620004d5818562000475565b9350620004e781856020860162000486565b620004f281620001e1565b840191505092915050565b60006060820190508181036000830152620005198186620004bc565b905081810360208301526200052f8185620004bc565b90508181036040830152620005458184620004bc565b9050949350505050565b60008115159050919050565b62000566816200054f565b81146200057257600080fd5b50565b60008151905062000586816200055b565b92915050565b600060208284031215620005a557620005a462000192565b5b6000620005b58482850162000575565b91505092915050565b6000604082019050620005d560008301856200043c565b620005e460208301846200043c565b939250505056fe60806040523480156200001157600080fd5b50604051620058b0380380620058b0833981810160405281019062000037919062000531565b8062000049816200013760201b60201c565b50806008908051906020019062000062929190620002e4565b50620000736200015360201b60201c565b600b60006101000a81548173ffffffffffffffffffffffffffffffffffffffff021916908373ffffffffffffffffffffffffffffffffffffffff160217905550620000e57f41444d494e5f524f4c4500000000000000000000000000000000000000000000336200015b60201b60201c565b8260099080519060200190620000fd929190620002e4565b5081600a908051906020019062000116929190620002e4565b506200012e60066200017160201b620013921760201c565b5050506200064e565b80600290805190602001906200014f929190620002e4565b5050565b600033905090565b6200016d82826200018760201b60201c565b5050565b6001816000016000828254019250508190555050565b6200019982826200027960201b60201c565b620002755760016005600084815260200190815260200160002060000160008373ffffffffffffffffffffffffffffffffffffffff1673ffffffffffffffffffffffffffffffffffffffff16815260200190815260200160002060006101000a81548160ff0219169083151502179055506200021a6200015360201b60201c565b73ffffffffffffffffffffffffffffffffffffffff168173ffffffffffffffffffffffffffffffffffffffff16837f2f8788117e7eff1d82e926ec794901d17c78024a50270940304540a733656f0d60405160405180910390a45b5050565b60006005600084815260200190815260200160002060000160008373ffffffffffffffffffffffffffffffffffffffff1673ffffffffffffffffffffffffffffffffffffffff16815260200190815260200160002060009054906101000a900460ff16905092915050565b828054620002f29062000619565b90600052602060002090601f01602090048101928262000316576000855562000362565b82601f106200033157805160ff191683800117855562000362565b8280016001018555821562000362579182015b828111156200036157825182559160200191906001019062000344565b5b50905062000371919062000375565b5090565b5b808211156200039057600081600090555060010162000376565b5090565b6000604051905090565b600080fd5b600080fd5b600080fd5b600080fd5b6000601f19601f8301169050919050565b7f4e487b7100000000000000000000000000000000000000000000000000000000600052604160045260246000fd5b620003fd82620003b2565b810181811067ffffffffffffffff821117156200041f576200041e620003c3565b5b80604052505050565b60006200043462000394565b9050620004428282620003f2565b919050565b600067ffffffffffffffff821115620004655762000464620003c3565b5b6200047082620003b2565b9050602081019050919050565b60005b838110156200049d57808201518184015260208101905062000480565b83811115620004ad576000848401525b50505050565b6000620004ca620004c48462000447565b62000428565b905082815260208101848484011115620004e957620004e8620003ad565b5b620004f68482856200047d565b509392505050565b600082601f830112620005165762000515620003a8565b5b815162000528848260208601620004b3565b91505092915050565b6000806000606084860312156200054d576200054c6200039e565b5b600084015167ffffffffffffffff8111156200056e576200056d620003a3565b5b6200057c86828701620004fe565b935050602084015167ffffffffffffffff811115620005a0576200059f620003a3565b5b620005ae86828701620004fe565b925050604084015167ffffffffffffffff811115620005d257620005d1620003a3565b5b620005e086828701620004fe565b9150509250925092565b7f4e487b7100000000000000000000000000000000000000000000000000000000600052602260045260246000fd5b600060028204905060018216806200063257607f821691505b602082108103620006485762000647620005ea565b5b50919050565b615252806200065e6000396000f3fe608060405234801561001057600080fd5b506004361061018d5760003560e01c806375b238fc116100de578063bd85b03911610097578063eca7b68111610071578063eca7b681146104e1578063f242432a14610511578063f2fde38b1461052d578063f5298aca1461055d5761018d565b8063bd85b03914610465578063d547741f14610495578063e985e9c5146104b15761018d565b806375b238fc146103a15780638da5cb5b146103bf57806391d14854146103dd57806395d89b411461040d578063a217fddf1461042b578063a22cb465146104495761018d565b80632eb2c2d61161014b5780634e1273f4116101255780634e1273f4146102f55780634f558e791461032557806355f804b3146103555780636b20c454146103855761018d565b80632eb2c2d6146102a15780632f2ff15d146102bd57806336568abe146102d95761018d565b8062fdd58e1461019257806301ffc9a7146101c257806306fdde03146101f25780630e89341c14610210578063248a9ca3146102405780632a55205a14610270575b600080fd5b6101ac60048036038101906101a79190613345565b610579565b6040516101b99190613394565b60405180910390f35b6101dc60048036038101906101d79190613407565b610641565b6040516101e9919061344f565b60405180910390f35b6101fa610653565b6040516102079190613503565b60405180910390f35b61022a60048036038101906102259190613525565b6106e5565b6040516102379190613503565b60405180910390f35b61025a60048036038101906102559190613588565b610883565b60405161026791906135c4565b60405180910390f35b61028a600480360381019061028591906135df565b6108a3565b60405161029892919061362e565b60405180910390f35b6102bb60048036038101906102b69190613854565b6109b1565b005b6102d760048036038101906102d29190613923565b610a52565b005b6102f360048036038101906102ee9190613923565b610a73565b005b61030f600480360381019061030a9190613a26565b610af6565b60405161031c9190613b5c565b60405180910390f35b61033f600480360381019061033a9190613525565b610c0f565b60405161034c919061344f565b60405180910390f35b61036f600480360381019061036a9190613c1f565b610c23565b60405161037c919061344f565b60405180910390f35b61039f600480360381019061039a9190613c68565b610d2e565b005b6103a9610dcb565b6040516103b691906135c4565b60405180910390f35b6103c7610def565b6040516103d49190613cf3565b60405180910390f35b6103f760048036038101906103f29190613923565b610e15565b604051610404919061344f565b60405180910390f35b610415610e80565b6040516104229190613503565b60405180910390f35b610433610f12565b60405161044091906135c4565b60405180910390f35b610463600480360381019061045e9190613d3a565b610f19565b005b61047f600480360381019061047a9190613525565b610f2f565b60405161048c9190613394565b60405180910390f35b6104af60048036038101906104aa9190613923565b610f4c565b005b6104cb60048036038101906104c69190613d7a565b610f6d565b6040516104d8919061344f565b60405180910390f35b6104fb60048036038101906104f69190613dfe565b611001565b6040516105089190613394565b60405180910390f35b61052b60048036038101906105269190613e6d565b61107c565b005b61054760048036038101906105429190613f04565b61111d565b604051610554919061344f565b60405180910390f35b61057760048036038101906105729190613f31565b6112f5565b005b60008073ffffffffffffffffffffffffffffffffffffffff168373ffffffffffffffffffffffffffffffffffffffff16036105e9576040517f08c379a00000000000000000000000000000000000000000000000000000000081526004016105e090613ff6565b60405180910390fd5b60008083815260200190815260200160002060008473ffffffffffffffffffffffffffffffffffffffff1673ffffffffffffffffffffffffffffffffffffffff16815260200190815260200160002054905092915050565b600061064c826113a8565b9050919050565b60606009805461066290614045565b80601f016020809104026020016040519081016040528092919081815260200182805461068e90614045565b80156106db5780601f106106b0576101008083540402835291602001916106db565b820191906000526020600020905b8154815290600101906020018083116106be57829003601f168201915b5050505050905090565b60606106f082610c0f565b61072f576040517f08c379a0000000000000000000000000000000000000000000000000000000008152600401610726906140e8565b60405180910390fd5b600060076000848152602001908152602001600020805461074f90614045565b80601f016020809104026020016040519081016040528092919081815260200182805461077b90614045565b80156107c85780601f1061079d576101008083540402835291602001916107c8565b820191906000526020600020905b8154815290600101906020018083116107ab57829003601f168201915b505050505090506000600880546107de90614045565b9050036107ee578091505061087e565b6000815111156108235760088160405160200161080c9291906141d8565b60405160208183030381529060405291505061087e565b60006008805461083290614045565b90501161084e576040518060200160405280600081525061087a565b600861085984611422565b60405160200161086a9291906141d8565b6040516020818303038152906040525b9150505b919050565b600060056000838152602001908152602001600020600101549050919050565b6000806000600460008681526020019081526020016000206040518060400160405290816000820160009054906101000a900473ffffffffffffffffffffffffffffffffffffffff1673ffffffffffffffffffffffffffffffffffffffff1673ffffffffffffffffffffffffffffffffffffffff1681526020016000820160149054906101000a90046bffffffffffffffffffffffff166bffffffffffffffffffffffff166bffffffffffffffffffffffff168152505090506000610966611582565b6bffffffffffffffffffffffff1682602001516bffffffffffffffffffffffff1686610992919061422b565b61099c91906142b4565b90508160000151819350935050509250929050565b6109b961158c565b73ffffffffffffffffffffffffffffffffffffffff168573ffffffffffffffffffffffffffffffffffffffff1614806109ff57506109fe856109f961158c565b610f6d565b5b610a3e576040517f08c379a0000000000000000000000000000000000000000000000000000000008152600401610a3590614357565b60405180910390fd5b610a4b8585858585611594565b5050505050565b610a5b82610883565b610a64816118b5565b610a6e83836118c9565b505050565b610a7b61158c565b73ffffffffffffffffffffffffffffffffffffffff168173ffffffffffffffffffffffffffffffffffffffff1614610ae8576040517f08c379a0000000000000000000000000000000000000000000000000000000008152600401610adf906143e9565b60405180910390fd5b610af282826119aa565b5050565b60608151835114610b3c576040517f08c379a0000000000000000000000000000000000000000000000000000000008152600401610b339061447b565b60405180910390fd5b6000835167ffffffffffffffff811115610b5957610b5861365c565b5b604051908082528060200260200182016040528015610b875781602001602082028036833780820191505090505b50905060005b8451811015610c0457610bd4858281518110610bac57610bab61449b565b5b6020026020010151858381518110610bc757610bc661449b565b5b6020026020010151610579565b828281518110610be757610be661449b565b5b60200260200101818152505080610bfd906144ca565b9050610b8d565b508091505092915050565b600080610c1b83610f2f565b119050919050565b60003373ffffffffffffffffffffffffffffffffffffffff16600b60009054906101000a900473ffffffffffffffffffffffffffffffffffffffff1673ffffffffffffffffffffffffffffffffffffffff1614610cb5576040517f08c379a0000000000000000000000000000000000000000000000000000000008152600401610cac9061455e565b60405180910390fd5b81604051610cc3919061457e565b60405180910390206008604051610cda9190614595565b60405180910390207fc41b7cb64e5be01af4afc2641afc861432136270f4206b7773f229b658b9669960405160405180910390a38160089080519060200190610d249291906131fa565b5060019050919050565b610d3661158c565b73ffffffffffffffffffffffffffffffffffffffff168373ffffffffffffffffffffffffffffffffffffffff161480610d7c5750610d7b83610d7661158c565b610f6d565b5b610dbb576040517f08c379a0000000000000000000000000000000000000000000000000000000008152600401610db29061461e565b60405180910390fd5b610dc6838383611a8c565b505050565b7fa49807205ce4d355092ef5a8a18f56e8913cf4a201fbe287825b095693c2177581565b600b60009054906101000a900473ffffffffffffffffffffffffffffffffffffffff1681565b60006005600084815260200190815260200160002060000160008373ffffffffffffffffffffffffffffffffffffffff1673ffffffffffffffffffffffffffffffffffffffff16815260200190815260200160002060009054906101000a900460ff16905092915050565b6060600a8054610e8f90614045565b80601f0160208091040260200160405190810160405280929190818152602001828054610ebb90614045565b8015610f085780601f10610edd57610100808354040283529160200191610f08565b820191906000526020600020905b815481529060010190602001808311610eeb57829003601f168201915b5050505050905090565b6000801b81565b610f2b610f2461158c565b8383611d5a565b5050565b600060036000838152602001908152602001600020549050919050565b610f5582610883565b610f5e816118b5565b610f6883836119aa565b505050565b6000600160008473ffffffffffffffffffffffffffffffffffffffff1673ffffffffffffffffffffffffffffffffffffffff16815260200190815260200160002060008373ffffffffffffffffffffffffffffffffffffffff1673ffffffffffffffffffffffffffffffffffffffff16815260200190815260200160002060009054906101000a900460ff16905092915050565b600061100d6006611ec6565b905061103161101a61158c565b828460405180602001604052806000815250611ed4565b836007600083815260200190815260200160002090805190602001906110589291906131fa565b5061106b8161106561158c565b85612084565b6110756006611392565b9392505050565b61108461158c565b73ffffffffffffffffffffffffffffffffffffffff168573ffffffffffffffffffffffffffffffffffffffff1614806110ca57506110c9856110c461158c565b610f6d565b5b611109576040517f08c379a00000000000000000000000000000000000000000000000000000000081526004016111009061461e565b60405180910390fd5b611116858585858561222b565b5050505050565b60007f41444d494e5f524f4c4500000000000000000000000000000000000000000000611149816118b5565b600073ffffffffffffffffffffffffffffffffffffffff168373ffffffffffffffffffffffffffffffffffffffff16036111b8576040517f08c379a00000000000000000000000000000000000000000000000000000000081526004016111af906146b0565b60405180910390fd5b6112047f41444d494e5f524f4c4500000000000000000000000000000000000000000000600b60009054906101000a900473ffffffffffffffffffffffffffffffffffffffff166119aa565b82600b60006101000a81548173ffffffffffffffffffffffffffffffffffffffff021916908373ffffffffffffffffffffffffffffffffffffffff16021790555061126f7f41444d494e5f524f4c4500000000000000000000000000000000000000000000846124c6565b8273ffffffffffffffffffffffffffffffffffffffff16600b60009054906101000a900473ffffffffffffffffffffffffffffffffffffffff1673ffffffffffffffffffffffffffffffffffffffff167f8be0079c531659141344cd1fd0a4f28419497f9722a3daafe3b4186f6b6457e060405160405180910390a36001915050919050565b6112fd61158c565b73ffffffffffffffffffffffffffffffffffffffff168373ffffffffffffffffffffffffffffffffffffffff16148061134357506113428361133d61158c565b610f6d565b5b611382576040517f08c379a00000000000000000000000000000000000000000000000000000000081526004016113799061461e565b60405180910390fd5b61138d8383836124d4565b505050565b6001816000016000828254019250508190555050565b60007f7965db0b000000000000000000000000000000000000000000000000000000007bffffffffffffffffffffffffffffffffffffffffffffffffffffffff1916827bffffffffffffffffffffffffffffffffffffffffffffffffffffffff1916148061141b575061141a8261271a565b5b9050919050565b606060008203611469576040518060400160405280600181526020017f3000000000000000000000000000000000000000000000000000000000000000815250905061157d565b600082905060005b6000821461149b578080611484906144ca565b915050600a8261149491906142b4565b9150611471565b60008167ffffffffffffffff8111156114b7576114b661365c565b5b6040519080825280601f01601f1916602001820160405280156114e95781602001600182028036833780820191505090505b5090505b600085146115765760018261150291906146d0565b9150600a856115119190614704565b603061151d9190614735565b60f81b8183815181106115335761153261449b565b5b60200101907effffffffffffffffffffffffffffffffffffffffffffffffffffffffffffff1916908160001a905350600a8561156f91906142b4565b94506114ed565b8093505050505b919050565b60006103e8905090565b600033905090565b81518351146115d8576040517f08c379a00000000000000000000000000000000000000000000000000000000081526004016115cf906147fd565b60405180910390fd5b600073ffffffffffffffffffffffffffffffffffffffff168473ffffffffffffffffffffffffffffffffffffffff1603611647576040517f08c379a000000000000000000000000000000000000000000000000000000000815260040161163e9061488f565b60405180910390fd5b600061165161158c565b9050611661818787878787612794565b60005b84518110156118125760008582815181106116825761168161449b565b5b6020026020010151905060008583815181106116a1576116a061449b565b5b60200260200101519050600080600084815260200190815260200160002060008b73ffffffffffffffffffffffffffffffffffffffff1673ffffffffffffffffffffffffffffffffffffffff16815260200190815260200160002054905081811015611742576040517f08c379a000000000000000000000000000000000000000000000000000000000815260040161173990614921565b60405180910390fd5b81810360008085815260200190815260200160002060008c73ffffffffffffffffffffffffffffffffffffffff1673ffffffffffffffffffffffffffffffffffffffff168152602001908152602001600020819055508160008085815260200190815260200160002060008b73ffffffffffffffffffffffffffffffffffffffff1673ffffffffffffffffffffffffffffffffffffffff16815260200190815260200160002060008282546117f79190614735565b925050819055505050508061180b906144ca565b9050611664565b508473ffffffffffffffffffffffffffffffffffffffff168673ffffffffffffffffffffffffffffffffffffffff168273ffffffffffffffffffffffffffffffffffffffff167f4a39dc06d4c0dbc64b70af90fd698a233a518aa5d07e595d983b8c0526c8f7fb8787604051611889929190614941565b60405180910390a461189f8187878787876127aa565b6118ad8187878787876127b2565b505050505050565b6118c6816118c161158c565b612989565b50565b6118d38282610e15565b6119a65760016005600084815260200190815260200160002060000160008373ffffffffffffffffffffffffffffffffffffffff1673ffffffffffffffffffffffffffffffffffffffff16815260200190815260200160002060006101000a81548160ff02191690831515021790555061194b61158c565b73ffffffffffffffffffffffffffffffffffffffff168173ffffffffffffffffffffffffffffffffffffffff16837f2f8788117e7eff1d82e926ec794901d17c78024a50270940304540a733656f0d60405160405180910390a45b5050565b6119b48282610e15565b15611a885760006005600084815260200190815260200160002060000160008373ffffffffffffffffffffffffffffffffffffffff1673ffffffffffffffffffffffffffffffffffffffff16815260200190815260200160002060006101000a81548160ff021916908315150217905550611a2d61158c565b73ffffffffffffffffffffffffffffffffffffffff168173ffffffffffffffffffffffffffffffffffffffff16837ff6391f5c32d9c69d2a47ea670b442974b53935d1edc7fd64eb21e047a839171b60405160405180910390a45b5050565b600073ffffffffffffffffffffffffffffffffffffffff168373ffffffffffffffffffffffffffffffffffffffff1603611afb576040517f08c379a0000000000000000000000000000000000000000000000000000000008152600401611af2906149ea565b60405180910390fd5b8051825114611b3f576040517f08c379a0000000000000000000000000000000000000000000000000000000008152600401611b36906147fd565b60405180910390fd5b6000611b4961158c565b9050611b6981856000868660405180602001604052806000815250612794565b60005b8351811015611cb6576000848281518110611b8a57611b8961449b565b5b602002602001015190506000848381518110611ba957611ba861449b565b5b60200260200101519050600080600084815260200190815260200160002060008973ffffffffffffffffffffffffffffffffffffffff1673ffffffffffffffffffffffffffffffffffffffff16815260200190815260200160002054905081811015611c4a576040517f08c379a0000000000000000000000000000000000000000000000000000000008152600401611c4190614a7c565b60405180910390fd5b81810360008085815260200190815260200160002060008a73ffffffffffffffffffffffffffffffffffffffff1673ffffffffffffffffffffffffffffffffffffffff168152602001908152602001600020819055505050508080611cae906144ca565b915050611b6c565b50600073ffffffffffffffffffffffffffffffffffffffff168473ffffffffffffffffffffffffffffffffffffffff168273ffffffffffffffffffffffffffffffffffffffff167f4a39dc06d4c0dbc64b70af90fd698a233a518aa5d07e595d983b8c0526c8f7fb8686604051611d2e929190614941565b60405180910390a4611d54818560008686604051806020016040528060008152506127aa565b50505050565b8173ffffffffffffffffffffffffffffffffffffffff168373ffffffffffffffffffffffffffffffffffffffff1603611dc8576040517f08c379a0000000000000000000000000000000000000000000000000000000008152600401611dbf90614b0e565b60405180910390fd5b80600160008573ffffffffffffffffffffffffffffffffffffffff1673ffffffffffffffffffffffffffffffffffffffff16815260200190815260200160002060008473ffffffffffffffffffffffffffffffffffffffff1673ffffffffffffffffffffffffffffffffffffffff16815260200190815260200160002060006101000a81548160ff0219169083151502179055508173ffffffffffffffffffffffffffffffffffffffff168373ffffffffffffffffffffffffffffffffffffffff167f17307eab39ab6107e8899845ad3d59bd9653f200f220920489ca2b5937696c3183604051611eb9919061344f565b60405180910390a3505050565b600081600001549050919050565b600073ffffffffffffffffffffffffffffffffffffffff168473ffffffffffffffffffffffffffffffffffffffff1603611f43576040517f08c379a0000000000000000000000000000000000000000000000000000000008152600401611f3a90614ba0565b60405180910390fd5b6000611f4d61158c565b90506000611f5a85612a26565b90506000611f6785612a26565b9050611f7883600089858589612794565b8460008088815260200190815260200160002060008973ffffffffffffffffffffffffffffffffffffffff1673ffffffffffffffffffffffffffffffffffffffff1681526020019081526020016000206000828254611fd79190614735565b925050819055508673ffffffffffffffffffffffffffffffffffffffff16600073ffffffffffffffffffffffffffffffffffffffff168473ffffffffffffffffffffffffffffffffffffffff167fc3d58168c5ae7397731d063d5bbf3d657854427343f4c083240f7aacaa2d0f628989604051612055929190614bc0565b60405180910390a461206c836000898585896127aa565b61207b83600089898989612aa0565b50505050505050565b61208c611582565b6bffffffffffffffffffffffff16816bffffffffffffffffffffffff1611156120ea576040517f08c379a00000000000000000000000000000000000000000000000000000000081526004016120e190614c5b565b60405180910390fd5b600073ffffffffffffffffffffffffffffffffffffffff168273ffffffffffffffffffffffffffffffffffffffff1603612159576040517f08c379a000000000000000000000000000000000000000000000000000000000815260040161215090614cc7565b60405180910390fd5b60405180604001604052808373ffffffffffffffffffffffffffffffffffffffff168152602001826bffffffffffffffffffffffff168152506004600085815260200190815260200160002060008201518160000160006101000a81548173ffffffffffffffffffffffffffffffffffffffff021916908373ffffffffffffffffffffffffffffffffffffffff16021790555060208201518160000160146101000a8154816bffffffffffffffffffffffff02191690836bffffffffffffffffffffffff160217905550905050505050565b600073ffffffffffffffffffffffffffffffffffffffff168473ffffffffffffffffffffffffffffffffffffffff160361229a576040517f08c379a00000000000000000000000000000000000000000000000000000000081526004016122919061488f565b60405180910390fd5b60006122a461158c565b905060006122b185612a26565b905060006122be85612a26565b90506122ce838989858589612794565b600080600088815260200190815260200160002060008a73ffffffffffffffffffffffffffffffffffffffff1673ffffffffffffffffffffffffffffffffffffffff16815260200190815260200160002054905085811015612365576040517f08c379a000000000000000000000000000000000000000000000000000000000815260040161235c90614921565b60405180910390fd5b85810360008089815260200190815260200160002060008b73ffffffffffffffffffffffffffffffffffffffff1673ffffffffffffffffffffffffffffffffffffffff168152602001908152602001600020819055508560008089815260200190815260200160002060008a73ffffffffffffffffffffffffffffffffffffffff1673ffffffffffffffffffffffffffffffffffffffff168152602001908152602001600020600082825461241a9190614735565b925050819055508773ffffffffffffffffffffffffffffffffffffffff168973ffffffffffffffffffffffffffffffffffffffff168573ffffffffffffffffffffffffffffffffffffffff167fc3d58168c5ae7397731d063d5bbf3d657854427343f4c083240f7aacaa2d0f628a8a604051612497929190614bc0565b60405180910390a46124ad848a8a86868a6127aa565b6124bb848a8a8a8a8a612aa0565b505050505050505050565b6124d082826118c9565b5050565b600073ffffffffffffffffffffffffffffffffffffffff168373ffffffffffffffffffffffffffffffffffffffff1603612543576040517f08c379a000000000000000000000000000000000000000000000000000000000815260040161253a906149ea565b60405180910390fd5b600061254d61158c565b9050600061255a84612a26565b9050600061256784612a26565b905061258783876000858560405180602001604052806000815250612794565b600080600087815260200190815260200160002060008873ffffffffffffffffffffffffffffffffffffffff1673ffffffffffffffffffffffffffffffffffffffff1681526020019081526020016000205490508481101561261e576040517f08c379a000000000000000000000000000000000000000000000000000000000815260040161261590614a7c565b60405180910390fd5b84810360008088815260200190815260200160002060008973ffffffffffffffffffffffffffffffffffffffff1673ffffffffffffffffffffffffffffffffffffffff16815260200190815260200160002081905550600073ffffffffffffffffffffffffffffffffffffffff168773ffffffffffffffffffffffffffffffffffffffff168573ffffffffffffffffffffffffffffffffffffffff167fc3d58168c5ae7397731d063d5bbf3d657854427343f4c083240f7aacaa2d0f6289896040516126eb929190614bc0565b60405180910390a4612711848860008686604051806020016040528060008152506127aa565b50505050505050565b60007f2a55205a000000000000000000000000000000000000000000000000000000007bffffffffffffffffffffffffffffffffffffffffffffffffffffffff1916827bffffffffffffffffffffffffffffffffffffffffffffffffffffffff1916148061278d575061278c82612c77565b5b9050919050565b6127a2868686868686612d59565b505050505050565b505050505050565b6127d18473ffffffffffffffffffffffffffffffffffffffff16612f29565b15612981578373ffffffffffffffffffffffffffffffffffffffff1663bc197c8187878686866040518663ffffffff1660e01b8152600401612817959493929190614d3c565b6020604051808303816000875af192505050801561285357506040513d601f19601f820116820180604052508101906128509190614db9565b60015b6128f85761285f614df3565b806308c379a0036128bb5750612873614e15565b8061287e57506128bd565b806040517f08c379a00000000000000000000000000000000000000000000000000000000081526004016128b29190613503565b60405180910390fd5b505b6040517f08c379a00000000000000000000000000000000000000000000000000000000081526004016128ef90614f17565b60405180910390fd5b63bc197c8160e01b7bffffffffffffffffffffffffffffffffffffffffffffffffffffffff1916817bffffffffffffffffffffffffffffffffffffffffffffffffffffffff19161461297f576040517f08c379a000000000000000000000000000000000000000000000000000000000815260040161297690614fa9565b60405180910390fd5b505b505050505050565b6129938282610e15565b612a22576129b88173ffffffffffffffffffffffffffffffffffffffff166014612f4c565b6129c68360001c6020612f4c565b6040516020016129d7929190615061565b6040516020818303038152906040526040517f08c379a0000000000000000000000000000000000000000000000000000000008152600401612a199190613503565b60405180910390fd5b5050565b60606000600167ffffffffffffffff811115612a4557612a4461365c565b5b604051908082528060200260200182016040528015612a735781602001602082028036833780820191505090505b5090508281600081518110612a8b57612a8a61449b565b5b60200260200101818152505080915050919050565b612abf8473ffffffffffffffffffffffffffffffffffffffff16612f29565b15612c6f578373ffffffffffffffffffffffffffffffffffffffff1663f23a6e6187878686866040518663ffffffff1660e01b8152600401612b0595949392919061509b565b6020604051808303816000875af1925050508015612b4157506040513d601f19601f82011682018060405250810190612b3e9190614db9565b60015b612be657612b4d614df3565b806308c379a003612ba95750612b61614e15565b80612b6c5750612bab565b806040517f08c379a0000000000000000000000000000000000000000000000000000000008152600401612ba09190613503565b60405180910390fd5b505b6040517f08c379a0000000000000000000000000000000000000000000000000000000008152600401612bdd90614f17565b60405180910390fd5b63f23a6e6160e01b7bffffffffffffffffffffffffffffffffffffffffffffffffffffffff1916817bffffffffffffffffffffffffffffffffffffffffffffffffffffffff191614612c6d576040517f08c379a0000000000000000000000000000000000000000000000000000000008152600401612c6490614fa9565b60405180910390fd5b505b505050505050565b60007fd9b67a26000000000000000000000000000000000000000000000000000000007bffffffffffffffffffffffffffffffffffffffffffffffffffffffff1916827bffffffffffffffffffffffffffffffffffffffffffffffffffffffff19161480612d4257507f0e89341c000000000000000000000000000000000000000000000000000000007bffffffffffffffffffffffffffffffffffffffffffffffffffffffff1916827bffffffffffffffffffffffffffffffffffffffffffffffffffffffff1916145b80612d525750612d5182613188565b5b9050919050565b612d678686868686866131f2565b600073ffffffffffffffffffffffffffffffffffffffff168573ffffffffffffffffffffffffffffffffffffffff1603612e185760005b8351811015612e1657828181518110612dba57612db961449b565b5b602002602001015160036000868481518110612dd957612dd861449b565b5b602002602001015181526020019081526020016000206000828254612dfe9190614735565b9250508190555080612e0f906144ca565b9050612d9e565b505b600073ffffffffffffffffffffffffffffffffffffffff168473ffffffffffffffffffffffffffffffffffffffff1603612f215760005b8351811015612f1f576000848281518110612e6d57612e6c61449b565b5b602002602001015190506000848381518110612e8c57612e8b61449b565b5b6020026020010151905060006003600084815260200190815260200160002054905081811015612ef1576040517f08c379a0000000000000000000000000000000000000000000000000000000008152600401612ee890615167565b60405180910390fd5b818103600360008581526020019081526020016000208190555050505080612f18906144ca565b9050612e4f565b505b505050505050565b6000808273ffffffffffffffffffffffffffffffffffffffff163b119050919050565b606060006002836002612f5f919061422b565b612f699190614735565b67ffffffffffffffff811115612f8257612f8161365c565b5b6040519080825280601f01601f191660200182016040528015612fb45781602001600182028036833780820191505090505b5090507f300000000000000000000000000000000000000000000000000000000000000081600081518110612fec57612feb61449b565b5b60200101907effffffffffffffffffffffffffffffffffffffffffffffffffffffffffffff1916908160001a9053507f7800000000000000000000000000000000000000000000000000000000000000816001815181106130505761304f61449b565b5b60200101907effffffffffffffffffffffffffffffffffffffffffffffffffffffffffffff1916908160001a90535060006001846002613090919061422b565b61309a9190614735565b90505b600181111561313a577f3031323334353637383961626364656600000000000000000000000000000000600f8616601081106130dc576130db61449b565b5b1a60f81b8282815181106130f3576130f261449b565b5b60200101907effffffffffffffffffffffffffffffffffffffffffffffffffffffffffffff1916908160001a905350600485901c94508061313390615187565b905061309d565b506000841461317e576040517f08c379a0000000000000000000000000000000000000000000000000000000008152600401613175906151fc565b60405180910390fd5b8091505092915050565b60007f01ffc9a7000000000000000000000000000000000000000000000000000000007bffffffffffffffffffffffffffffffffffffffffffffffffffffffff1916827bffffffffffffffffffffffffffffffffffffffffffffffffffffffff1916149050919050565b505050505050565b82805461320690614045565b90600052602060002090601f016020900481019282613228576000855561326f565b82601f1061324157805160ff191683800117855561326f565b8280016001018555821561326f579182015b8281111561326e578251825591602001919060010190613253565b5b50905061327c9190613280565b5090565b5b80821115613299576000816000905550600101613281565b5090565b6000604051905090565b600080fd5b600080fd5b600073ffffffffffffffffffffffffffffffffffffffff82169050919050565b60006132dc826132b1565b9050919050565b6132ec816132d1565b81146132f757600080fd5b50565b600081359050613309816132e3565b92915050565b6000819050919050565b6133228161330f565b811461332d57600080fd5b50565b60008135905061333f81613319565b92915050565b6000806040838503121561335c5761335b6132a7565b5b600061336a858286016132fa565b925050602061337b85828601613330565b9150509250929050565b61338e8161330f565b82525050565b60006020820190506133a96000830184613385565b92915050565b60007fffffffff0000000000000000000000000000000000000000000000000000000082169050919050565b6133e4816133af565b81146133ef57600080fd5b50565b600081359050613401816133db565b92915050565b60006020828403121561341d5761341c6132a7565b5b600061342b848285016133f2565b91505092915050565b60008115159050919050565b61344981613434565b82525050565b60006020820190506134646000830184613440565b92915050565b600081519050919050565b600082825260208201905092915050565b60005b838110156134a4578082015181840152602081019050613489565b838111156134b3576000848401525b50505050565b6000601f19601f8301169050919050565b60006134d58261346a565b6134df8185613475565b93506134ef818560208601613486565b6134f8816134b9565b840191505092915050565b6000602082019050818103600083015261351d81846134ca565b905092915050565b60006020828403121561353b5761353a6132a7565b5b600061354984828501613330565b91505092915050565b6000819050919050565b61356581613552565b811461357057600080fd5b50565b6000813590506135828161355c565b92915050565b60006020828403121561359e5761359d6132a7565b5b60006135ac84828501613573565b91505092915050565b6135be81613552565b82525050565b60006020820190506135d960008301846135b5565b92915050565b600080604083850312156135f6576135f56132a7565b5b600061360485828601613330565b925050602061361585828601613330565b9150509250929050565b613628816132d1565b82525050565b6000604082019050613643600083018561361f565b6136506020830184613385565b9392505050565b600080fd5b7f4e487b7100000000000000000000000000000000000000000000000000000000600052604160045260246000fd5b613694826134b9565b810181811067ffffffffffffffff821117156136b3576136b261365c565b5b80604052505050565b60006136c661329d565b90506136d2828261368b565b919050565b600067ffffffffffffffff8211156136f2576136f161365c565b5b602082029050602081019050919050565b600080fd5b600061371b613716846136d7565b6136bc565b9050808382526020820190506020840283018581111561373e5761373d613703565b5b835b8181101561376757806137538882613330565b845260208401935050602081019050613740565b5050509392505050565b600082601f83011261378657613785613657565b5b8135613796848260208601613708565b91505092915050565b600080fd5b600067ffffffffffffffff8211156137bf576137be61365c565b5b6137c8826134b9565b9050602081019050919050565b82818337600083830152505050565b60006137f76137f2846137a4565b6136bc565b9050828152602081018484840111156138135761381261379f565b5b61381e8482856137d5565b509392505050565b600082601f83011261383b5761383a613657565b5b813561384b8482602086016137e4565b91505092915050565b600080600080600060a086880312156138705761386f6132a7565b5b600061387e888289016132fa565b955050602061388f888289016132fa565b945050604086013567ffffffffffffffff8111156138b0576138af6132ac565b5b6138bc88828901613771565b935050606086013567ffffffffffffffff8111156138dd576138dc6132ac565b5b6138e988828901613771565b925050608086013567ffffffffffffffff81111561390a576139096132ac565b5b61391688828901613826565b9150509295509295909350565b6000806040838503121561393a576139396132a7565b5b600061394885828601613573565b9250506020613959858286016132fa565b9150509250929050565b600067ffffffffffffffff82111561397e5761397d61365c565b5b602082029050602081019050919050565b60006139a261399d84613963565b6136bc565b905080838252602082019050602084028301858111156139c5576139c4613703565b5b835b818110156139ee57806139da88826132fa565b8452602084019350506020810190506139c7565b5050509392505050565b600082601f830112613a0d57613a0c613657565b5b8135613a1d84826020860161398f565b91505092915050565b60008060408385031215613a3d57613a3c6132a7565b5b600083013567ffffffffffffffff811115613a5b57613a5a6132ac565b5b613a67858286016139f8565b925050602083013567ffffffffffffffff811115613a8857613a876132ac565b5b613a9485828601613771565b9150509250929050565b600081519050919050565b600082825260208201905092915050565b6000819050602082019050919050565b613ad38161330f565b82525050565b6000613ae58383613aca565b60208301905092915050565b6000602082019050919050565b6000613b0982613a9e565b613b138185613aa9565b9350613b1e83613aba565b8060005b83811015613b4f578151613b368882613ad9565b9750613b4183613af1565b925050600181019050613b22565b5085935050505092915050565b60006020820190508181036000830152613b768184613afe565b905092915050565b600067ffffffffffffffff821115613b9957613b9861365c565b5b613ba2826134b9565b9050602081019050919050565b6000613bc2613bbd84613b7e565b6136bc565b905082815260208101848484011115613bde57613bdd61379f565b5b613be98482856137d5565b509392505050565b600082601f830112613c0657613c05613657565b5b8135613c16848260208601613baf565b91505092915050565b600060208284031215613c3557613c346132a7565b5b600082013567ffffffffffffffff811115613c5357613c526132ac565b5b613c5f84828501613bf1565b91505092915050565b600080600060608486031215613c8157613c806132a7565b5b6000613c8f868287016132fa565b935050602084013567ffffffffffffffff811115613cb057613caf6132ac565b5b613cbc86828701613771565b925050604084013567ffffffffffffffff811115613cdd57613cdc6132ac565b5b613ce986828701613771565b9150509250925092565b6000602082019050613d08600083018461361f565b92915050565b613d1781613434565b8114613d2257600080fd5b50565b600081359050613d3481613d0e565b92915050565b60008060408385031215613d5157613d506132a7565b5b6000613d5f858286016132fa565b9250506020613d7085828601613d25565b9150509250929050565b60008060408385031215613d9157613d906132a7565b5b6000613d9f858286016132fa565b9250506020613db0858286016132fa565b9150509250929050565b60006bffffffffffffffffffffffff82169050919050565b613ddb81613dba565b8114613de657600080fd5b50565b600081359050613df881613dd2565b92915050565b600080600060608486031215613e1757613e166132a7565b5b600084013567ffffffffffffffff811115613e3557613e346132ac565b5b613e4186828701613bf1565b9350506020613e5286828701613de9565b9250506040613e6386828701613330565b9150509250925092565b600080600080600060a08688031215613e8957613e886132a7565b5b6000613e97888289016132fa565b9550506020613ea8888289016132fa565b9450506040613eb988828901613330565b9350506060613eca88828901613330565b925050608086013567ffffffffffffffff811115613eeb57613eea6132ac565b5b613ef788828901613826565b9150509295509295909350565b600060208284031215613f1a57613f196132a7565b5b6000613f28848285016132fa565b91505092915050565b600080600060608486031215613f4a57613f496132a7565b5b6000613f58868287016132fa565b9350506020613f6986828701613330565b9250506040613f7a86828701613330565b9150509250925092565b7f455243313135353a2062616c616e636520717565727920666f7220746865207a60008201527f65726f2061646472657373000000000000000000000000000000000000000000602082015250565b6000613fe0602b83613475565b9150613feb82613f84565b604082019050919050565b6000602082019050818103600083015261400f81613fd3565b9050919050565b7f4e487b7100000000000000000000000000000000000000000000000000000000600052602260045260246000fd5b6000600282049050600182168061405d57607f821691505b6020821081036140705761406f614016565b5b50919050565b7f4552433131353555524953746f726167653a2055524920717565727920666f7260008201527f206e6f6e6578697374656e7420746f6b656e0000000000000000000000000000602082015250565b60006140d2603283613475565b91506140dd82614076565b604082019050919050565b60006020820190508181036000830152614101816140c5565b9050919050565b600081905092915050565b60008190508160005260206000209050919050565b6000815461413581614045565b61413f8186614108565b9450600182166000811461415a576001811461416b5761419e565b60ff1983168652818601935061419e565b61417485614113565b60005b8381101561419657815481890152600182019150602081019050614177565b838801955050505b50505092915050565b60006141b28261346a565b6141bc8185614108565b93506141cc818560208601613486565b80840191505092915050565b60006141e48285614128565b91506141f082846141a7565b91508190509392505050565b7f4e487b7100000000000000000000000000000000000000000000000000000000600052601160045260246000fd5b60006142368261330f565b91506142418361330f565b9250817fffffffffffffffffffffffffffffffffffffffffffffffffffffffffffffffff048311821515161561427a576142796141fc565b5b828202905092915050565b7f4e487b7100000000000000000000000000000000000000000000000000000000600052601260045260246000fd5b60006142bf8261330f565b91506142ca8361330f565b9250826142da576142d9614285565b5b828204905092915050565b7f455243313135353a207472616e736665722063616c6c6572206973206e6f742060008201527f6f776e6572206e6f7220617070726f7665640000000000000000000000000000602082015250565b6000614341603283613475565b915061434c826142e5565b604082019050919050565b6000602082019050818103600083015261437081614334565b9050919050565b7f416363657373436f6e74726f6c3a2063616e206f6e6c792072656e6f756e636560008201527f20726f6c657320666f722073656c660000000000000000000000000000000000602082015250565b60006143d3602f83613475565b91506143de82614377565b604082019050919050565b60006020820190508181036000830152614402816143c6565b9050919050565b7f455243313135353a206163636f756e747320616e6420696473206c656e67746860008201527f206d69736d617463680000000000000000000000000000000000000000000000602082015250565b6000614465602983613475565b915061447082614409565b604082019050919050565b6000602082019050818103600083015261449481614458565b9050919050565b7f4e487b7100000000000000000000000000000000000000000000000000000000600052603260045260246000fd5b60006144d58261330f565b91507fffffffffffffffffffffffffffffffffffffffffffffffffffffffffffffffff8203614507576145066141fc565b5b600182019050919050565b7f4f776e61626c653a2063616c6c6572206973206e6f7420746865206f776e6572600082015250565b6000614548602083613475565b915061455382614512565b602082019050919050565b600060208201905081810360008301526145778161453b565b9050919050565b600061458a82846141a7565b915081905092915050565b60006145a18284614128565b915081905092915050565b7f455243313135353a2063616c6c6572206973206e6f74206f776e6572206e6f7260008201527f20617070726f7665640000000000000000000000000000000000000000000000602082015250565b6000614608602983613475565b9150614613826145ac565b604082019050919050565b60006020820190508181036000830152614637816145fb565b9050919050565b7f4f776e61626c653a206e6577206f776e657220697320746865207a65726f206160008201527f6464726573730000000000000000000000000000000000000000000000000000602082015250565b600061469a602683613475565b91506146a58261463e565b604082019050919050565b600060208201905081810360008301526146c98161468d565b9050919050565b60006146db8261330f565b91506146e68361330f565b9250828210156146f9576146f86141fc565b5b828203905092915050565b600061470f8261330f565b915061471a8361330f565b92508261472a57614729614285565b5b828206905092915050565b60006147408261330f565b915061474b8361330f565b9250827fffffffffffffffffffffffffffffffffffffffffffffffffffffffffffffffff038211156147805761477f6141fc565b5b828201905092915050565b7f455243313135353a2069647320616e6420616d6f756e7473206c656e6774682060008201527f6d69736d61746368000000000000000000000000000000000000000000000000602082015250565b60006147e7602883613475565b91506147f28261478b565b604082019050919050565b60006020820190508181036000830152614816816147da565b9050919050565b7f455243313135353a207472616e7366657220746f20746865207a65726f20616460008201527f6472657373000000000000000000000000000000000000000000000000000000602082015250565b6000614879602583613475565b91506148848261481d565b604082019050919050565b600060208201905081810360008301526148a88161486c565b9050919050565b7f455243313135353a20696e73756666696369656e742062616c616e636520666f60008201527f72207472616e7366657200000000000000000000000000000000000000000000602082015250565b600061490b602a83613475565b9150614916826148af565b604082019050919050565b6000602082019050818103600083015261493a816148fe565b9050919050565b6000604082019050818103600083015261495b8185613afe565b9050818103602083015261496f8184613afe565b90509392505050565b7f455243313135353a206275726e2066726f6d20746865207a65726f206164647260008201527f6573730000000000000000000000000000000000000000000000000000000000602082015250565b60006149d4602383613475565b91506149df82614978565b604082019050919050565b60006020820190508181036000830152614a03816149c7565b9050919050565b7f455243313135353a206275726e20616d6f756e7420657863656564732062616c60008201527f616e636500000000000000000000000000000000000000000000000000000000602082015250565b6000614a66602483613475565b9150614a7182614a0a565b604082019050919050565b60006020820190508181036000830152614a9581614a59565b9050919050565b7f455243313135353a2073657474696e6720617070726f76616c2073746174757360008201527f20666f722073656c660000000000000000000000000000000000000000000000602082015250565b6000614af8602983613475565b9150614b0382614a9c565b604082019050919050565b60006020820190508181036000830152614b2781614aeb565b9050919050565b7f455243313135353a206d696e7420746f20746865207a65726f2061646472657360008201527f7300000000000000000000000000000000000000000000000000000000000000602082015250565b6000614b8a602183613475565b9150614b9582614b2e565b604082019050919050565b60006020820190508181036000830152614bb981614b7d565b9050919050565b6000604082019050614bd56000830185613385565b614be26020830184613385565b9392505050565b7f455243323938313a20726f79616c7479206665652077696c6c2065786365656460008201527f2073616c65507269636500000000000000000000000000000000000000000000602082015250565b6000614c45602a83613475565b9150614c5082614be9565b604082019050919050565b60006020820190508181036000830152614c7481614c38565b9050919050565b7f455243323938313a20496e76616c696420706172616d65746572730000000000600082015250565b6000614cb1601b83613475565b9150614cbc82614c7b565b602082019050919050565b60006020820190508181036000830152614ce081614ca4565b9050919050565b600081519050919050565b600082825260208201905092915050565b6000614d0e82614ce7565b614d188185614cf2565b9350614d28818560208601613486565b614d31816134b9565b840191505092915050565b600060a082019050614d51600083018861361f565b614d5e602083018761361f565b8181036040830152614d708186613afe565b90508181036060830152614d848185613afe565b90508181036080830152614d988184614d03565b90509695505050505050565b600081519050614db3816133db565b92915050565b600060208284031215614dcf57614dce6132a7565b5b6000614ddd84828501614da4565b91505092915050565b60008160e01c9050919050565b600060033d1115614e125760046000803e614e0f600051614de6565b90505b90565b600060443d10614ea257614e2761329d565b60043d036004823e80513d602482011167ffffffffffffffff82111715614e4f575050614ea2565b808201805167ffffffffffffffff811115614e6d5750505050614ea2565b80602083010160043d038501811115614e8a575050505050614ea2565b614e998260200185018661368b565b82955050505050505b90565b7f455243313135353a207472616e7366657220746f206e6f6e204552433131353560008201527f526563656976657220696d706c656d656e746572000000000000000000000000602082015250565b6000614f01603483613475565b9150614f0c82614ea5565b604082019050919050565b60006020820190508181036000830152614f3081614ef4565b9050919050565b7f455243313135353a204552433131353552656365697665722072656a6563746560008201527f6420746f6b656e73000000000000000000000000000000000000000000000000602082015250565b6000614f93602883613475565b9150614f9e82614f37565b604082019050919050565b60006020820190508181036000830152614fc281614f86565b9050919050565b7f416363657373436f6e74726f6c3a206163636f756e7420000000000000000000600082015250565b6000614fff601783614108565b915061500a82614fc9565b601782019050919050565b7f206973206d697373696e6720726f6c6520000000000000000000000000000000600082015250565b600061504b601183614108565b915061505682615015565b601182019050919050565b600061506c82614ff2565b915061507882856141a7565b91506150838261503e565b915061508f82846141a7565b91508190509392505050565b600060a0820190506150b0600083018861361f565b6150bd602083018761361f565b6150ca6040830186613385565b6150d76060830185613385565b81810360808301526150e98184614d03565b90509695505050505050565b7f455243313135353a206275726e20616d6f756e74206578636565647320746f7460008201527f616c537570706c79000000000000000000000000000000000000000000000000602082015250565b6000615151602883613475565b915061515c826150f5565b604082019050919050565b6000602082019050818103600083015261518081615144565b9050919050565b60006151928261330f565b9150600082036151a5576151a46141fc565b5b600182039050919050565b7f537472696e67733a20686578206c656e67746820696e73756666696369656e74600082015250565b60006151e6602083613475565b91506151f1826151b0565b602082019050919050565b60006020820190508181036000830152615215816151d9565b905091905056fea264697066735822122090c635ab012622f61655f9f2b52adf4a393ebf30515c66e16690b3bd45d6aba164736f6c634300080e0033a2646970667358221220e9793ad7cb2f6e4f701124b0a79264d0a5a6f852189cfa04c7509bbbc71ed3a464736f6c634300080e0033",
  "linkReferences": {},
  "deployedLinkReferences": {}
}