{
  "_format": "hh-sol-artifact-1",
  "contractName": "Blockrithm1155",
  "sourceName": "contracts/Blockrithm1155.sol",
  "abi": [
    {
      "inputs": [
        {
          "internalType": "string",
          "name": "_tokenName",
          "type": "string"
        },
        {
          "internalType": "string",
          "name": "_tokenSymbol",
          "type": "string"
        },
        {
          "internalType": "string",
          "name": "_baseTokenURI",
          "type": "string"
        }
      ],
      "stateMutability": "nonpayable",
      "type": "constructor"
    },
    {
      "anonymous": false,
      "inputs": [
        {
          "indexed": true,
          "internalType": "address",
          "name": "account",
          "type": "address"
        },
        {
          "indexed": true,
          "internalType": "address",
          "name": "operator",
          "type": "address"
        },
        {
          "indexed": false,
          "internalType": "bool",
          "name": "approved",
          "type": "bool"
        }
      ],
      "name": "ApprovalForAll",
      "type": "event"
    },
    {
      "anonymous": false,
      "inputs": [
        {
          "indexed": true,
          "internalType": "string",
          "name": "uri",
          "type": "string"
        },
        {
          "indexed": true,
          "internalType": "string",
          "name": "newuri",
          "type": "string"
        }
      ],
      "name": "BaseURIChanged",
      "type": "event"
    },
    {
      "anonymous": false,
      "inputs": [
        {
          "indexed": true,
          "internalType": "address",
          "name": "previousOwner",
          "type": "address"
        },
        {
          "indexed": true,
          "internalType": "address",
          "name": "newOwner",
          "type": "address"
        }
      ],
      "name": "OwnershipTransferred",
      "type": "event"
    },
    {
      "anonymous": false,
      "inputs": [
        {
          "indexed": true,
          "internalType": "bytes32",
          "name": "role",
          "type": "bytes32"
        },
        {
          "indexed": true,
          "internalType": "bytes32",
          "name": "previousAdminRole",
          "type": "bytes32"
        },
        {
          "indexed": true,
          "internalType": "bytes32",
          "name": "newAdminRole",
          "type": "bytes32"
        }
      ],
      "name": "RoleAdminChanged",
      "type": "event"
    },
    {
      "anonymous": false,
      "inputs": [
        {
          "indexed": true,
          "internalType": "bytes32",
          "name": "role",
          "type": "bytes32"
        },
        {
          "indexed": true,
          "internalType": "address",
          "name": "account",
          "type": "address"
        },
        {
          "indexed": true,
          "internalType": "address",
          "name": "sender",
          "type": "address"
        }
      ],
      "name": "RoleGranted",
      "type": "event"
    },
    {
      "anonymous": false,
      "inputs": [
        {
          "indexed": true,
          "internalType": "bytes32",
          "name": "role",
          "type": "bytes32"
        },
        {
          "indexed": true,
          "internalType": "address",
          "name": "account",
          "type": "address"
        },
        {
          "indexed": true,
          "internalType": "address",
          "name": "sender",
          "type": "address"
        }
      ],
      "name": "RoleRevoked",
      "type": "event"
    },
    {
      "anonymous": false,
      "inputs": [
        {
          "indexed": true,
          "internalType": "address",
          "name": "receiver",
          "type": "address"
        },
        {
          "indexed": true,
          "internalType": "uint96",
          "name": "fee",
          "type": "uint96"
        }
      ],
      "name": "RoyaltyUpdated",
      "type": "event"
    },
    {
      "anonymous": false,
      "inputs": [
        {
          "indexed": true,
          "internalType": "address",
          "name": "operator",
          "type": "address"
        },
        {
          "indexed": true,
          "internalType": "address",
          "name": "from",
          "type": "address"
        },
        {
          "indexed": true,
          "internalType": "address",
          "name": "to",
          "type": "address"
        },
        {
          "indexed": false,
          "internalType": "uint256[]",
          "name": "ids",
          "type": "uint256[]"
        },
        {
          "indexed": false,
          "internalType": "uint256[]",
          "name": "values",
          "type": "uint256[]"
        }
      ],
      "name": "TransferBatch",
      "type": "event"
    },
    {
      "anonymous": false,
      "inputs": [
        {
          "indexed": true,
          "internalType": "address",
          "name": "operator",
          "type": "address"
        },
        {
          "indexed": true,
          "internalType": "address",
          "name": "from",
          "type": "address"
        },
        {
          "indexed": true,
          "internalType": "address",
          "name": "to",
          "type": "address"
        },
        {
          "indexed": false,
          "internalType": "uint256",
          "name": "id",
          "type": "uint256"
        },
        {
          "indexed": false,
          "internalType": "uint256",
          "name": "value",
          "type": "uint256"
        }
      ],
      "name": "TransferSingle",
      "type": "event"
    },
    {
      "anonymous": false,
      "inputs": [
        {
          "indexed": false,
          "internalType": "string",
          "name": "value",
          "type": "string"
        },
        {
          "indexed": true,
          "internalType": "uint256",
          "name": "id",
          "type": "uint256"
        }
      ],
      "name": "URI",
      "type": "event"
    },
    {
      "inputs": [],
      "name": "ADMIN_ROLE",
      "outputs": [
        {
          "internalType": "bytes32",
          "name": "",
          "type": "bytes32"
        }
      ],
      "stateMutability": "view",
      "type": "function"
    },
    {
      "inputs": [],
      "name": "DEFAULT_ADMIN_ROLE",
      "outputs": [
        {
          "internalType": "bytes32",
          "name": "",
          "type": "bytes32"
        }
      ],
      "stateMutability": "view",
      "type": "function"
    },
    {
      "inputs": [
        {
          "internalType": "address",
          "name": "account",
          "type": "address"
        },
        {
          "internalType": "uint256",
          "name": "id",
          "type": "uint256"
        }
      ],
      "name": "balanceOf",
      "outputs": [
        {
          "internalType": "uint256",
          "name": "",
          "type": "uint256"
        }
      ],
      "stateMutability": "view",
      "type": "function"
    },
    {
      "inputs": [
        {
          "internalType": "address[]",
          "name": "accounts",
          "type": "address[]"
        },
        {
          "internalType": "uint256[]",
          "name": "ids",
          "type": "uint256[]"
        }
      ],
      "name": "balanceOfBatch",
      "outputs": [
        {
          "internalType": "uint256[]",
          "name": "",
          "type": "uint256[]"
        }
      ],
      "stateMutability": "view",
      "type": "function"
    },
    {
      "inputs": [
        {
          "internalType": "address",
          "name": "account",
          "type": "address"
        },
        {
          "internalType": "uint256",
          "name": "id",
          "type": "uint256"
        },
        {
          "internalType": "uint256",
          "name": "value",
          "type": "uint256"
        }
      ],
      "name": "burn",
      "outputs": [],
      "stateMutability": "nonpayable",
      "type": "function"
    },
    {
      "inputs": [
        {
          "internalType": "address",
          "name": "account",
          "type": "address"
        },
        {
          "internalType": "uint256[]",
          "name": "ids",
          "type": "uint256[]"
        },
        {
          "internalType": "uint256[]",
          "name": "values",
          "type": "uint256[]"
        }
      ],
      "name": "burnBatch",
      "outputs": [],
      "stateMutability": "nonpayable",
      "type": "function"
    },
    {
      "inputs": [
        {
          "internalType": "uint256",
          "name": "id",
          "type": "uint256"
        }
      ],
      "name": "exists",
      "outputs": [
        {
          "internalType": "bool",
          "name": "",
          "type": "bool"
        }
      ],
      "stateMutability": "view",
      "type": "function"
    },
    {
      "inputs": [
        {
          "internalType": "bytes32",
          "name": "role",
          "type": "bytes32"
        }
      ],
      "name": "getRoleAdmin",
      "outputs": [
        {
          "internalType": "bytes32",
          "name": "",
          "type": "bytes32"
        }
      ],
      "stateMutability": "view",
      "type": "function"
    },
    {
      "inputs": [
        {
          "internalType": "bytes32",
          "name": "role",
          "type": "bytes32"
        },
        {
          "internalType": "address",
          "name": "account",
          "type": "address"
        }
      ],
      "name": "grantRole",
      "outputs": [],
      "stateMutability": "nonpayable",
      "type": "function"
    },
    {
      "inputs": [
        {
          "internalType": "bytes32",
          "name": "role",
          "type": "bytes32"
        },
        {
          "internalType": "address",
          "name": "account",
          "type": "address"
        }
      ],
      "name": "hasRole",
      "outputs": [
        {
          "internalType": "bool",
          "name": "",
          "type": "bool"
        }
      ],
      "stateMutability": "view",
      "type": "function"
    },
    {
      "inputs": [
        {
          "internalType": "address",
          "name": "account",
          "type": "address"
        },
        {
          "internalType": "address",
          "name": "operator",
          "type": "address"
        }
      ],
      "name": "isApprovedForAll",
      "outputs": [
        {
          "internalType": "bool",
          "name": "",
          "type": "bool"
        }
      ],
      "stateMutability": "view",
      "type": "function"
    },
    {
      "inputs": [
        {
          "internalType": "string",
          "name": "_tokenURI",
          "type": "string"
        },
        {
          "internalType": "uint96",
          "name": "_royaltyFee",
          "type": "uint96"
        },
        {
          "internalType": "uint256",
          "name": "supply",
          "type": "uint256"
        },
        {
          "components": [
            {
              "internalType": "uint8",
              "name": "v",
              "type": "uint8"
            },
            {
              "internalType": "bytes32",
              "name": "r",
              "type": "bytes32"
            },
            {
              "internalType": "bytes32",
              "name": "s",
              "type": "bytes32"
            },
            {
              "internalType": "uint256",
              "name": "nonce",
              "type": "uint256"
            }
          ],
          "internalType": "struct Blockrithm1155.Sign",
          "name": "sign",
          "type": "tuple"
        }
      ],
      "name": "mint",
      "outputs": [
        {
          "internalType": "uint256",
          "name": "_tokenId",
          "type": "uint256"
        }
      ],
      "stateMutability": "nonpayable",
      "type": "function"
    },
    {
      "inputs": [],
      "name": "name",
      "outputs": [
        {
          "internalType": "string",
          "name": "",
          "type": "string"
        }
      ],
      "stateMutability": "view",
      "type": "function"
    },
    {
      "inputs": [],
      "name": "owner",
      "outputs": [
        {
          "internalType": "address",
          "name": "",
          "type": "address"
        }
      ],
      "stateMutability": "view",
      "type": "function"
    },
    {
      "inputs": [
        {
          "internalType": "bytes32",
          "name": "role",
          "type": "bytes32"
        },
        {
          "internalType": "address",
          "name": "account",
          "type": "address"
        }
      ],
      "name": "renounceRole",
      "outputs": [],
      "stateMutability": "nonpayable",
      "type": "function"
    },
    {
      "inputs": [
        {
          "internalType": "bytes32",
          "name": "role",
          "type": "bytes32"
        },
        {
          "internalType": "address",
          "name": "account",
          "type": "address"
        }
      ],
      "name": "revokeRole",
      "outputs": [],
      "stateMutability": "nonpayable",
      "type": "function"
    },
    {
      "inputs": [
        {
          "internalType": "uint256",
          "name": "_tokenId",
          "type": "uint256"
        },
        {
          "internalType": "uint256",
          "name": "_salePrice",
          "type": "uint256"
        }
      ],
      "name": "royaltyInfo",
      "outputs": [
        {
          "internalType": "address",
          "name": "",
          "type": "address"
        },
        {
          "internalType": "uint256",
          "name": "",
          "type": "uint256"
        }
      ],
      "stateMutability": "view",
      "type": "function"
    },
    {
      "inputs": [
        {
          "internalType": "address",
          "name": "from",
          "type": "address"
        },
        {
          "internalType": "address",
          "name": "to",
          "type": "address"
        },
        {
          "internalType": "uint256[]",
          "name": "ids",
          "type": "uint256[]"
        },
        {
          "internalType": "uint256[]",
          "name": "amounts",
          "type": "uint256[]"
        },
        {
          "internalType": "bytes",
          "name": "data",
          "type": "bytes"
        }
      ],
      "name": "safeBatchTransferFrom",
      "outputs": [],
      "stateMutability": "nonpayable",
      "type": "function"
    },
    {
      "inputs": [
        {
          "internalType": "address",
          "name": "from",
          "type": "address"
        },
        {
          "internalType": "address",
          "name": "to",
          "type": "address"
        },
        {
          "internalType": "uint256",
          "name": "id",
          "type": "uint256"
        },
        {
          "internalType": "uint256",
          "name": "amount",
          "type": "uint256"
        },
        {
          "internalType": "bytes",
          "name": "data",
          "type": "bytes"
        }
      ],
      "name": "safeTransferFrom",
      "outputs": [],
      "stateMutability": "nonpayable",
      "type": "function"
    },
    {
      "inputs": [
        {
          "internalType": "address",
          "name": "operator",
          "type": "address"
        },
        {
          "internalType": "bool",
          "name": "approved",
          "type": "bool"
        }
      ],
      "name": "setApprovalForAll",
      "outputs": [],
      "stateMutability": "nonpayable",
      "type": "function"
    },
    {
      "inputs": [
        {
          "internalType": "string",
          "name": "uri_",
          "type": "string"
        }
      ],
      "name": "setBaseURI",
      "outputs": [
        {
          "internalType": "bool",
          "name": "",
          "type": "bool"
        }
      ],
      "stateMutability": "nonpayable",
      "type": "function"
    },
    {
      "inputs": [
        {
          "internalType": "bytes4",
          "name": "interfaceId",
          "type": "bytes4"
        }
      ],
      "name": "supportsInterface",
      "outputs": [
        {
          "internalType": "bool",
          "name": "",
          "type": "bool"
        }
      ],
      "stateMutability": "view",
      "type": "function"
    },
    {
      "inputs": [],
      "name": "symbol",
      "outputs": [
        {
          "internalType": "string",
          "name": "",
          "type": "string"
        }
      ],
      "stateMutability": "view",
      "type": "function"
    },
    {
      "inputs": [
        {
          "internalType": "uint256",
          "name": "id",
          "type": "uint256"
        }
      ],
      "name": "totalSupply",
      "outputs": [
        {
          "internalType": "uint256",
          "name": "",
          "type": "uint256"
        }
      ],
      "stateMutability": "view",
      "type": "function"
    },
    {
      "inputs": [
        {
          "internalType": "address",
          "name": "newOwner",
          "type": "address"
        }
      ],
      "name": "transferOwnership",
      "outputs": [
        {
          "internalType": "bool",
          "name": "",
          "type": "bool"
        }
      ],
      "stateMutability": "nonpayable",
      "type": "function"
    },
    {
      "inputs": [
        {
          "internalType": "uint256",
          "name": "tokenId",
          "type": "uint256"
        }
      ],
      "name": "uri",
      "outputs": [
        {
          "internalType": "string",
          "name": "",
          "type": "string"
        }
      ],
      "stateMutability": "view",
      "type": "function"
    }
  ],
  "bytecode": "0x60806040523480156200001157600080fd5b5060405162005ea038038062005ea0833981810160405281019062000037919062000531565b8062000049816200013760201b60201c565b50806009908051906020019062000062929190620002e4565b50620000736200015360201b60201c565b600c60006101000a81548173ffffffffffffffffffffffffffffffffffffffff021916908373ffffffffffffffffffffffffffffffffffffffff160217905550620000e57f41444d494e5f524f4c4500000000000000000000000000000000000000000000336200015b60201b60201c565b82600a9080519060200190620000fd929190620002e4565b5081600b908051906020019062000116929190620002e4565b506200012e60066200017160201b620014431760201c565b5050506200064e565b80600290805190602001906200014f929190620002e4565b5050565b600033905090565b6200016d82826200018760201b60201c565b5050565b6001816000016000828254019250508190555050565b6200019982826200027960201b60201c565b620002755760016005600084815260200190815260200160002060000160008373ffffffffffffffffffffffffffffffffffffffff1673ffffffffffffffffffffffffffffffffffffffff16815260200190815260200160002060006101000a81548160ff0219169083151502179055506200021a6200015360201b60201c565b73ffffffffffffffffffffffffffffffffffffffff168173ffffffffffffffffffffffffffffffffffffffff16837f2f8788117e7eff1d82e926ec794901d17c78024a50270940304540a733656f0d60405160405180910390a45b5050565b60006005600084815260200190815260200160002060000160008373ffffffffffffffffffffffffffffffffffffffff1673ffffffffffffffffffffffffffffffffffffffff16815260200190815260200160002060009054906101000a900460ff16905092915050565b828054620002f29062000619565b90600052602060002090601f01602090048101928262000316576000855562000362565b82601f106200033157805160ff191683800117855562000362565b8280016001018555821562000362579182015b828111156200036157825182559160200191906001019062000344565b5b50905062000371919062000375565b5090565b5b808211156200039057600081600090555060010162000376565b5090565b6000604051905090565b600080fd5b600080fd5b600080fd5b600080fd5b6000601f19601f8301169050919050565b7f4e487b7100000000000000000000000000000000000000000000000000000000600052604160045260246000fd5b620003fd82620003b2565b810181811067ffffffffffffffff821117156200041f576200041e620003c3565b5b80604052505050565b60006200043462000394565b9050620004428282620003f2565b919050565b600067ffffffffffffffff821115620004655762000464620003c3565b5b6200047082620003b2565b9050602081019050919050565b60005b838110156200049d57808201518184015260208101905062000480565b83811115620004ad576000848401525b50505050565b6000620004ca620004c48462000447565b62000428565b905082815260208101848484011115620004e957620004e8620003ad565b5b620004f68482856200047d565b509392505050565b600082601f830112620005165762000515620003a8565b5b815162000528848260208601620004b3565b91505092915050565b6000806000606084860312156200054d576200054c6200039e565b5b600084015167ffffffffffffffff8111156200056e576200056d620003a3565b5b6200057c86828701620004fe565b935050602084015167ffffffffffffffff811115620005a0576200059f620003a3565b5b620005ae86828701620004fe565b925050604084015167ffffffffffffffff811115620005d257620005d1620003a3565b5b620005e086828701620004fe565b9150509250925092565b7f4e487b7100000000000000000000000000000000000000000000000000000000600052602260045260246000fd5b600060028204905060018216806200063257607f821691505b602082108103620006485762000647620005ea565b5b50919050565b615842806200065e6000396000f3fe608060405234801561001057600080fd5b506004361061018d5760003560e01c80636b20c454116100de578063a22cb46511610097578063e985e9c511610071578063e985e9c5146104e1578063f242432a14610511578063f2fde38b1461052d578063f5298aca1461055d5761018d565b8063a22cb46514610479578063bd85b03914610495578063d547741f146104c55761018d565b80636b20c454146103b557806375b238fc146103d15780638da5cb5b146103ef57806391d148541461040d57806395d89b411461043d578063a217fddf1461045b5761018d565b80632eb2c2d61161014b5780634e1273f4116101255780634e1273f4146102f55780634f558e791461032557806355f804b31461035557806366081331146103855761018d565b80632eb2c2d6146102a15780632f2ff15d146102bd57806336568abe146102d95761018d565b8062fdd58e1461019257806301ffc9a7146101c257806306fdde03146101f25780630e89341c14610210578063248a9ca3146102405780632a55205a14610270575b600080fd5b6101ac60048036038101906101a79190613541565b610579565b6040516101b99190613590565b60405180910390f35b6101dc60048036038101906101d79190613603565b610641565b6040516101e9919061364b565b60405180910390f35b6101fa610653565b60405161020791906136ff565b60405180910390f35b61022a60048036038101906102259190613721565b6106e5565b60405161023791906136ff565b60405180910390f35b61025a60048036038101906102559190613784565b610883565b60405161026791906137c0565b60405180910390f35b61028a600480360381019061028591906137db565b6108a3565b60405161029892919061382a565b60405180910390f35b6102bb60048036038101906102b69190613a50565b6109b1565b005b6102d760048036038101906102d29190613b1f565b610a52565b005b6102f360048036038101906102ee9190613b1f565b610a73565b005b61030f600480360381019061030a9190613c22565b610af6565b60405161031c9190613d58565b60405180910390f35b61033f600480360381019061033a9190613721565b610c0f565b60405161034c919061364b565b60405180910390f35b61036f600480360381019061036a9190613e1b565b610c23565b60405161037c919061364b565b60405180910390f35b61039f600480360381019061039a9190613ecc565b610d2e565b6040516103ac9190613590565b60405180910390f35b6103cf60048036038101906103ca9190613f4f565b610e5a565b005b6103d9610ef7565b6040516103e691906137c0565b60405180910390f35b6103f7610f1b565b6040516104049190613fda565b60405180910390f35b61042760048036038101906104229190613b1f565b610f41565b604051610434919061364b565b60405180910390f35b610445610fac565b60405161045291906136ff565b60405180910390f35b61046361103e565b60405161047091906137c0565b60405180910390f35b610493600480360381019061048e9190614021565b611045565b005b6104af60048036038101906104aa9190613721565b61105b565b6040516104bc9190613590565b60405180910390f35b6104df60048036038101906104da9190613b1f565b611078565b005b6104fb60048036038101906104f69190614061565b611099565b604051610508919061364b565b60405180910390f35b61052b600480360381019061052691906140a1565b61112d565b005b61054760048036038101906105429190614138565b6111ce565b604051610554919061364b565b60405180910390f35b61057760048036038101906105729190614165565b6113a6565b005b60008073ffffffffffffffffffffffffffffffffffffffff168373ffffffffffffffffffffffffffffffffffffffff16036105e9576040517f08c379a00000000000000000000000000000000000000000000000000000000081526004016105e09061422a565b60405180910390fd5b60008083815260200190815260200160002060008473ffffffffffffffffffffffffffffffffffffffff1673ffffffffffffffffffffffffffffffffffffffff16815260200190815260200160002054905092915050565b600061064c82611459565b9050919050565b6060600a805461066290614279565b80601f016020809104026020016040519081016040528092919081815260200182805461068e90614279565b80156106db5780601f106106b0576101008083540402835291602001916106db565b820191906000526020600020905b8154815290600101906020018083116106be57829003601f168201915b5050505050905090565b60606106f082610c0f565b61072f576040517f08c379a00000000000000000000000000000000000000000000000000000000081526004016107269061431c565b60405180910390fd5b600060076000848152602001908152602001600020805461074f90614279565b80601f016020809104026020016040519081016040528092919081815260200182805461077b90614279565b80156107c85780601f1061079d576101008083540402835291602001916107c8565b820191906000526020600020905b8154815290600101906020018083116107ab57829003601f168201915b505050505090506000600980546107de90614279565b9050036107ee578091505061087e565b6000815111156108235760098160405160200161080c92919061440c565b60405160208183030381529060405291505061087e565b60006009805461083290614279565b90501161084e576040518060200160405280600081525061087a565b6009610859846114d3565b60405160200161086a92919061440c565b6040516020818303038152906040525b9150505b919050565b600060056000838152602001908152602001600020600101549050919050565b6000806000600460008681526020019081526020016000206040518060400160405290816000820160009054906101000a900473ffffffffffffffffffffffffffffffffffffffff1673ffffffffffffffffffffffffffffffffffffffff1673ffffffffffffffffffffffffffffffffffffffff1681526020016000820160149054906101000a90046bffffffffffffffffffffffff166bffffffffffffffffffffffff166bffffffffffffffffffffffff168152505090506000610966611633565b6bffffffffffffffffffffffff1682602001516bffffffffffffffffffffffff1686610992919061445f565b61099c91906144e8565b90508160000151819350935050509250929050565b6109b961163d565b73ffffffffffffffffffffffffffffffffffffffff168573ffffffffffffffffffffffffffffffffffffffff1614806109ff57506109fe856109f961163d565b611099565b5b610a3e576040517f08c379a0000000000000000000000000000000000000000000000000000000008152600401610a359061458b565b60405180910390fd5b610a4b8585858585611645565b5050505050565b610a5b82610883565b610a6481611966565b610a6e838361197a565b505050565b610a7b61163d565b73ffffffffffffffffffffffffffffffffffffffff168173ffffffffffffffffffffffffffffffffffffffff1614610ae8576040517f08c379a0000000000000000000000000000000000000000000000000000000008152600401610adf9061461d565b60405180910390fd5b610af28282611a5b565b5050565b60608151835114610b3c576040517f08c379a0000000000000000000000000000000000000000000000000000000008152600401610b33906146af565b60405180910390fd5b6000835167ffffffffffffffff811115610b5957610b58613858565b5b604051908082528060200260200182016040528015610b875781602001602082028036833780820191505090505b50905060005b8451811015610c0457610bd4858281518110610bac57610bab6146cf565b5b6020026020010151858381518110610bc757610bc66146cf565b5b6020026020010151610579565b828281518110610be757610be66146cf565b5b60200260200101818152505080610bfd906146fe565b9050610b8d565b508091505092915050565b600080610c1b8361105b565b119050919050565b60003373ffffffffffffffffffffffffffffffffffffffff16600c60009054906101000a900473ffffffffffffffffffffffffffffffffffffffff1673ffffffffffffffffffffffffffffffffffffffff1614610cb5576040517f08c379a0000000000000000000000000000000000000000000000000000000008152600401610cac90614792565b60405180910390fd5b81604051610cc391906147b2565b60405180910390206009604051610cda91906147c9565b60405180910390207fc41b7cb64e5be01af4afc2641afc861432136270f4206b7773f229b658b9669960405160405180910390a38160099080519060200190610d249291906133f6565b5060019050919050565b6000600860008360600135815260200190815260200160002060009054906101000a900460ff1615610d95576040517f08c379a0000000000000000000000000000000000000000000000000000000008152600401610d8c9061482c565b60405180910390fd5b6001600860008460600135815260200190815260200160002060006101000a81548160ff021916908315150217905550610de0853384803603810190610ddb9190614902565b611b3d565b610dea6006611c88565b9050610e0e610df761163d565b828560405180602001604052806000815250611c96565b84600760008381526020019081526020016000209080519060200190610e359291906133f6565b50610e4881610e4261163d565b86611e46565b610e526006611443565b949350505050565b610e6261163d565b73ffffffffffffffffffffffffffffffffffffffff168373ffffffffffffffffffffffffffffffffffffffff161480610ea85750610ea783610ea261163d565b611099565b5b610ee7576040517f08c379a0000000000000000000000000000000000000000000000000000000008152600401610ede906149a1565b60405180910390fd5b610ef2838383611fed565b505050565b7fa49807205ce4d355092ef5a8a18f56e8913cf4a201fbe287825b095693c2177581565b600c60009054906101000a900473ffffffffffffffffffffffffffffffffffffffff1681565b60006005600084815260200190815260200160002060000160008373ffffffffffffffffffffffffffffffffffffffff1673ffffffffffffffffffffffffffffffffffffffff16815260200190815260200160002060009054906101000a900460ff16905092915050565b6060600b8054610fbb90614279565b80601f0160208091040260200160405190810160405280929190818152602001828054610fe790614279565b80156110345780601f1061100957610100808354040283529160200191611034565b820191906000526020600020905b81548152906001019060200180831161101757829003601f168201915b5050505050905090565b6000801b81565b61105761105061163d565b83836122bb565b5050565b600060036000838152602001908152602001600020549050919050565b61108182610883565b61108a81611966565b6110948383611a5b565b505050565b6000600160008473ffffffffffffffffffffffffffffffffffffffff1673ffffffffffffffffffffffffffffffffffffffff16815260200190815260200160002060008373ffffffffffffffffffffffffffffffffffffffff1673ffffffffffffffffffffffffffffffffffffffff16815260200190815260200160002060009054906101000a900460ff16905092915050565b61113561163d565b73ffffffffffffffffffffffffffffffffffffffff168573ffffffffffffffffffffffffffffffffffffffff16148061117b575061117a8561117561163d565b611099565b5b6111ba576040517f08c379a00000000000000000000000000000000000000000000000000000000081526004016111b1906149a1565b60405180910390fd5b6111c78585858585612427565b5050505050565b60007f41444d494e5f524f4c45000000000000000000000000000000000000000000006111fa81611966565b600073ffffffffffffffffffffffffffffffffffffffff168373ffffffffffffffffffffffffffffffffffffffff1603611269576040517f08c379a000000000000000000000000000000000000000000000000000000000815260040161126090614a33565b60405180910390fd5b6112b57f41444d494e5f524f4c4500000000000000000000000000000000000000000000600c60009054906101000a900473ffffffffffffffffffffffffffffffffffffffff16611a5b565b8273ffffffffffffffffffffffffffffffffffffffff16600c60009054906101000a900473ffffffffffffffffffffffffffffffffffffffff1673ffffffffffffffffffffffffffffffffffffffff167f8be0079c531659141344cd1fd0a4f28419497f9722a3daafe3b4186f6b6457e060405160405180910390a382600c60006101000a81548173ffffffffffffffffffffffffffffffffffffffff021916908373ffffffffffffffffffffffffffffffffffffffff16021790555061139c7f41444d494e5f524f4c4500000000000000000000000000000000000000000000846126c2565b6001915050919050565b6113ae61163d565b73ffffffffffffffffffffffffffffffffffffffff168373ffffffffffffffffffffffffffffffffffffffff1614806113f457506113f3836113ee61163d565b611099565b5b611433576040517f08c379a000000000000000000000000000000000000000000000000000000000815260040161142a906149a1565b60405180910390fd5b61143e8383836126d0565b505050565b6001816000016000828254019250508190555050565b60007f7965db0b000000000000000000000000000000000000000000000000000000007bffffffffffffffffffffffffffffffffffffffffffffffffffffffff1916827bffffffffffffffffffffffffffffffffffffffffffffffffffffffff191614806114cc57506114cb82612916565b5b9050919050565b60606000820361151a576040518060400160405280600181526020017f3000000000000000000000000000000000000000000000000000000000000000815250905061162e565b600082905060005b6000821461154c578080611535906146fe565b915050600a8261154591906144e8565b9150611522565b60008167ffffffffffffffff81111561156857611567613858565b5b6040519080825280601f01601f19166020018201604052801561159a5781602001600182028036833780820191505090505b5090505b60008514611627576001826115b39190614a53565b9150600a856115c29190614a87565b60306115ce9190614ab8565b60f81b8183815181106115e4576115e36146cf565b5b60200101907effffffffffffffffffffffffffffffffffffffffffffffffffffffffffffff1916908160001a905350600a8561162091906144e8565b945061159e565b8093505050505b919050565b60006103e8905090565b600033905090565b8151835114611689576040517f08c379a000000000000000000000000000000000000000000000000000000000815260040161168090614b80565b60405180910390fd5b600073ffffffffffffffffffffffffffffffffffffffff168473ffffffffffffffffffffffffffffffffffffffff16036116f8576040517f08c379a00000000000000000000000000000000000000000000000000000000081526004016116ef90614c12565b60405180910390fd5b600061170261163d565b9050611712818787878787612990565b60005b84518110156118c3576000858281518110611733576117326146cf565b5b602002602001015190506000858381518110611752576117516146cf565b5b60200260200101519050600080600084815260200190815260200160002060008b73ffffffffffffffffffffffffffffffffffffffff1673ffffffffffffffffffffffffffffffffffffffff168152602001908152602001600020549050818110156117f3576040517f08c379a00000000000000000000000000000000000000000000000000000000081526004016117ea90614ca4565b60405180910390fd5b81810360008085815260200190815260200160002060008c73ffffffffffffffffffffffffffffffffffffffff1673ffffffffffffffffffffffffffffffffffffffff168152602001908152602001600020819055508160008085815260200190815260200160002060008b73ffffffffffffffffffffffffffffffffffffffff1673ffffffffffffffffffffffffffffffffffffffff16815260200190815260200160002060008282546118a89190614ab8565b92505081905550505050806118bc906146fe565b9050611715565b508473ffffffffffffffffffffffffffffffffffffffff168673ffffffffffffffffffffffffffffffffffffffff168273ffffffffffffffffffffffffffffffffffffffff167f4a39dc06d4c0dbc64b70af90fd698a233a518aa5d07e595d983b8c0526c8f7fb878760405161193a929190614cc4565b60405180910390a46119508187878787876129a6565b61195e8187878787876129ae565b505050505050565b6119778161197261163d565b612b85565b50565b6119848282610f41565b611a575760016005600084815260200190815260200160002060000160008373ffffffffffffffffffffffffffffffffffffffff1673ffffffffffffffffffffffffffffffffffffffff16815260200190815260200160002060006101000a81548160ff0219169083151502179055506119fc61163d565b73ffffffffffffffffffffffffffffffffffffffff168173ffffffffffffffffffffffffffffffffffffffff16837f2f8788117e7eff1d82e926ec794901d17c78024a50270940304540a733656f0d60405160405180910390a45b5050565b611a658282610f41565b15611b395760006005600084815260200190815260200160002060000160008373ffffffffffffffffffffffffffffffffffffffff1673ffffffffffffffffffffffffffffffffffffffff16815260200190815260200160002060006101000a81548160ff021916908315150217905550611ade61163d565b73ffffffffffffffffffffffffffffffffffffffff168173ffffffffffffffffffffffffffffffffffffffff16837ff6391f5c32d9c69d2a47ea670b442974b53935d1edc7fd64eb21e047a839171b60405160405180910390a45b5050565b60003083858460600151604051602001611b5a9493929190614dcb565b604051602081830303815290604052805190602001209050600181604051602001611b859190614e82565b6040516020818303038152906040528051906020012083600001518460200151856040015160405160008152602001604052604051611bc79493929190614eb7565b6020604051602081039080840390855afa158015611be9573d6000803e3d6000fd5b5050506020604051035173ffffffffffffffffffffffffffffffffffffffff16600c60009054906101000a900473ffffffffffffffffffffffffffffffffffffffff1673ffffffffffffffffffffffffffffffffffffffff1614611c82576040517f08c379a0000000000000000000000000000000000000000000000000000000008152600401611c7990614f48565b60405180910390fd5b50505050565b600081600001549050919050565b600073ffffffffffffffffffffffffffffffffffffffff168473ffffffffffffffffffffffffffffffffffffffff1603611d05576040517f08c379a0000000000000000000000000000000000000000000000000000000008152600401611cfc90614fda565b60405180910390fd5b6000611d0f61163d565b90506000611d1c85612c22565b90506000611d2985612c22565b9050611d3a83600089858589612990565b8460008088815260200190815260200160002060008973ffffffffffffffffffffffffffffffffffffffff1673ffffffffffffffffffffffffffffffffffffffff1681526020019081526020016000206000828254611d999190614ab8565b925050819055508673ffffffffffffffffffffffffffffffffffffffff16600073ffffffffffffffffffffffffffffffffffffffff168473ffffffffffffffffffffffffffffffffffffffff167fc3d58168c5ae7397731d063d5bbf3d657854427343f4c083240f7aacaa2d0f628989604051611e17929190614ffa565b60405180910390a4611e2e836000898585896129a6565b611e3d83600089898989612c9c565b50505050505050565b611e4e611633565b6bffffffffffffffffffffffff16816bffffffffffffffffffffffff161115611eac576040517f08c379a0000000000000000000000000000000000000000000000000000000008152600401611ea390615095565b60405180910390fd5b600073ffffffffffffffffffffffffffffffffffffffff168273ffffffffffffffffffffffffffffffffffffffff1603611f1b576040517f08c379a0000000000000000000000000000000000000000000000000000000008152600401611f1290615101565b60405180910390fd5b60405180604001604052808373ffffffffffffffffffffffffffffffffffffffff168152602001826bffffffffffffffffffffffff168152506004600085815260200190815260200160002060008201518160000160006101000a81548173ffffffffffffffffffffffffffffffffffffffff021916908373ffffffffffffffffffffffffffffffffffffffff16021790555060208201518160000160146101000a8154816bffffffffffffffffffffffff02191690836bffffffffffffffffffffffff160217905550905050505050565b600073ffffffffffffffffffffffffffffffffffffffff168373ffffffffffffffffffffffffffffffffffffffff160361205c576040517f08c379a000000000000000000000000000000000000000000000000000000000815260040161205390615193565b60405180910390fd5b80518251146120a0576040517f08c379a000000000000000000000000000000000000000000000000000000000815260040161209790614b80565b60405180910390fd5b60006120aa61163d565b90506120ca81856000868660405180602001604052806000815250612990565b60005b83518110156122175760008482815181106120eb576120ea6146cf565b5b60200260200101519050600084838151811061210a576121096146cf565b5b60200260200101519050600080600084815260200190815260200160002060008973ffffffffffffffffffffffffffffffffffffffff1673ffffffffffffffffffffffffffffffffffffffff168152602001908152602001600020549050818110156121ab576040517f08c379a00000000000000000000000000000000000000000000000000000000081526004016121a290615225565b60405180910390fd5b81810360008085815260200190815260200160002060008a73ffffffffffffffffffffffffffffffffffffffff1673ffffffffffffffffffffffffffffffffffffffff16815260200190815260200160002081905550505050808061220f906146fe565b9150506120cd565b50600073ffffffffffffffffffffffffffffffffffffffff168473ffffffffffffffffffffffffffffffffffffffff168273ffffffffffffffffffffffffffffffffffffffff167f4a39dc06d4c0dbc64b70af90fd698a233a518aa5d07e595d983b8c0526c8f7fb868660405161228f929190614cc4565b60405180910390a46122b5818560008686604051806020016040528060008152506129a6565b50505050565b8173ffffffffffffffffffffffffffffffffffffffff168373ffffffffffffffffffffffffffffffffffffffff1603612329576040517f08c379a0000000000000000000000000000000000000000000000000000000008152600401612320906152b7565b60405180910390fd5b80600160008573ffffffffffffffffffffffffffffffffffffffff1673ffffffffffffffffffffffffffffffffffffffff16815260200190815260200160002060008473ffffffffffffffffffffffffffffffffffffffff1673ffffffffffffffffffffffffffffffffffffffff16815260200190815260200160002060006101000a81548160ff0219169083151502179055508173ffffffffffffffffffffffffffffffffffffffff168373ffffffffffffffffffffffffffffffffffffffff167f17307eab39ab6107e8899845ad3d59bd9653f200f220920489ca2b5937696c318360405161241a919061364b565b60405180910390a3505050565b600073ffffffffffffffffffffffffffffffffffffffff168473ffffffffffffffffffffffffffffffffffffffff1603612496576040517f08c379a000000000000000000000000000000000000000000000000000000000815260040161248d90614c12565b60405180910390fd5b60006124a061163d565b905060006124ad85612c22565b905060006124ba85612c22565b90506124ca838989858589612990565b600080600088815260200190815260200160002060008a73ffffffffffffffffffffffffffffffffffffffff1673ffffffffffffffffffffffffffffffffffffffff16815260200190815260200160002054905085811015612561576040517f08c379a000000000000000000000000000000000000000000000000000000000815260040161255890614ca4565b60405180910390fd5b85810360008089815260200190815260200160002060008b73ffffffffffffffffffffffffffffffffffffffff1673ffffffffffffffffffffffffffffffffffffffff168152602001908152602001600020819055508560008089815260200190815260200160002060008a73ffffffffffffffffffffffffffffffffffffffff1673ffffffffffffffffffffffffffffffffffffffff16815260200190815260200160002060008282546126169190614ab8565b925050819055508773ffffffffffffffffffffffffffffffffffffffff168973ffffffffffffffffffffffffffffffffffffffff168573ffffffffffffffffffffffffffffffffffffffff167fc3d58168c5ae7397731d063d5bbf3d657854427343f4c083240f7aacaa2d0f628a8a604051612693929190614ffa565b60405180910390a46126a9848a8a86868a6129a6565b6126b7848a8a8a8a8a612c9c565b505050505050505050565b6126cc828261197a565b5050565b600073ffffffffffffffffffffffffffffffffffffffff168373ffffffffffffffffffffffffffffffffffffffff160361273f576040517f08c379a000000000000000000000000000000000000000000000000000000000815260040161273690615193565b60405180910390fd5b600061274961163d565b9050600061275684612c22565b9050600061276384612c22565b905061278383876000858560405180602001604052806000815250612990565b600080600087815260200190815260200160002060008873ffffffffffffffffffffffffffffffffffffffff1673ffffffffffffffffffffffffffffffffffffffff1681526020019081526020016000205490508481101561281a576040517f08c379a000000000000000000000000000000000000000000000000000000000815260040161281190615225565b60405180910390fd5b84810360008088815260200190815260200160002060008973ffffffffffffffffffffffffffffffffffffffff1673ffffffffffffffffffffffffffffffffffffffff16815260200190815260200160002081905550600073ffffffffffffffffffffffffffffffffffffffff168773ffffffffffffffffffffffffffffffffffffffff168573ffffffffffffffffffffffffffffffffffffffff167fc3d58168c5ae7397731d063d5bbf3d657854427343f4c083240f7aacaa2d0f6289896040516128e7929190614ffa565b60405180910390a461290d848860008686604051806020016040528060008152506129a6565b50505050505050565b60007f2a55205a000000000000000000000000000000000000000000000000000000007bffffffffffffffffffffffffffffffffffffffffffffffffffffffff1916827bffffffffffffffffffffffffffffffffffffffffffffffffffffffff19161480612989575061298882612e73565b5b9050919050565b61299e868686868686612f55565b505050505050565b505050505050565b6129cd8473ffffffffffffffffffffffffffffffffffffffff16613125565b15612b7d578373ffffffffffffffffffffffffffffffffffffffff1663bc197c8187878686866040518663ffffffff1660e01b8152600401612a1395949392919061532c565b6020604051808303816000875af1925050508015612a4f57506040513d601f19601f82011682018060405250810190612a4c91906153a9565b60015b612af457612a5b6153e3565b806308c379a003612ab75750612a6f615405565b80612a7a5750612ab9565b806040517f08c379a0000000000000000000000000000000000000000000000000000000008152600401612aae91906136ff565b60405180910390fd5b505b6040517f08c379a0000000000000000000000000000000000000000000000000000000008152600401612aeb90615507565b60405180910390fd5b63bc197c8160e01b7bffffffffffffffffffffffffffffffffffffffffffffffffffffffff1916817bffffffffffffffffffffffffffffffffffffffffffffffffffffffff191614612b7b576040517f08c379a0000000000000000000000000000000000000000000000000000000008152600401612b7290615599565b60405180910390fd5b505b505050505050565b612b8f8282610f41565b612c1e57612bb48173ffffffffffffffffffffffffffffffffffffffff166014613148565b612bc28360001c6020613148565b604051602001612bd3929190615651565b6040516020818303038152906040526040517f08c379a0000000000000000000000000000000000000000000000000000000008152600401612c1591906136ff565b60405180910390fd5b5050565b60606000600167ffffffffffffffff811115612c4157612c40613858565b5b604051908082528060200260200182016040528015612c6f5781602001602082028036833780820191505090505b5090508281600081518110612c8757612c866146cf565b5b60200260200101818152505080915050919050565b612cbb8473ffffffffffffffffffffffffffffffffffffffff16613125565b15612e6b578373ffffffffffffffffffffffffffffffffffffffff1663f23a6e6187878686866040518663ffffffff1660e01b8152600401612d0195949392919061568b565b6020604051808303816000875af1925050508015612d3d57506040513d601f19601f82011682018060405250810190612d3a91906153a9565b60015b612de257612d496153e3565b806308c379a003612da55750612d5d615405565b80612d685750612da7565b806040517f08c379a0000000000000000000000000000000000000000000000000000000008152600401612d9c91906136ff565b60405180910390fd5b505b6040517f08c379a0000000000000000000000000000000000000000000000000000000008152600401612dd990615507565b60405180910390fd5b63f23a6e6160e01b7bffffffffffffffffffffffffffffffffffffffffffffffffffffffff1916817bffffffffffffffffffffffffffffffffffffffffffffffffffffffff191614612e69576040517f08c379a0000000000000000000000000000000000000000000000000000000008152600401612e6090615599565b60405180910390fd5b505b505050505050565b60007fd9b67a26000000000000000000000000000000000000000000000000000000007bffffffffffffffffffffffffffffffffffffffffffffffffffffffff1916827bffffffffffffffffffffffffffffffffffffffffffffffffffffffff19161480612f3e57507f0e89341c000000000000000000000000000000000000000000000000000000007bffffffffffffffffffffffffffffffffffffffffffffffffffffffff1916827bffffffffffffffffffffffffffffffffffffffffffffffffffffffff1916145b80612f4e5750612f4d82613384565b5b9050919050565b612f638686868686866133ee565b600073ffffffffffffffffffffffffffffffffffffffff168573ffffffffffffffffffffffffffffffffffffffff16036130145760005b835181101561301257828181518110612fb657612fb56146cf565b5b602002602001015160036000868481518110612fd557612fd46146cf565b5b602002602001015181526020019081526020016000206000828254612ffa9190614ab8565b925050819055508061300b906146fe565b9050612f9a565b505b600073ffffffffffffffffffffffffffffffffffffffff168473ffffffffffffffffffffffffffffffffffffffff160361311d5760005b835181101561311b576000848281518110613069576130686146cf565b5b602002602001015190506000848381518110613088576130876146cf565b5b60200260200101519050600060036000848152602001908152602001600020549050818110156130ed576040517f08c379a00000000000000000000000000000000000000000000000000000000081526004016130e490615757565b60405180910390fd5b818103600360008581526020019081526020016000208190555050505080613114906146fe565b905061304b565b505b505050505050565b6000808273ffffffffffffffffffffffffffffffffffffffff163b119050919050565b60606000600283600261315b919061445f565b6131659190614ab8565b67ffffffffffffffff81111561317e5761317d613858565b5b6040519080825280601f01601f1916602001820160405280156131b05781602001600182028036833780820191505090505b5090507f3000000000000000000000000000000000000000000000000000000000000000816000815181106131e8576131e76146cf565b5b60200101907effffffffffffffffffffffffffffffffffffffffffffffffffffffffffffff1916908160001a9053507f78000000000000000000000000000000000000000000000000000000000000008160018151811061324c5761324b6146cf565b5b60200101907effffffffffffffffffffffffffffffffffffffffffffffffffffffffffffff1916908160001a9053506000600184600261328c919061445f565b6132969190614ab8565b90505b6001811115613336577f3031323334353637383961626364656600000000000000000000000000000000600f8616601081106132d8576132d76146cf565b5b1a60f81b8282815181106132ef576132ee6146cf565b5b60200101907effffffffffffffffffffffffffffffffffffffffffffffffffffffffffffff1916908160001a905350600485901c94508061332f90615777565b9050613299565b506000841461337a576040517f08c379a0000000000000000000000000000000000000000000000000000000008152600401613371906157ec565b60405180910390fd5b8091505092915050565b60007f01ffc9a7000000000000000000000000000000000000000000000000000000007bffffffffffffffffffffffffffffffffffffffffffffffffffffffff1916827bffffffffffffffffffffffffffffffffffffffffffffffffffffffff1916149050919050565b505050505050565b82805461340290614279565b90600052602060002090601f016020900481019282613424576000855561346b565b82601f1061343d57805160ff191683800117855561346b565b8280016001018555821561346b579182015b8281111561346a57825182559160200191906001019061344f565b5b509050613478919061347c565b5090565b5b8082111561349557600081600090555060010161347d565b5090565b6000604051905090565b600080fd5b600080fd5b600073ffffffffffffffffffffffffffffffffffffffff82169050919050565b60006134d8826134ad565b9050919050565b6134e8816134cd565b81146134f357600080fd5b50565b600081359050613505816134df565b92915050565b6000819050919050565b61351e8161350b565b811461352957600080fd5b50565b60008135905061353b81613515565b92915050565b60008060408385031215613558576135576134a3565b5b6000613566858286016134f6565b92505060206135778582860161352c565b9150509250929050565b61358a8161350b565b82525050565b60006020820190506135a56000830184613581565b92915050565b60007fffffffff0000000000000000000000000000000000000000000000000000000082169050919050565b6135e0816135ab565b81146135eb57600080fd5b50565b6000813590506135fd816135d7565b92915050565b600060208284031215613619576136186134a3565b5b6000613627848285016135ee565b91505092915050565b60008115159050919050565b61364581613630565b82525050565b6000602082019050613660600083018461363c565b92915050565b600081519050919050565b600082825260208201905092915050565b60005b838110156136a0578082015181840152602081019050613685565b838111156136af576000848401525b50505050565b6000601f19601f8301169050919050565b60006136d182613666565b6136db8185613671565b93506136eb818560208601613682565b6136f4816136b5565b840191505092915050565b6000602082019050818103600083015261371981846136c6565b905092915050565b600060208284031215613737576137366134a3565b5b60006137458482850161352c565b91505092915050565b6000819050919050565b6137618161374e565b811461376c57600080fd5b50565b60008135905061377e81613758565b92915050565b60006020828403121561379a576137996134a3565b5b60006137a88482850161376f565b91505092915050565b6137ba8161374e565b82525050565b60006020820190506137d560008301846137b1565b92915050565b600080604083850312156137f2576137f16134a3565b5b60006138008582860161352c565b92505060206138118582860161352c565b9150509250929050565b613824816134cd565b82525050565b600060408201905061383f600083018561381b565b61384c6020830184613581565b9392505050565b600080fd5b7f4e487b7100000000000000000000000000000000000000000000000000000000600052604160045260246000fd5b613890826136b5565b810181811067ffffffffffffffff821117156138af576138ae613858565b5b80604052505050565b60006138c2613499565b90506138ce8282613887565b919050565b600067ffffffffffffffff8211156138ee576138ed613858565b5b602082029050602081019050919050565b600080fd5b6000613917613912846138d3565b6138b8565b9050808382526020820190506020840283018581111561393a576139396138ff565b5b835b81811015613963578061394f888261352c565b84526020840193505060208101905061393c565b5050509392505050565b600082601f83011261398257613981613853565b5b8135613992848260208601613904565b91505092915050565b600080fd5b600067ffffffffffffffff8211156139bb576139ba613858565b5b6139c4826136b5565b9050602081019050919050565b82818337600083830152505050565b60006139f36139ee846139a0565b6138b8565b905082815260208101848484011115613a0f57613a0e61399b565b5b613a1a8482856139d1565b509392505050565b600082601f830112613a3757613a36613853565b5b8135613a478482602086016139e0565b91505092915050565b600080600080600060a08688031215613a6c57613a6b6134a3565b5b6000613a7a888289016134f6565b9550506020613a8b888289016134f6565b945050604086013567ffffffffffffffff811115613aac57613aab6134a8565b5b613ab88882890161396d565b935050606086013567ffffffffffffffff811115613ad957613ad86134a8565b5b613ae58882890161396d565b925050608086013567ffffffffffffffff811115613b0657613b056134a8565b5b613b1288828901613a22565b9150509295509295909350565b60008060408385031215613b3657613b356134a3565b5b6000613b448582860161376f565b9250506020613b55858286016134f6565b9150509250929050565b600067ffffffffffffffff821115613b7a57613b79613858565b5b602082029050602081019050919050565b6000613b9e613b9984613b5f565b6138b8565b90508083825260208201905060208402830185811115613bc157613bc06138ff565b5b835b81811015613bea5780613bd688826134f6565b845260208401935050602081019050613bc3565b5050509392505050565b600082601f830112613c0957613c08613853565b5b8135613c19848260208601613b8b565b91505092915050565b60008060408385031215613c3957613c386134a3565b5b600083013567ffffffffffffffff811115613c5757613c566134a8565b5b613c6385828601613bf4565b925050602083013567ffffffffffffffff811115613c8457613c836134a8565b5b613c908582860161396d565b9150509250929050565b600081519050919050565b600082825260208201905092915050565b6000819050602082019050919050565b613ccf8161350b565b82525050565b6000613ce18383613cc6565b60208301905092915050565b6000602082019050919050565b6000613d0582613c9a565b613d0f8185613ca5565b9350613d1a83613cb6565b8060005b83811015613d4b578151613d328882613cd5565b9750613d3d83613ced565b925050600181019050613d1e565b5085935050505092915050565b60006020820190508181036000830152613d728184613cfa565b905092915050565b600067ffffffffffffffff821115613d9557613d94613858565b5b613d9e826136b5565b9050602081019050919050565b6000613dbe613db984613d7a565b6138b8565b905082815260208101848484011115613dda57613dd961399b565b5b613de58482856139d1565b509392505050565b600082601f830112613e0257613e01613853565b5b8135613e12848260208601613dab565b91505092915050565b600060208284031215613e3157613e306134a3565b5b600082013567ffffffffffffffff811115613e4f57613e4e6134a8565b5b613e5b84828501613ded565b91505092915050565b60006bffffffffffffffffffffffff82169050919050565b613e8581613e64565b8114613e9057600080fd5b50565b600081359050613ea281613e7c565b92915050565b600080fd5b600060808284031215613ec357613ec2613ea8565b5b81905092915050565b60008060008060e08587031215613ee657613ee56134a3565b5b600085013567ffffffffffffffff811115613f0457613f036134a8565b5b613f1087828801613ded565b9450506020613f2187828801613e93565b9350506040613f328782880161352c565b9250506060613f4387828801613ead565b91505092959194509250565b600080600060608486031215613f6857613f676134a3565b5b6000613f76868287016134f6565b935050602084013567ffffffffffffffff811115613f9757613f966134a8565b5b613fa38682870161396d565b925050604084013567ffffffffffffffff811115613fc457613fc36134a8565b5b613fd08682870161396d565b9150509250925092565b6000602082019050613fef600083018461381b565b92915050565b613ffe81613630565b811461400957600080fd5b50565b60008135905061401b81613ff5565b92915050565b60008060408385031215614038576140376134a3565b5b6000614046858286016134f6565b92505060206140578582860161400c565b9150509250929050565b60008060408385031215614078576140776134a3565b5b6000614086858286016134f6565b9250506020614097858286016134f6565b9150509250929050565b600080600080600060a086880312156140bd576140bc6134a3565b5b60006140cb888289016134f6565b95505060206140dc888289016134f6565b94505060406140ed8882890161352c565b93505060606140fe8882890161352c565b925050608086013567ffffffffffffffff81111561411f5761411e6134a8565b5b61412b88828901613a22565b9150509295509295909350565b60006020828403121561414e5761414d6134a3565b5b600061415c848285016134f6565b91505092915050565b60008060006060848603121561417e5761417d6134a3565b5b600061418c868287016134f6565b935050602061419d8682870161352c565b92505060406141ae8682870161352c565b9150509250925092565b7f455243313135353a2062616c616e636520717565727920666f7220746865207a60008201527f65726f2061646472657373000000000000000000000000000000000000000000602082015250565b6000614214602b83613671565b915061421f826141b8565b604082019050919050565b6000602082019050818103600083015261424381614207565b9050919050565b7f4e487b7100000000000000000000000000000000000000000000000000000000600052602260045260246000fd5b6000600282049050600182168061429157607f821691505b6020821081036142a4576142a361424a565b5b50919050565b7f4552433131353555524953746f726167653a2055524920717565727920666f7260008201527f206e6f6e6578697374656e7420746f6b656e0000000000000000000000000000602082015250565b6000614306603283613671565b9150614311826142aa565b604082019050919050565b60006020820190508181036000830152614335816142f9565b9050919050565b600081905092915050565b60008190508160005260206000209050919050565b6000815461436981614279565b614373818661433c565b9450600182166000811461438e576001811461439f576143d2565b60ff198316865281860193506143d2565b6143a885614347565b60005b838110156143ca578154818901526001820191506020810190506143ab565b838801955050505b50505092915050565b60006143e682613666565b6143f0818561433c565b9350614400818560208601613682565b80840191505092915050565b6000614418828561435c565b915061442482846143db565b91508190509392505050565b7f4e487b7100000000000000000000000000000000000000000000000000000000600052601160045260246000fd5b600061446a8261350b565b91506144758361350b565b9250817fffffffffffffffffffffffffffffffffffffffffffffffffffffffffffffffff04831182151516156144ae576144ad614430565b5b828202905092915050565b7f4e487b7100000000000000000000000000000000000000000000000000000000600052601260045260246000fd5b60006144f38261350b565b91506144fe8361350b565b92508261450e5761450d6144b9565b5b828204905092915050565b7f455243313135353a207472616e736665722063616c6c6572206973206e6f742060008201527f6f776e6572206e6f7220617070726f7665640000000000000000000000000000602082015250565b6000614575603283613671565b915061458082614519565b604082019050919050565b600060208201905081810360008301526145a481614568565b9050919050565b7f416363657373436f6e74726f6c3a2063616e206f6e6c792072656e6f756e636560008201527f20726f6c657320666f722073656c660000000000000000000000000000000000602082015250565b6000614607602f83613671565b9150614612826145ab565b604082019050919050565b60006020820190508181036000830152614636816145fa565b9050919050565b7f455243313135353a206163636f756e747320616e6420696473206c656e67746860008201527f206d69736d617463680000000000000000000000000000000000000000000000602082015250565b6000614699602983613671565b91506146a48261463d565b604082019050919050565b600060208201905081810360008301526146c88161468c565b9050919050565b7f4e487b7100000000000000000000000000000000000000000000000000000000600052603260045260246000fd5b60006147098261350b565b91507fffffffffffffffffffffffffffffffffffffffffffffffffffffffffffffffff820361473b5761473a614430565b5b600182019050919050565b7f4f776e61626c653a2063616c6c6572206973206e6f7420746865206f776e6572600082015250565b600061477c602083613671565b915061478782614746565b602082019050919050565b600060208201905081810360008301526147ab8161476f565b9050919050565b60006147be82846143db565b915081905092915050565b60006147d5828461435c565b915081905092915050565b7f4e6f6e6365203a20496e76616c6964204e6f6e63650000000000000000000000600082015250565b6000614816601583613671565b9150614821826147e0565b602082019050919050565b6000602082019050818103600083015261484581614809565b9050919050565b600080fd5b600060ff82169050919050565b61486781614851565b811461487257600080fd5b50565b6000813590506148848161485e565b92915050565b6000608082840312156148a05761489f61484c565b5b6148aa60806138b8565b905060006148ba84828501614875565b60008301525060206148ce8482850161376f565b60208301525060406148e28482850161376f565b60408301525060606148f68482850161352c565b60608301525092915050565b600060808284031215614918576149176134a3565b5b60006149268482850161488a565b91505092915050565b7f455243313135353a2063616c6c6572206973206e6f74206f776e6572206e6f7260008201527f20617070726f7665640000000000000000000000000000000000000000000000602082015250565b600061498b602983613671565b91506149968261492f565b604082019050919050565b600060208201905081810360008301526149ba8161497e565b9050919050565b7f4f776e61626c653a206e6577206f776e657220697320746865207a65726f206160008201527f6464726573730000000000000000000000000000000000000000000000000000602082015250565b6000614a1d602683613671565b9150614a28826149c1565b604082019050919050565b60006020820190508181036000830152614a4c81614a10565b9050919050565b6000614a5e8261350b565b9150614a698361350b565b925082821015614a7c57614a7b614430565b5b828203905092915050565b6000614a928261350b565b9150614a9d8361350b565b925082614aad57614aac6144b9565b5b828206905092915050565b6000614ac38261350b565b9150614ace8361350b565b9250827fffffffffffffffffffffffffffffffffffffffffffffffffffffffffffffffff03821115614b0357614b02614430565b5b828201905092915050565b7f455243313135353a2069647320616e6420616d6f756e7473206c656e6774682060008201527f6d69736d61746368000000000000000000000000000000000000000000000000602082015250565b6000614b6a602883613671565b9150614b7582614b0e565b604082019050919050565b60006020820190508181036000830152614b9981614b5d565b9050919050565b7f455243313135353a207472616e7366657220746f20746865207a65726f20616460008201527f6472657373000000000000000000000000000000000000000000000000000000602082015250565b6000614bfc602583613671565b9150614c0782614ba0565b604082019050919050565b60006020820190508181036000830152614c2b81614bef565b9050919050565b7f455243313135353a20696e73756666696369656e742062616c616e636520666f60008201527f72207472616e7366657200000000000000000000000000000000000000000000602082015250565b6000614c8e602a83613671565b9150614c9982614c32565b604082019050919050565b60006020820190508181036000830152614cbd81614c81565b9050919050565b60006040820190508181036000830152614cde8185613cfa565b90508181036020830152614cf28184613cfa565b90509392505050565b6000819050919050565b6000614d20614d1b614d16846134ad565b614cfb565b6134ad565b9050919050565b6000614d3282614d05565b9050919050565b6000614d4482614d27565b9050919050565b60008160601b9050919050565b6000614d6382614d4b565b9050919050565b6000614d7582614d58565b9050919050565b614d8d614d8882614d39565b614d6a565b82525050565b614da4614d9f826134cd565b614d6a565b82525050565b6000819050919050565b614dc5614dc08261350b565b614daa565b82525050565b6000614dd78287614d7c565b601482019150614de78286614d93565b601482019150614df782856143db565b9150614e038284614db4565b60208201915081905095945050505050565b7f19457468657265756d205369676e6564204d6573736167653a0a333200000000600082015250565b6000614e4b601c8361433c565b9150614e5682614e15565b601c82019050919050565b6000819050919050565b614e7c614e778261374e565b614e61565b82525050565b6000614e8d82614e3e565b9150614e998284614e6b565b60208201915081905092915050565b614eb181614851565b82525050565b6000608082019050614ecc60008301876137b1565b614ed96020830186614ea8565b614ee660408301856137b1565b614ef360608301846137b1565b95945050505050565b7f4f776e6572207369676e20766572696669636174696f6e206661696c65640000600082015250565b6000614f32601e83613671565b9150614f3d82614efc565b602082019050919050565b60006020820190508181036000830152614f6181614f25565b9050919050565b7f455243313135353a206d696e7420746f20746865207a65726f2061646472657360008201527f7300000000000000000000000000000000000000000000000000000000000000602082015250565b6000614fc4602183613671565b9150614fcf82614f68565b604082019050919050565b60006020820190508181036000830152614ff381614fb7565b9050919050565b600060408201905061500f6000830185613581565b61501c6020830184613581565b9392505050565b7f455243323938313a20726f79616c7479206665652077696c6c2065786365656460008201527f2073616c65507269636500000000000000000000000000000000000000000000602082015250565b600061507f602a83613671565b915061508a82615023565b604082019050919050565b600060208201905081810360008301526150ae81615072565b9050919050565b7f455243323938313a20496e76616c696420706172616d65746572730000000000600082015250565b60006150eb601b83613671565b91506150f6826150b5565b602082019050919050565b6000602082019050818103600083015261511a816150de565b9050919050565b7f455243313135353a206275726e2066726f6d20746865207a65726f206164647260008201527f6573730000000000000000000000000000000000000000000000000000000000602082015250565b600061517d602383613671565b915061518882615121565b604082019050919050565b600060208201905081810360008301526151ac81615170565b9050919050565b7f455243313135353a206275726e20616d6f756e7420657863656564732062616c60008201527f616e636500000000000000000000000000000000000000000000000000000000602082015250565b600061520f602483613671565b915061521a826151b3565b604082019050919050565b6000602082019050818103600083015261523e81615202565b9050919050565b7f455243313135353a2073657474696e6720617070726f76616c2073746174757360008201527f20666f722073656c660000000000000000000000000000000000000000000000602082015250565b60006152a1602983613671565b91506152ac82615245565b604082019050919050565b600060208201905081810360008301526152d081615294565b9050919050565b600081519050919050565b600082825260208201905092915050565b60006152fe826152d7565b61530881856152e2565b9350615318818560208601613682565b615321816136b5565b840191505092915050565b600060a082019050615341600083018861381b565b61534e602083018761381b565b81810360408301526153608186613cfa565b905081810360608301526153748185613cfa565b9050818103608083015261538881846152f3565b90509695505050505050565b6000815190506153a3816135d7565b92915050565b6000602082840312156153bf576153be6134a3565b5b60006153cd84828501615394565b91505092915050565b60008160e01c9050919050565b600060033d11156154025760046000803e6153ff6000516153d6565b90505b90565b600060443d1061549257615417613499565b60043d036004823e80513d602482011167ffffffffffffffff8211171561543f575050615492565b808201805167ffffffffffffffff81111561545d5750505050615492565b80602083010160043d03850181111561547a575050505050615492565b61548982602001850186613887565b82955050505050505b90565b7f455243313135353a207472616e7366657220746f206e6f6e204552433131353560008201527f526563656976657220696d706c656d656e746572000000000000000000000000602082015250565b60006154f1603483613671565b91506154fc82615495565b604082019050919050565b60006020820190508181036000830152615520816154e4565b9050919050565b7f455243313135353a204552433131353552656365697665722072656a6563746560008201527f6420746f6b656e73000000000000000000000000000000000000000000000000602082015250565b6000615583602883613671565b915061558e82615527565b604082019050919050565b600060208201905081810360008301526155b281615576565b9050919050565b7f416363657373436f6e74726f6c3a206163636f756e7420000000000000000000600082015250565b60006155ef60178361433c565b91506155fa826155b9565b601782019050919050565b7f206973206d697373696e6720726f6c6520000000000000000000000000000000600082015250565b600061563b60118361433c565b915061564682615605565b601182019050919050565b600061565c826155e2565b915061566882856143db565b91506156738261562e565b915061567f82846143db565b91508190509392505050565b600060a0820190506156a0600083018861381b565b6156ad602083018761381b565b6156ba6040830186613581565b6156c76060830185613581565b81810360808301526156d981846152f3565b90509695505050505050565b7f455243313135353a206275726e20616d6f756e74206578636565647320746f7460008201527f616c537570706c79000000000000000000000000000000000000000000000000602082015250565b6000615741602883613671565b915061574c826156e5565b604082019050919050565b6000602082019050818103600083015261577081615734565b9050919050565b60006157828261350b565b91506000820361579557615794614430565b5b600182039050919050565b7f537472696e67733a20686578206c656e67746820696e73756666696369656e74600082015250565b60006157d6602083613671565b91506157e1826157a0565b602082019050919050565b60006020820190508181036000830152615805816157c9565b905091905056fea2646970667358221220aee0edcb68aa4c4459940735c7490483d15664e0f41589231a89bb7b30d9d0f064736f6c634300080e0033",
  "linkReferences": {},
  "deployedLinkReferences": {}
}