{
  "_format": "hh-sol-artifact-1",
  "contractName": "Factory721",
  "sourceName": "contracts/Factory721.sol",
  "abi": [
    {
      "anonymous": false,
      "inputs": [
        {
          "indexed": false,
          "internalType": "address",
          "name": "owner",
          "type": "address"
        },
        {
          "indexed": false,
          "internalType": "address",
          "name": "contractAddress",
          "type": "address"
        }
      ],
      "name": "Deployed",
      "type": "event"
    },
    {
      "inputs": [
        {
          "internalType": "bytes32",
          "name": "_salt",
          "type": "bytes32"
        },
        {
          "internalType": "string",
          "name": "name",
          "type": "string"
        },
        {
          "internalType": "string",
          "name": "symbol",
          "type": "string"
        },
        {
          "internalType": "string",
          "name": "tokenURIPrefix",
          "type": "string"
        }
      ],
      "name": "deploy",
      "outputs": [
        {
          "internalType": "address",
          "name": "addr",
          "type": "address"
        }
      ],
      "stateMutability": "nonpayable",
      "type": "function"
    }
  ],
  "bytecode": "0x608060405234801561001057600080fd5b506158cf806100206000396000f3fe60806040523480156200001157600080fd5b50600436106200002e5760003560e01c8063bf3c7c951462000033575b600080fd5b6200005160048036038101906200004b919062000339565b62000069565b6040516200006091906200044d565b60405180910390f35b6000848484846040516200007d906200017a565b6200008b93929190620004fd565b8190604051809103906000f5905080158015620000ac573d6000803e3d6000fd5b50905060008190508073ffffffffffffffffffffffffffffffffffffffff1663f2fde38b336040518263ffffffff1660e01b8152600401620000ef91906200044d565b6020604051808303816000875af11580156200010f573d6000803e3d6000fd5b505050506040513d601f19601f820116820180604052508101906200013591906200058c565b507f09e48df7857bd0c1e0d31bb8a85d42cf1874817895f171c917f6ee2cea73ec20338360405162000169929190620005be565b60405180910390a150949350505050565b6152ae80620005ec83390190565b6000604051905090565b600080fd5b600080fd5b6000819050919050565b620001b1816200019c565b8114620001bd57600080fd5b50565b600081359050620001d181620001a6565b92915050565b600080fd5b600080fd5b6000601f19601f8301169050919050565b7f4e487b7100000000000000000000000000000000000000000000000000000000600052604160045260246000fd5b6200022c82620001e1565b810181811067ffffffffffffffff821117156200024e576200024d620001f2565b5b80604052505050565b60006200026362000188565b905062000271828262000221565b919050565b600067ffffffffffffffff821115620002945762000293620001f2565b5b6200029f82620001e1565b9050602081019050919050565b82818337600083830152505050565b6000620002d2620002cc8462000276565b62000257565b905082815260208101848484011115620002f157620002f0620001dc565b5b620002fe848285620002ac565b509392505050565b600082601f8301126200031e576200031d620001d7565b5b813562000330848260208601620002bb565b91505092915050565b6000806000806080858703121562000356576200035562000192565b5b60006200036687828801620001c0565b945050602085013567ffffffffffffffff8111156200038a576200038962000197565b5b620003988782880162000306565b935050604085013567ffffffffffffffff811115620003bc57620003bb62000197565b5b620003ca8782880162000306565b925050606085013567ffffffffffffffff811115620003ee57620003ed62000197565b5b620003fc8782880162000306565b91505092959194509250565b600073ffffffffffffffffffffffffffffffffffffffff82169050919050565b6000620004358262000408565b9050919050565b620004478162000428565b82525050565b60006020820190506200046460008301846200043c565b92915050565b600081519050919050565b600082825260208201905092915050565b60005b83811015620004a657808201518184015260208101905062000489565b83811115620004b6576000848401525b50505050565b6000620004c9826200046a565b620004d5818562000475565b9350620004e781856020860162000486565b620004f281620001e1565b840191505092915050565b60006060820190508181036000830152620005198186620004bc565b905081810360208301526200052f8185620004bc565b90508181036040830152620005458184620004bc565b9050949350505050565b60008115159050919050565b62000566816200054f565b81146200057257600080fd5b50565b60008151905062000586816200055b565b92915050565b600060208284031215620005a557620005a462000192565b5b6000620005b58482850162000575565b91505092915050565b6000604082019050620005d560008301856200043c565b620005e460208301846200043c565b939250505056fe60806040523480156200001157600080fd5b50604051620052ae380380620052ae833981810160405281019062000037919062000506565b8282816000908051906020019062000051929190620002b9565b5080600190805190602001906200006a929190620002b9565b50505080600e908051906020019062000085929190620002b9565b50620000966200012860201b60201c565b600f60006101000a81548173ffffffffffffffffffffffffffffffffffffffff021916908373ffffffffffffffffffffffffffffffffffffffff160217905550620001087f41444d494e5f524f4c4500000000000000000000000000000000000000000000336200013060201b60201c565b6200011f600d6200014660201b6200131c1760201c565b50505062000623565b600033905090565b6200014282826200015c60201b60201c565b5050565b6001816000016000828254019250508190555050565b6200016e82826200024e60201b60201c565b6200024a576001600c600084815260200190815260200160002060000160008373ffffffffffffffffffffffffffffffffffffffff1673ffffffffffffffffffffffffffffffffffffffff16815260200190815260200160002060006101000a81548160ff021916908315150217905550620001ef6200012860201b60201c565b73ffffffffffffffffffffffffffffffffffffffff168173ffffffffffffffffffffffffffffffffffffffff16837f2f8788117e7eff1d82e926ec794901d17c78024a50270940304540a733656f0d60405160405180910390a45b5050565b6000600c600084815260200190815260200160002060000160008373ffffffffffffffffffffffffffffffffffffffff1673ffffffffffffffffffffffffffffffffffffffff16815260200190815260200160002060009054906101000a900460ff16905092915050565b828054620002c790620005ee565b90600052602060002090601f016020900481019282620002eb576000855562000337565b82601f106200030657805160ff191683800117855562000337565b8280016001018555821562000337579182015b828111156200033657825182559160200191906001019062000319565b5b5090506200034691906200034a565b5090565b5b80821115620003655760008160009055506001016200034b565b5090565b6000604051905090565b600080fd5b600080fd5b600080fd5b600080fd5b6000601f19601f8301169050919050565b7f4e487b7100000000000000000000000000000000000000000000000000000000600052604160045260246000fd5b620003d28262000387565b810181811067ffffffffffffffff82111715620003f457620003f362000398565b5b80604052505050565b60006200040962000369565b9050620004178282620003c7565b919050565b600067ffffffffffffffff8211156200043a576200043962000398565b5b620004458262000387565b9050602081019050919050565b60005b838110156200047257808201518184015260208101905062000455565b8381111562000482576000848401525b50505050565b60006200049f62000499846200041c565b620003fd565b905082815260208101848484011115620004be57620004bd62000382565b5b620004cb84828562000452565b509392505050565b600082601f830112620004eb57620004ea6200037d565b5b8151620004fd84826020860162000488565b91505092915050565b60008060006060848603121562000522576200052162000373565b5b600084015167ffffffffffffffff81111562000543576200054262000378565b5b6200055186828701620004d3565b935050602084015167ffffffffffffffff81111562000575576200057462000378565b5b6200058386828701620004d3565b925050604084015167ffffffffffffffff811115620005a757620005a662000378565b5b620005b586828701620004d3565b9150509250925092565b7f4e487b7100000000000000000000000000000000000000000000000000000000600052602260045260246000fd5b600060028204905060018216806200060757607f821691505b6020821081036200061d576200061c620005bf565b5b50919050565b614c7b80620006336000396000f3fe608060405234801561001057600080fd5b50600436106101da5760003560e01c80636352211e11610104578063a217fddf116100a2578063cbbb20a411610071578063cbbb20a41461058e578063d547741f146105be578063e985e9c5146105da578063f2fde38b1461060a576101da565b8063a217fddf14610508578063a22cb46514610526578063b88d4fde14610542578063c87b56dd1461055e576101da565b806375b238fc116100de57806375b238fc1461047e5780638da5cb5b1461049c57806391d14854146104ba57806395d89b41146104ea576101da565b80636352211e146104005780636c0360eb1461043057806370a082311461044e576101da565b80632a55205a1161017c57806342842e0e1161014b57806342842e0e1461037c57806342966c68146103985780634f6ccce7146103b457806355f804b3146103e4576101da565b80632a55205a146102e35780632f2ff15d146103145780632f745c591461033057806336568abe14610360576101da565b8063095ea7b3116101b8578063095ea7b31461025d57806318160ddd1461027957806323b872dd14610297578063248a9ca3146102b3576101da565b806301ffc9a7146101df57806306fdde031461020f578063081812fc1461022d575b600080fd5b6101f960048036038101906101f491906131e8565b61063a565b6040516102069190613230565b60405180910390f35b61021761064c565b60405161022491906132e4565b60405180910390f35b6102476004803603810190610242919061333c565b6106de565b60405161025491906133aa565b60405180910390f35b610277600480360381019061027291906133f1565b610763565b005b61028161087a565b60405161028e9190613440565b60405180910390f35b6102b160048036038101906102ac919061345b565b610887565b005b6102cd60048036038101906102c891906134e4565b6108e7565b6040516102da9190613520565b60405180910390f35b6102fd60048036038101906102f8919061353b565b610907565b60405161030b92919061357b565b60405180910390f35b61032e600480360381019061032991906135a4565b610a15565b005b61034a600480360381019061034591906133f1565b610a36565b6040516103579190613440565b60405180910390f35b61037a600480360381019061037591906135a4565b610adb565b005b6103966004803603810190610391919061345b565b610b5e565b005b6103b260048036038101906103ad919061333c565b610b7e565b005b6103ce60048036038101906103c9919061333c565b610bda565b6040516103db9190613440565b60405180910390f35b6103fe60048036038101906103f99190613719565b610c4b565b005b61041a6004803603810190610415919061333c565b610cf5565b60405161042791906133aa565b60405180910390f35b610438610da6565b60405161044591906132e4565b60405180910390f35b61046860048036038101906104639190613762565b610db5565b6040516104759190613440565b60405180910390f35b610486610e6c565b6040516104939190613520565b60405180910390f35b6104a4610e90565b6040516104b191906133aa565b60405180910390f35b6104d460048036038101906104cf91906135a4565b610eb6565b6040516104e19190613230565b60405180910390f35b6104f2610f21565b6040516104ff91906132e4565b60405180910390f35b610510610fb3565b60405161051d9190613520565b60405180910390f35b610540600480360381019061053b91906137bb565b610fba565b005b61055c6004803603810190610557919061389c565b610fd0565b005b6105786004803603810190610573919061333c565b611032565b60405161058591906132e4565b60405180910390f35b6105a860048036038101906105a39190613963565b611044565b6040516105b59190613440565b60405180910390f35b6105d860048036038101906105d391906135a4565b61108f565b005b6105f460048036038101906105ef91906139bf565b6110b0565b6040516106019190613230565b60405180910390f35b610624600480360381019061061f9190613762565b611144565b6040516106319190613230565b60405180910390f35b600061064582611332565b9050919050565b60606000805461065b90613a2e565b80601f016020809104026020016040519081016040528092919081815260200182805461068790613a2e565b80156106d45780601f106106a9576101008083540402835291602001916106d4565b820191906000526020600020905b8154815290600101906020018083116106b757829003601f168201915b5050505050905090565b60006106e9826113ac565b610728576040517f08c379a000000000000000000000000000000000000000000000000000000000815260040161071f90613ad1565b60405180910390fd5b6004600083815260200190815260200160002060009054906101000a900473ffffffffffffffffffffffffffffffffffffffff169050919050565b600061076e82610cf5565b90508073ffffffffffffffffffffffffffffffffffffffff168373ffffffffffffffffffffffffffffffffffffffff16036107de576040517f08c379a00000000000000000000000000000000000000000000000000000000081526004016107d590613b63565b60405180910390fd5b8073ffffffffffffffffffffffffffffffffffffffff166107fd611418565b73ffffffffffffffffffffffffffffffffffffffff16148061082c575061082b81610826611418565b6110b0565b5b61086b576040517f08c379a000000000000000000000000000000000000000000000000000000000815260040161086290613bf5565b60405180910390fd5b6108758383611420565b505050565b6000600880549050905090565b610898610892611418565b826114d9565b6108d7576040517f08c379a00000000000000000000000000000000000000000000000000000000081526004016108ce90613c87565b60405180910390fd5b6108e28383836115b7565b505050565b6000600c6000838152602001908152602001600020600101549050919050565b6000806000600b60008681526020019081526020016000206040518060400160405290816000820160009054906101000a900473ffffffffffffffffffffffffffffffffffffffff1673ffffffffffffffffffffffffffffffffffffffff1673ffffffffffffffffffffffffffffffffffffffff1681526020016000820160149054906101000a90046bffffffffffffffffffffffff166bffffffffffffffffffffffff166bffffffffffffffffffffffff1681525050905060006109ca61181d565b6bffffffffffffffffffffffff1682602001516bffffffffffffffffffffffff16866109f69190613cd6565b610a009190613d5f565b90508160000151819350935050509250929050565b610a1e826108e7565b610a2781611827565b610a31838361183b565b505050565b6000610a4183610db5565b8210610a82576040517f08c379a0000000000000000000000000000000000000000000000000000000008152600401610a7990613e02565b60405180910390fd5b600660008473ffffffffffffffffffffffffffffffffffffffff1673ffffffffffffffffffffffffffffffffffffffff168152602001908152602001600020600083815260200190815260200160002054905092915050565b610ae3611418565b73ffffffffffffffffffffffffffffffffffffffff168173ffffffffffffffffffffffffffffffffffffffff1614610b50576040517f08c379a0000000000000000000000000000000000000000000000000000000008152600401610b4790613e94565b60405180910390fd5b610b5a828261191c565b5050565b610b7983838360405180602001604052806000815250610fd0565b505050565b610b8f610b89611418565b826114d9565b610bce576040517f08c379a0000000000000000000000000000000000000000000000000000000008152600401610bc590613f26565b60405180910390fd5b610bd7816119fe565b50565b6000610be461087a565b8210610c25576040517f08c379a0000000000000000000000000000000000000000000000000000000008152600401610c1c90613fb8565b60405180910390fd5b60088281548110610c3957610c38613fd8565b5b90600052602060002001549050919050565b3373ffffffffffffffffffffffffffffffffffffffff16600f60009054906101000a900473ffffffffffffffffffffffffffffffffffffffff1673ffffffffffffffffffffffffffffffffffffffff1614610cdb576040517f08c379a0000000000000000000000000000000000000000000000000000000008152600401610cd290614053565b60405180910390fd5b80600e9080519060200190610cf1929190613099565b5050565b6000806002600084815260200190815260200160002060009054906101000a900473ffffffffffffffffffffffffffffffffffffffff169050600073ffffffffffffffffffffffffffffffffffffffff168173ffffffffffffffffffffffffffffffffffffffff1603610d9d576040517f08c379a0000000000000000000000000000000000000000000000000000000008152600401610d94906140e5565b60405180910390fd5b80915050919050565b6060610db0611a13565b905090565b60008073ffffffffffffffffffffffffffffffffffffffff168273ffffffffffffffffffffffffffffffffffffffff1603610e25576040517f08c379a0000000000000000000000000000000000000000000000000000000008152600401610e1c90614177565b60405180910390fd5b600360008373ffffffffffffffffffffffffffffffffffffffff1673ffffffffffffffffffffffffffffffffffffffff168152602001908152602001600020549050919050565b7fa49807205ce4d355092ef5a8a18f56e8913cf4a201fbe287825b095693c2177581565b600f60009054906101000a900473ffffffffffffffffffffffffffffffffffffffff1681565b6000600c600084815260200190815260200160002060000160008373ffffffffffffffffffffffffffffffffffffffff1673ffffffffffffffffffffffffffffffffffffffff16815260200190815260200160002060009054906101000a900460ff16905092915050565b606060018054610f3090613a2e565b80601f0160208091040260200160405190810160405280929190818152602001828054610f5c90613a2e565b8015610fa95780601f10610f7e57610100808354040283529160200191610fa9565b820191906000526020600020905b815481529060010190602001808311610f8c57829003601f168201915b5050505050905090565b6000801b81565b610fcc610fc5611418565b8383611aa5565b5050565b610fe1610fdb611418565b836114d9565b611020576040517f08c379a000000000000000000000000000000000000000000000000000000000815260040161101790613c87565b60405180910390fd5b61102c84848484611c11565b50505050565b606061103d82611c6d565b9050919050565b6000611050600d611dbe565b905061106361105d611418565b82611dcc565b61106d8184611fa5565b61107f81611079611418565b84612019565b611089600d61131c565b92915050565b611098826108e7565b6110a181611827565b6110ab838361191c565b505050565b6000600560008473ffffffffffffffffffffffffffffffffffffffff1673ffffffffffffffffffffffffffffffffffffffff16815260200190815260200160002060008373ffffffffffffffffffffffffffffffffffffffff1673ffffffffffffffffffffffffffffffffffffffff16815260200190815260200160002060009054906101000a900460ff16905092915050565b60007f41444d494e5f524f4c450000000000000000000000000000000000000000000061117081611827565b600073ffffffffffffffffffffffffffffffffffffffff168373ffffffffffffffffffffffffffffffffffffffff16036111df576040517f08c379a00000000000000000000000000000000000000000000000000000000081526004016111d690614209565b60405180910390fd5b61122b7f41444d494e5f524f4c4500000000000000000000000000000000000000000000600f60009054906101000a900473ffffffffffffffffffffffffffffffffffffffff1661191c565b82600f60006101000a81548173ffffffffffffffffffffffffffffffffffffffff021916908373ffffffffffffffffffffffffffffffffffffffff1602179055506112967f41444d494e5f524f4c4500000000000000000000000000000000000000000000846121c0565b8273ffffffffffffffffffffffffffffffffffffffff16600f60009054906101000a900473ffffffffffffffffffffffffffffffffffffffff1673ffffffffffffffffffffffffffffffffffffffff167f8be0079c531659141344cd1fd0a4f28419497f9722a3daafe3b4186f6b6457e060405160405180910390a36001915050919050565b6001816000016000828254019250508190555050565b60007f7965db0b000000000000000000000000000000000000000000000000000000007bffffffffffffffffffffffffffffffffffffffffffffffffffffffff1916827bffffffffffffffffffffffffffffffffffffffffffffffffffffffff191614806113a557506113a4826121ce565b5b9050919050565b60008073ffffffffffffffffffffffffffffffffffffffff166002600084815260200190815260200160002060009054906101000a900473ffffffffffffffffffffffffffffffffffffffff1673ffffffffffffffffffffffffffffffffffffffff1614159050919050565b600033905090565b816004600083815260200190815260200160002060006101000a81548173ffffffffffffffffffffffffffffffffffffffff021916908373ffffffffffffffffffffffffffffffffffffffff160217905550808273ffffffffffffffffffffffffffffffffffffffff1661149383610cf5565b73ffffffffffffffffffffffffffffffffffffffff167f8c5be1e5ebec7d5bd14f71427d1e84f3dd0314c0f7b2291e5b200ac8c7c3b92560405160405180910390a45050565b60006114e4826113ac565b611523576040517f08c379a000000000000000000000000000000000000000000000000000000000815260040161151a9061429b565b60405180910390fd5b600061152e83610cf5565b90508073ffffffffffffffffffffffffffffffffffffffff168473ffffffffffffffffffffffffffffffffffffffff161480611570575061156f81856110b0565b5b806115ae57508373ffffffffffffffffffffffffffffffffffffffff16611596846106de565b73ffffffffffffffffffffffffffffffffffffffff16145b91505092915050565b8273ffffffffffffffffffffffffffffffffffffffff166115d782610cf5565b73ffffffffffffffffffffffffffffffffffffffff161461162d576040517f08c379a00000000000000000000000000000000000000000000000000000000081526004016116249061432d565b60405180910390fd5b600073ffffffffffffffffffffffffffffffffffffffff168273ffffffffffffffffffffffffffffffffffffffff160361169c576040517f08c379a0000000000000000000000000000000000000000000000000000000008152600401611693906143bf565b60405180910390fd5b6116a7838383612248565b6116b2600082611420565b6001600360008573ffffffffffffffffffffffffffffffffffffffff1673ffffffffffffffffffffffffffffffffffffffff168152602001908152602001600020600082825461170291906143df565b925050819055506001600360008473ffffffffffffffffffffffffffffffffffffffff1673ffffffffffffffffffffffffffffffffffffffff16815260200190815260200160002060008282546117599190614413565b92505081905550816002600083815260200190815260200160002060006101000a81548173ffffffffffffffffffffffffffffffffffffffff021916908373ffffffffffffffffffffffffffffffffffffffff160217905550808273ffffffffffffffffffffffffffffffffffffffff168473ffffffffffffffffffffffffffffffffffffffff167fddf252ad1be2c89b69c2b068fc378daa952ba7f163c4a11628f55a4df523b3ef60405160405180910390a4611818838383612258565b505050565b60006103e8905090565b61183881611833611418565b61225d565b50565b6118458282610eb6565b611918576001600c600084815260200190815260200160002060000160008373ffffffffffffffffffffffffffffffffffffffff1673ffffffffffffffffffffffffffffffffffffffff16815260200190815260200160002060006101000a81548160ff0219169083151502179055506118bd611418565b73ffffffffffffffffffffffffffffffffffffffff168173ffffffffffffffffffffffffffffffffffffffff16837f2f8788117e7eff1d82e926ec794901d17c78024a50270940304540a733656f0d60405160405180910390a45b5050565b6119268282610eb6565b156119fa576000600c600084815260200190815260200160002060000160008373ffffffffffffffffffffffffffffffffffffffff1673ffffffffffffffffffffffffffffffffffffffff16815260200190815260200160002060006101000a81548160ff02191690831515021790555061199f611418565b73ffffffffffffffffffffffffffffffffffffffff168173ffffffffffffffffffffffffffffffffffffffff16837ff6391f5c32d9c69d2a47ea670b442974b53935d1edc7fd64eb21e047a839171b60405160405180910390a45b5050565b611a07816122fa565b611a1081612359565b50565b6060600e8054611a2290613a2e565b80601f0160208091040260200160405190810160405280929190818152602001828054611a4e90613a2e565b8015611a9b5780601f10611a7057610100808354040283529160200191611a9b565b820191906000526020600020905b815481529060010190602001808311611a7e57829003601f168201915b5050505050905090565b8173ffffffffffffffffffffffffffffffffffffffff168373ffffffffffffffffffffffffffffffffffffffff1603611b13576040517f08c379a0000000000000000000000000000000000000000000000000000000008152600401611b0a906144b5565b60405180910390fd5b80600560008573ffffffffffffffffffffffffffffffffffffffff1673ffffffffffffffffffffffffffffffffffffffff16815260200190815260200160002060008473ffffffffffffffffffffffffffffffffffffffff1673ffffffffffffffffffffffffffffffffffffffff16815260200190815260200160002060006101000a81548160ff0219169083151502179055508173ffffffffffffffffffffffffffffffffffffffff168373ffffffffffffffffffffffffffffffffffffffff167f17307eab39ab6107e8899845ad3d59bd9653f200f220920489ca2b5937696c3183604051611c049190613230565b60405180910390a3505050565b611c1c8484846115b7565b611c28848484846123ac565b611c67576040517f08c379a0000000000000000000000000000000000000000000000000000000008152600401611c5e90614547565b60405180910390fd5b50505050565b6060611c78826113ac565b611cb7576040517f08c379a0000000000000000000000000000000000000000000000000000000008152600401611cae906145d9565b60405180910390fd5b6000600a60008481526020019081526020016000208054611cd790613a2e565b80601f0160208091040260200160405190810160405280929190818152602001828054611d0390613a2e565b8015611d505780601f10611d2557610100808354040283529160200191611d50565b820191906000526020600020905b815481529060010190602001808311611d3357829003601f168201915b505050505090506000611d61611a13565b90506000815103611d76578192505050611db9565b600082511115611dab578082604051602001611d93929190614635565b60405160208183030381529060405292505050611db9565b611db484612533565b925050505b919050565b600081600001549050919050565b600073ffffffffffffffffffffffffffffffffffffffff168273ffffffffffffffffffffffffffffffffffffffff1603611e3b576040517f08c379a0000000000000000000000000000000000000000000000000000000008152600401611e32906146a5565b60405180910390fd5b611e44816113ac565b15611e84576040517f08c379a0000000000000000000000000000000000000000000000000000000008152600401611e7b90614711565b60405180910390fd5b611e9060008383612248565b6001600360008473ffffffffffffffffffffffffffffffffffffffff1673ffffffffffffffffffffffffffffffffffffffff1681526020019081526020016000206000828254611ee09190614413565b92505081905550816002600083815260200190815260200160002060006101000a81548173ffffffffffffffffffffffffffffffffffffffff021916908373ffffffffffffffffffffffffffffffffffffffff160217905550808273ffffffffffffffffffffffffffffffffffffffff16600073ffffffffffffffffffffffffffffffffffffffff167fddf252ad1be2c89b69c2b068fc378daa952ba7f163c4a11628f55a4df523b3ef60405160405180910390a4611fa160008383612258565b5050565b611fae826113ac565b611fed576040517f08c379a0000000000000000000000000000000000000000000000000000000008152600401611fe4906147a3565b60405180910390fd5b80600a60008481526020019081526020016000209080519060200190612014929190613099565b505050565b61202161181d565b6bffffffffffffffffffffffff16816bffffffffffffffffffffffff16111561207f576040517f08c379a000000000000000000000000000000000000000000000000000000000815260040161207690614835565b60405180910390fd5b600073ffffffffffffffffffffffffffffffffffffffff168273ffffffffffffffffffffffffffffffffffffffff16036120ee576040517f08c379a00000000000000000000000000000000000000000000000000000000081526004016120e5906148a1565b60405180910390fd5b60405180604001604052808373ffffffffffffffffffffffffffffffffffffffff168152602001826bffffffffffffffffffffffff16815250600b600085815260200190815260200160002060008201518160000160006101000a81548173ffffffffffffffffffffffffffffffffffffffff021916908373ffffffffffffffffffffffffffffffffffffffff16021790555060208201518160000160146101000a8154816bffffffffffffffffffffffff02191690836bffffffffffffffffffffffff160217905550905050505050565b6121ca828261183b565b5050565b60007f2a55205a000000000000000000000000000000000000000000000000000000007bffffffffffffffffffffffffffffffffffffffffffffffffffffffff1916827bffffffffffffffffffffffffffffffffffffffffffffffffffffffff191614806122415750612240826125da565b5b9050919050565b612253838383612654565b505050565b505050565b6122678282610eb6565b6122f65761228c8173ffffffffffffffffffffffffffffffffffffffff166014612766565b61229a8360001c6020612766565b6040516020016122ab929190614959565b6040516020818303038152906040526040517f08c379a00000000000000000000000000000000000000000000000000000000081526004016122ed91906132e4565b60405180910390fd5b5050565b600b6000828152602001908152602001600020600080820160006101000a81549073ffffffffffffffffffffffffffffffffffffffff02191690556000820160146101000a8154906bffffffffffffffffffffffff0219169055505050565b612362816129a2565b6000600a6000838152602001908152602001600020805461238290613a2e565b9050146123a957600a600082815260200190815260200160002060006123a8919061311f565b5b50565b60006123cd8473ffffffffffffffffffffffffffffffffffffffff16612abf565b15612526578373ffffffffffffffffffffffffffffffffffffffff1663150b7a026123f6611418565b8786866040518563ffffffff1660e01b815260040161241894939291906149e8565b6020604051808303816000875af192505050801561245457506040513d601f19601f820116820180604052508101906124519190614a49565b60015b6124d6573d8060008114612484576040519150601f19603f3d011682016040523d82523d6000602084013e612489565b606091505b5060008151036124ce576040517f08c379a00000000000000000000000000000000000000000000000000000000081526004016124c590614547565b60405180910390fd5b805181602001fd5b63150b7a0260e01b7bffffffffffffffffffffffffffffffffffffffffffffffffffffffff1916817bffffffffffffffffffffffffffffffffffffffffffffffffffffffff19161491505061252b565b600190505b949350505050565b606061253e826113ac565b61257d576040517f08c379a000000000000000000000000000000000000000000000000000000000815260040161257490614ae8565b60405180910390fd5b6000612587611a13565b905060008151116125a757604051806020016040528060008152506125d2565b806125b184612ae2565b6040516020016125c2929190614635565b6040516020818303038152906040525b915050919050565b60007f780e9d63000000000000000000000000000000000000000000000000000000007bffffffffffffffffffffffffffffffffffffffffffffffffffffffff1916827bffffffffffffffffffffffffffffffffffffffffffffffffffffffff1916148061264d575061264c82612c42565b5b9050919050565b61265f838383612d24565b600073ffffffffffffffffffffffffffffffffffffffff168373ffffffffffffffffffffffffffffffffffffffff16036126a15761269c81612d29565b6126e0565b8173ffffffffffffffffffffffffffffffffffffffff168373ffffffffffffffffffffffffffffffffffffffff16146126df576126de8382612d72565b5b5b600073ffffffffffffffffffffffffffffffffffffffff168273ffffffffffffffffffffffffffffffffffffffff16036127225761271d81612edf565b612761565b8273ffffffffffffffffffffffffffffffffffffffff168273ffffffffffffffffffffffffffffffffffffffff16146127605761275f8282612fb0565b5b5b505050565b6060600060028360026127799190613cd6565b6127839190614413565b67ffffffffffffffff81111561279c5761279b6135ee565b5b6040519080825280601f01601f1916602001820160405280156127ce5781602001600182028036833780820191505090505b5090507f30000000000000000000000000000000000000000000000000000000000000008160008151811061280657612805613fd8565b5b60200101907effffffffffffffffffffffffffffffffffffffffffffffffffffffffffffff1916908160001a9053507f78000000000000000000000000000000000000000000000000000000000000008160018151811061286a57612869613fd8565b5b60200101907effffffffffffffffffffffffffffffffffffffffffffffffffffffffffffff1916908160001a905350600060018460026128aa9190613cd6565b6128b49190614413565b90505b6001811115612954577f3031323334353637383961626364656600000000000000000000000000000000600f8616601081106128f6576128f5613fd8565b5b1a60f81b82828151811061290d5761290c613fd8565b5b60200101907effffffffffffffffffffffffffffffffffffffffffffffffffffffffffffff1916908160001a905350600485901c94508061294d90614b08565b90506128b7565b5060008414612998576040517f08c379a000000000000000000000000000000000000000000000000000000000815260040161298f90614b7d565b60405180910390fd5b8091505092915050565b60006129ad82610cf5565b90506129bb81600084612248565b6129c6600083611420565b6001600360008373ffffffffffffffffffffffffffffffffffffffff1673ffffffffffffffffffffffffffffffffffffffff1681526020019081526020016000206000828254612a1691906143df565b925050819055506002600083815260200190815260200160002060006101000a81549073ffffffffffffffffffffffffffffffffffffffff021916905581600073ffffffffffffffffffffffffffffffffffffffff168273ffffffffffffffffffffffffffffffffffffffff167fddf252ad1be2c89b69c2b068fc378daa952ba7f163c4a11628f55a4df523b3ef60405160405180910390a4612abb81600084612258565b5050565b6000808273ffffffffffffffffffffffffffffffffffffffff163b119050919050565b606060008203612b29576040518060400160405280600181526020017f30000000000000000000000000000000000000000000000000000000000000008152509050612c3d565b600082905060005b60008214612b5b578080612b4490614b9d565b915050600a82612b549190613d5f565b9150612b31565b60008167ffffffffffffffff811115612b7757612b766135ee565b5b6040519080825280601f01601f191660200182016040528015612ba95781602001600182028036833780820191505090505b5090505b60008514612c3657600182612bc291906143df565b9150600a85612bd19190614be5565b6030612bdd9190614413565b60f81b818381518110612bf357612bf2613fd8565b5b60200101907effffffffffffffffffffffffffffffffffffffffffffffffffffffffffffff1916908160001a905350600a85612c2f9190613d5f565b9450612bad565b8093505050505b919050565b60007f80ac58cd000000000000000000000000000000000000000000000000000000007bffffffffffffffffffffffffffffffffffffffffffffffffffffffff1916827bffffffffffffffffffffffffffffffffffffffffffffffffffffffff19161480612d0d57507f5b5e139f000000000000000000000000000000000000000000000000000000007bffffffffffffffffffffffffffffffffffffffffffffffffffffffff1916827bffffffffffffffffffffffffffffffffffffffffffffffffffffffff1916145b80612d1d5750612d1c8261302f565b5b9050919050565b505050565b6008805490506009600083815260200190815260200160002081905550600881908060018154018082558091505060019003906000526020600020016000909190919091505550565b60006001612d7f84610db5565b612d8991906143df565b9050600060076000848152602001908152602001600020549050818114612e6e576000600660008673ffffffffffffffffffffffffffffffffffffffff1673ffffffffffffffffffffffffffffffffffffffff168152602001908152602001600020600084815260200190815260200160002054905080600660008773ffffffffffffffffffffffffffffffffffffffff1673ffffffffffffffffffffffffffffffffffffffff168152602001908152602001600020600084815260200190815260200160002081905550816007600083815260200190815260200160002081905550505b6007600084815260200190815260200160002060009055600660008573ffffffffffffffffffffffffffffffffffffffff1673ffffffffffffffffffffffffffffffffffffffff16815260200190815260200160002060008381526020019081526020016000206000905550505050565b60006001600880549050612ef391906143df565b9050600060096000848152602001908152602001600020549050600060088381548110612f2357612f22613fd8565b5b906000526020600020015490508060088381548110612f4557612f44613fd8565b5b906000526020600020018190555081600960008381526020019081526020016000208190555060096000858152602001908152602001600020600090556008805480612f9457612f93614c16565b5b6001900381819060005260206000200160009055905550505050565b6000612fbb83610db5565b905081600660008573ffffffffffffffffffffffffffffffffffffffff1673ffffffffffffffffffffffffffffffffffffffff168152602001908152602001600020600083815260200190815260200160002081905550806007600084815260200190815260200160002081905550505050565b60007f01ffc9a7000000000000000000000000000000000000000000000000000000007bffffffffffffffffffffffffffffffffffffffffffffffffffffffff1916827bffffffffffffffffffffffffffffffffffffffffffffffffffffffff1916149050919050565b8280546130a590613a2e565b90600052602060002090601f0160209004810192826130c7576000855561310e565b82601f106130e057805160ff191683800117855561310e565b8280016001018555821561310e579182015b8281111561310d5782518255916020019190600101906130f2565b5b50905061311b919061315f565b5090565b50805461312b90613a2e565b6000825580601f1061313d575061315c565b601f01602090049060005260206000209081019061315b919061315f565b5b50565b5b80821115613178576000816000905550600101613160565b5090565b6000604051905090565b600080fd5b600080fd5b60007fffffffff0000000000000000000000000000000000000000000000000000000082169050919050565b6131c581613190565b81146131d057600080fd5b50565b6000813590506131e2816131bc565b92915050565b6000602082840312156131fe576131fd613186565b5b600061320c848285016131d3565b91505092915050565b60008115159050919050565b61322a81613215565b82525050565b60006020820190506132456000830184613221565b92915050565b600081519050919050565b600082825260208201905092915050565b60005b8381101561328557808201518184015260208101905061326a565b83811115613294576000848401525b50505050565b6000601f19601f8301169050919050565b60006132b68261324b565b6132c08185613256565b93506132d0818560208601613267565b6132d98161329a565b840191505092915050565b600060208201905081810360008301526132fe81846132ab565b905092915050565b6000819050919050565b61331981613306565b811461332457600080fd5b50565b60008135905061333681613310565b92915050565b60006020828403121561335257613351613186565b5b600061336084828501613327565b91505092915050565b600073ffffffffffffffffffffffffffffffffffffffff82169050919050565b600061339482613369565b9050919050565b6133a481613389565b82525050565b60006020820190506133bf600083018461339b565b92915050565b6133ce81613389565b81146133d957600080fd5b50565b6000813590506133eb816133c5565b92915050565b6000806040838503121561340857613407613186565b5b6000613416858286016133dc565b925050602061342785828601613327565b9150509250929050565b61343a81613306565b82525050565b60006020820190506134556000830184613431565b92915050565b60008060006060848603121561347457613473613186565b5b6000613482868287016133dc565b9350506020613493868287016133dc565b92505060406134a486828701613327565b9150509250925092565b6000819050919050565b6134c1816134ae565b81146134cc57600080fd5b50565b6000813590506134de816134b8565b92915050565b6000602082840312156134fa576134f9613186565b5b6000613508848285016134cf565b91505092915050565b61351a816134ae565b82525050565b60006020820190506135356000830184613511565b92915050565b6000806040838503121561355257613551613186565b5b600061356085828601613327565b925050602061357185828601613327565b9150509250929050565b6000604082019050613590600083018561339b565b61359d6020830184613431565b9392505050565b600080604083850312156135bb576135ba613186565b5b60006135c9858286016134cf565b92505060206135da858286016133dc565b9150509250929050565b600080fd5b600080fd5b7f4e487b7100000000000000000000000000000000000000000000000000000000600052604160045260246000fd5b6136268261329a565b810181811067ffffffffffffffff82111715613645576136446135ee565b5b80604052505050565b600061365861317c565b9050613664828261361d565b919050565b600067ffffffffffffffff821115613684576136836135ee565b5b61368d8261329a565b9050602081019050919050565b82818337600083830152505050565b60006136bc6136b784613669565b61364e565b9050828152602081018484840111156136d8576136d76135e9565b5b6136e384828561369a565b509392505050565b600082601f830112613700576136ff6135e4565b5b81356137108482602086016136a9565b91505092915050565b60006020828403121561372f5761372e613186565b5b600082013567ffffffffffffffff81111561374d5761374c61318b565b5b613759848285016136eb565b91505092915050565b60006020828403121561377857613777613186565b5b6000613786848285016133dc565b91505092915050565b61379881613215565b81146137a357600080fd5b50565b6000813590506137b58161378f565b92915050565b600080604083850312156137d2576137d1613186565b5b60006137e0858286016133dc565b92505060206137f1858286016137a6565b9150509250929050565b600067ffffffffffffffff821115613816576138156135ee565b5b61381f8261329a565b9050602081019050919050565b600061383f61383a846137fb565b61364e565b90508281526020810184848401111561385b5761385a6135e9565b5b61386684828561369a565b509392505050565b600082601f830112613883576138826135e4565b5b813561389384826020860161382c565b91505092915050565b600080600080608085870312156138b6576138b5613186565b5b60006138c4878288016133dc565b94505060206138d5878288016133dc565b93505060406138e687828801613327565b925050606085013567ffffffffffffffff8111156139075761390661318b565b5b6139138782880161386e565b91505092959194509250565b60006bffffffffffffffffffffffff82169050919050565b6139408161391f565b811461394b57600080fd5b50565b60008135905061395d81613937565b92915050565b6000806040838503121561397a57613979613186565b5b600083013567ffffffffffffffff8111156139985761399761318b565b5b6139a4858286016136eb565b92505060206139b58582860161394e565b9150509250929050565b600080604083850312156139d6576139d5613186565b5b60006139e4858286016133dc565b92505060206139f5858286016133dc565b9150509250929050565b7f4e487b7100000000000000000000000000000000000000000000000000000000600052602260045260246000fd5b60006002820490506001821680613a4657607f821691505b602082108103613a5957613a586139ff565b5b50919050565b7f4552433732313a20617070726f76656420717565727920666f72206e6f6e657860008201527f697374656e7420746f6b656e0000000000000000000000000000000000000000602082015250565b6000613abb602c83613256565b9150613ac682613a5f565b604082019050919050565b60006020820190508181036000830152613aea81613aae565b9050919050565b7f4552433732313a20617070726f76616c20746f2063757272656e74206f776e6560008201527f7200000000000000000000000000000000000000000000000000000000000000602082015250565b6000613b4d602183613256565b9150613b5882613af1565b604082019050919050565b60006020820190508181036000830152613b7c81613b40565b9050919050565b7f4552433732313a20617070726f76652063616c6c6572206973206e6f74206f7760008201527f6e6572206e6f7220617070726f76656420666f7220616c6c0000000000000000602082015250565b6000613bdf603883613256565b9150613bea82613b83565b604082019050919050565b60006020820190508181036000830152613c0e81613bd2565b9050919050565b7f4552433732313a207472616e736665722063616c6c6572206973206e6f74206f60008201527f776e6572206e6f7220617070726f766564000000000000000000000000000000602082015250565b6000613c71603183613256565b9150613c7c82613c15565b604082019050919050565b60006020820190508181036000830152613ca081613c64565b9050919050565b7f4e487b7100000000000000000000000000000000000000000000000000000000600052601160045260246000fd5b6000613ce182613306565b9150613cec83613306565b9250817fffffffffffffffffffffffffffffffffffffffffffffffffffffffffffffffff0483118215151615613d2557613d24613ca7565b5b828202905092915050565b7f4e487b7100000000000000000000000000000000000000000000000000000000600052601260045260246000fd5b6000613d6a82613306565b9150613d7583613306565b925082613d8557613d84613d30565b5b828204905092915050565b7f455243373231456e756d657261626c653a206f776e657220696e646578206f7560008201527f74206f6620626f756e6473000000000000000000000000000000000000000000602082015250565b6000613dec602b83613256565b9150613df782613d90565b604082019050919050565b60006020820190508181036000830152613e1b81613ddf565b9050919050565b7f416363657373436f6e74726f6c3a2063616e206f6e6c792072656e6f756e636560008201527f20726f6c657320666f722073656c660000000000000000000000000000000000602082015250565b6000613e7e602f83613256565b9150613e8982613e22565b604082019050919050565b60006020820190508181036000830152613ead81613e71565b9050919050565b7f4552433732314275726e61626c653a2063616c6c6572206973206e6f74206f7760008201527f6e6572206e6f7220617070726f76656400000000000000000000000000000000602082015250565b6000613f10603083613256565b9150613f1b82613eb4565b604082019050919050565b60006020820190508181036000830152613f3f81613f03565b9050919050565b7f455243373231456e756d657261626c653a20676c6f62616c20696e646578206f60008201527f7574206f6620626f756e64730000000000000000000000000000000000000000602082015250565b6000613fa2602c83613256565b9150613fad82613f46565b604082019050919050565b60006020820190508181036000830152613fd181613f95565b9050919050565b7f4e487b7100000000000000000000000000000000000000000000000000000000600052603260045260246000fd5b7f4f776e61626c653a2063616c6c6572206973206e6f7420746865206f776e6572600082015250565b600061403d602083613256565b915061404882614007565b602082019050919050565b6000602082019050818103600083015261406c81614030565b9050919050565b7f4552433732313a206f776e657220717565727920666f72206e6f6e657869737460008201527f656e7420746f6b656e0000000000000000000000000000000000000000000000602082015250565b60006140cf602983613256565b91506140da82614073565b604082019050919050565b600060208201905081810360008301526140fe816140c2565b9050919050565b7f4552433732313a2062616c616e636520717565727920666f7220746865207a6560008201527f726f206164647265737300000000000000000000000000000000000000000000602082015250565b6000614161602a83613256565b915061416c82614105565b604082019050919050565b6000602082019050818103600083015261419081614154565b9050919050565b7f4f776e61626c653a206e6577206f776e657220697320746865207a65726f206160008201527f6464726573730000000000000000000000000000000000000000000000000000602082015250565b60006141f3602683613256565b91506141fe82614197565b604082019050919050565b60006020820190508181036000830152614222816141e6565b9050919050565b7f4552433732313a206f70657261746f7220717565727920666f72206e6f6e657860008201527f697374656e7420746f6b656e0000000000000000000000000000000000000000602082015250565b6000614285602c83613256565b915061429082614229565b604082019050919050565b600060208201905081810360008301526142b481614278565b9050919050565b7f4552433732313a207472616e736665722066726f6d20696e636f72726563742060008201527f6f776e6572000000000000000000000000000000000000000000000000000000602082015250565b6000614317602583613256565b9150614322826142bb565b604082019050919050565b600060208201905081810360008301526143468161430a565b9050919050565b7f4552433732313a207472616e7366657220746f20746865207a65726f2061646460008201527f7265737300000000000000000000000000000000000000000000000000000000602082015250565b60006143a9602483613256565b91506143b48261434d565b604082019050919050565b600060208201905081810360008301526143d88161439c565b9050919050565b60006143ea82613306565b91506143f583613306565b92508282101561440857614407613ca7565b5b828203905092915050565b600061441e82613306565b915061442983613306565b9250827fffffffffffffffffffffffffffffffffffffffffffffffffffffffffffffffff0382111561445e5761445d613ca7565b5b828201905092915050565b7f4552433732313a20617070726f766520746f2063616c6c657200000000000000600082015250565b600061449f601983613256565b91506144aa82614469565b602082019050919050565b600060208201905081810360008301526144ce81614492565b9050919050565b7f4552433732313a207472616e7366657220746f206e6f6e20455243373231526560008201527f63656976657220696d706c656d656e7465720000000000000000000000000000602082015250565b6000614531603283613256565b915061453c826144d5565b604082019050919050565b6000602082019050818103600083015261456081614524565b9050919050565b7f45524337323155524953746f726167653a2055524920717565727920666f722060008201527f6e6f6e6578697374656e7420746f6b656e000000000000000000000000000000602082015250565b60006145c3603183613256565b91506145ce82614567565b604082019050919050565b600060208201905081810360008301526145f2816145b6565b9050919050565b600081905092915050565b600061460f8261324b565b61461981856145f9565b9350614629818560208601613267565b80840191505092915050565b60006146418285614604565b915061464d8284614604565b91508190509392505050565b7f4552433732313a206d696e7420746f20746865207a65726f2061646472657373600082015250565b600061468f602083613256565b915061469a82614659565b602082019050919050565b600060208201905081810360008301526146be81614682565b9050919050565b7f4552433732313a20746f6b656e20616c7265616479206d696e74656400000000600082015250565b60006146fb601c83613256565b9150614706826146c5565b602082019050919050565b6000602082019050818103600083015261472a816146ee565b9050919050565b7f45524337323155524953746f726167653a2055524920736574206f66206e6f6e60008201527f6578697374656e7420746f6b656e000000000000000000000000000000000000602082015250565b600061478d602e83613256565b915061479882614731565b604082019050919050565b600060208201905081810360008301526147bc81614780565b9050919050565b7f455243323938313a20726f79616c7479206665652077696c6c2065786365656460008201527f2073616c65507269636500000000000000000000000000000000000000000000602082015250565b600061481f602a83613256565b915061482a826147c3565b604082019050919050565b6000602082019050818103600083015261484e81614812565b9050919050565b7f455243323938313a20496e76616c696420706172616d65746572730000000000600082015250565b600061488b601b83613256565b915061489682614855565b602082019050919050565b600060208201905081810360008301526148ba8161487e565b9050919050565b7f416363657373436f6e74726f6c3a206163636f756e7420000000000000000000600082015250565b60006148f76017836145f9565b9150614902826148c1565b601782019050919050565b7f206973206d697373696e6720726f6c6520000000000000000000000000000000600082015250565b60006149436011836145f9565b915061494e8261490d565b601182019050919050565b6000614964826148ea565b91506149708285614604565b915061497b82614936565b91506149878284614604565b91508190509392505050565b600081519050919050565b600082825260208201905092915050565b60006149ba82614993565b6149c4818561499e565b93506149d4818560208601613267565b6149dd8161329a565b840191505092915050565b60006080820190506149fd600083018761339b565b614a0a602083018661339b565b614a176040830185613431565b8181036060830152614a2981846149af565b905095945050505050565b600081519050614a43816131bc565b92915050565b600060208284031215614a5f57614a5e613186565b5b6000614a6d84828501614a34565b91505092915050565b7f4552433732314d657461646174613a2055524920717565727920666f72206e6f60008201527f6e6578697374656e7420746f6b656e0000000000000000000000000000000000602082015250565b6000614ad2602f83613256565b9150614add82614a76565b604082019050919050565b60006020820190508181036000830152614b0181614ac5565b9050919050565b6000614b1382613306565b915060008203614b2657614b25613ca7565b5b600182039050919050565b7f537472696e67733a20686578206c656e67746820696e73756666696369656e74600082015250565b6000614b67602083613256565b9150614b7282614b31565b602082019050919050565b60006020820190508181036000830152614b9681614b5a565b9050919050565b6000614ba882613306565b91507fffffffffffffffffffffffffffffffffffffffffffffffffffffffffffffffff8203614bda57614bd9613ca7565b5b600182019050919050565b6000614bf082613306565b9150614bfb83613306565b925082614c0b57614c0a613d30565b5b828206905092915050565b7f4e487b7100000000000000000000000000000000000000000000000000000000600052603160045260246000fdfea2646970667358221220a3994b200df01941818f5625c49b0324c906121467c153329d7c2b4696b4845364736f6c634300080e0033a264697066735822122025c0c7f04f6353930718c3df5f6bc45ea84e6efa5329d6402b295c8d941422a664736f6c634300080e0033",
  "linkReferences": {},
  "deployedLinkReferences": {}
}