{
  "_format": "hh-sol-artifact-1",
  "contractName": "Blockrithm721",
  "sourceName": "contracts/Blockrithm721.sol",
  "abi": [
    {
      "inputs": [
        {
          "internalType": "string",
          "name": "name",
          "type": "string"
        },
        {
          "internalType": "string",
          "name": "symbol",
          "type": "string"
        },
        {
          "internalType": "string",
          "name": "_baseTokenURI",
          "type": "string"
        }
      ],
      "stateMutability": "nonpayable",
      "type": "constructor"
    },
    {
      "anonymous": false,
      "inputs": [
        {
          "indexed": true,
          "internalType": "address",
          "name": "owner",
          "type": "address"
        },
        {
          "indexed": true,
          "internalType": "address",
          "name": "approved",
          "type": "address"
        },
        {
          "indexed": true,
          "internalType": "uint256",
          "name": "tokenId",
          "type": "uint256"
        }
      ],
      "name": "Approval",
      "type": "event"
    },
    {
      "anonymous": false,
      "inputs": [
        {
          "indexed": true,
          "internalType": "address",
          "name": "owner",
          "type": "address"
        },
        {
          "indexed": true,
          "internalType": "address",
          "name": "operator",
          "type": "address"
        },
        {
          "indexed": false,
          "internalType": "bool",
          "name": "approved",
          "type": "bool"
        }
      ],
      "name": "ApprovalForAll",
      "type": "event"
    },
    {
      "anonymous": false,
      "inputs": [
        {
          "indexed": true,
          "internalType": "address",
          "name": "previousOwner",
          "type": "address"
        },
        {
          "indexed": true,
          "internalType": "address",
          "name": "newOwner",
          "type": "address"
        }
      ],
      "name": "OwnershipTransferred",
      "type": "event"
    },
    {
      "anonymous": false,
      "inputs": [
        {
          "indexed": false,
          "internalType": "uint256[]",
          "name": "tokenIds",
          "type": "uint256[]"
        }
      ],
      "name": "Pack",
      "type": "event"
    },
    {
      "anonymous": false,
      "inputs": [
        {
          "indexed": false,
          "internalType": "uint256[]",
          "name": "tokenIds",
          "type": "uint256[]"
        }
      ],
      "name": "RemovedFromPack",
      "type": "event"
    },
    {
      "anonymous": false,
      "inputs": [
        {
          "indexed": true,
          "internalType": "bytes32",
          "name": "role",
          "type": "bytes32"
        },
        {
          "indexed": true,
          "internalType": "bytes32",
          "name": "previousAdminRole",
          "type": "bytes32"
        },
        {
          "indexed": true,
          "internalType": "bytes32",
          "name": "newAdminRole",
          "type": "bytes32"
        }
      ],
      "name": "RoleAdminChanged",
      "type": "event"
    },
    {
      "anonymous": false,
      "inputs": [
        {
          "indexed": true,
          "internalType": "bytes32",
          "name": "role",
          "type": "bytes32"
        },
        {
          "indexed": true,
          "internalType": "address",
          "name": "account",
          "type": "address"
        },
        {
          "indexed": true,
          "internalType": "address",
          "name": "sender",
          "type": "address"
        }
      ],
      "name": "RoleGranted",
      "type": "event"
    },
    {
      "anonymous": false,
      "inputs": [
        {
          "indexed": true,
          "internalType": "bytes32",
          "name": "role",
          "type": "bytes32"
        },
        {
          "indexed": true,
          "internalType": "address",
          "name": "account",
          "type": "address"
        },
        {
          "indexed": true,
          "internalType": "address",
          "name": "sender",
          "type": "address"
        }
      ],
      "name": "RoleRevoked",
      "type": "event"
    },
    {
      "anonymous": false,
      "inputs": [
        {
          "indexed": true,
          "internalType": "address",
          "name": "from",
          "type": "address"
        },
        {
          "indexed": true,
          "internalType": "address",
          "name": "to",
          "type": "address"
        },
        {
          "indexed": true,
          "internalType": "uint256",
          "name": "tokenId",
          "type": "uint256"
        }
      ],
      "name": "Transfer",
      "type": "event"
    },
    {
      "inputs": [],
      "name": "ADMIN_ROLE",
      "outputs": [
        {
          "internalType": "bytes32",
          "name": "",
          "type": "bytes32"
        }
      ],
      "stateMutability": "view",
      "type": "function"
    },
    {
      "inputs": [],
      "name": "DEFAULT_ADMIN_ROLE",
      "outputs": [
        {
          "internalType": "bytes32",
          "name": "",
          "type": "bytes32"
        }
      ],
      "stateMutability": "view",
      "type": "function"
    },
    {
      "inputs": [
        {
          "internalType": "address",
          "name": "to",
          "type": "address"
        },
        {
          "internalType": "uint256",
          "name": "tokenId",
          "type": "uint256"
        }
      ],
      "name": "approve",
      "outputs": [],
      "stateMutability": "nonpayable",
      "type": "function"
    },
    {
      "inputs": [
        {
          "internalType": "address",
          "name": "owner",
          "type": "address"
        }
      ],
      "name": "balanceOf",
      "outputs": [
        {
          "internalType": "uint256",
          "name": "",
          "type": "uint256"
        }
      ],
      "stateMutability": "view",
      "type": "function"
    },
    {
      "inputs": [],
      "name": "baseURI",
      "outputs": [
        {
          "internalType": "string",
          "name": "",
          "type": "string"
        }
      ],
      "stateMutability": "view",
      "type": "function"
    },
    {
      "inputs": [
        {
          "internalType": "uint256",
          "name": "tokenId",
          "type": "uint256"
        }
      ],
      "name": "burn",
      "outputs": [],
      "stateMutability": "nonpayable",
      "type": "function"
    },
    {
      "inputs": [
        {
          "internalType": "uint256",
          "name": "tokenId",
          "type": "uint256"
        }
      ],
      "name": "getApproved",
      "outputs": [
        {
          "internalType": "address",
          "name": "",
          "type": "address"
        }
      ],
      "stateMutability": "view",
      "type": "function"
    },
    {
      "inputs": [
        {
          "internalType": "bytes32",
          "name": "role",
          "type": "bytes32"
        }
      ],
      "name": "getRoleAdmin",
      "outputs": [
        {
          "internalType": "bytes32",
          "name": "",
          "type": "bytes32"
        }
      ],
      "stateMutability": "view",
      "type": "function"
    },
    {
      "inputs": [
        {
          "internalType": "bytes32",
          "name": "role",
          "type": "bytes32"
        },
        {
          "internalType": "address",
          "name": "account",
          "type": "address"
        }
      ],
      "name": "grantRole",
      "outputs": [],
      "stateMutability": "nonpayable",
      "type": "function"
    },
    {
      "inputs": [
        {
          "internalType": "bytes32",
          "name": "role",
          "type": "bytes32"
        },
        {
          "internalType": "address",
          "name": "account",
          "type": "address"
        }
      ],
      "name": "hasRole",
      "outputs": [
        {
          "internalType": "bool",
          "name": "",
          "type": "bool"
        }
      ],
      "stateMutability": "view",
      "type": "function"
    },
    {
      "inputs": [
        {
          "internalType": "address",
          "name": "owner",
          "type": "address"
        },
        {
          "internalType": "address",
          "name": "operator",
          "type": "address"
        }
      ],
      "name": "isApprovedForAll",
      "outputs": [
        {
          "internalType": "bool",
          "name": "",
          "type": "bool"
        }
      ],
      "stateMutability": "view",
      "type": "function"
    },
    {
      "inputs": [
        {
          "internalType": "string",
          "name": "_tokenURI",
          "type": "string"
        },
        {
          "internalType": "uint96",
          "name": "_royaltyFee",
          "type": "uint96"
        },
        {
          "components": [
            {
              "internalType": "uint8",
              "name": "v",
              "type": "uint8"
            },
            {
              "internalType": "bytes32",
              "name": "r",
              "type": "bytes32"
            },
            {
              "internalType": "bytes32",
              "name": "s",
              "type": "bytes32"
            },
            {
              "internalType": "uint256",
              "name": "nonce",
              "type": "uint256"
            }
          ],
          "internalType": "struct Blockrithm721.Sign",
          "name": "sign",
          "type": "tuple"
        }
      ],
      "name": "mint",
      "outputs": [
        {
          "internalType": "uint256",
          "name": "_tokenId",
          "type": "uint256"
        }
      ],
      "stateMutability": "nonpayable",
      "type": "function"
    },
    {
      "inputs": [],
      "name": "name",
      "outputs": [
        {
          "internalType": "string",
          "name": "",
          "type": "string"
        }
      ],
      "stateMutability": "view",
      "type": "function"
    },
    {
      "inputs": [],
      "name": "owner",
      "outputs": [
        {
          "internalType": "address",
          "name": "",
          "type": "address"
        }
      ],
      "stateMutability": "view",
      "type": "function"
    },
    {
      "inputs": [
        {
          "internalType": "uint256",
          "name": "tokenId",
          "type": "uint256"
        }
      ],
      "name": "ownerOf",
      "outputs": [
        {
          "internalType": "address",
          "name": "",
          "type": "address"
        }
      ],
      "stateMutability": "view",
      "type": "function"
    },
    {
      "inputs": [
        {
          "internalType": "bytes32",
          "name": "role",
          "type": "bytes32"
        },
        {
          "internalType": "address",
          "name": "account",
          "type": "address"
        }
      ],
      "name": "renounceRole",
      "outputs": [],
      "stateMutability": "nonpayable",
      "type": "function"
    },
    {
      "inputs": [
        {
          "internalType": "bytes32",
          "name": "role",
          "type": "bytes32"
        },
        {
          "internalType": "address",
          "name": "account",
          "type": "address"
        }
      ],
      "name": "revokeRole",
      "outputs": [],
      "stateMutability": "nonpayable",
      "type": "function"
    },
    {
      "inputs": [
        {
          "internalType": "uint256",
          "name": "_tokenId",
          "type": "uint256"
        },
        {
          "internalType": "uint256",
          "name": "_salePrice",
          "type": "uint256"
        }
      ],
      "name": "royaltyInfo",
      "outputs": [
        {
          "internalType": "address",
          "name": "",
          "type": "address"
        },
        {
          "internalType": "uint256",
          "name": "",
          "type": "uint256"
        }
      ],
      "stateMutability": "view",
      "type": "function"
    },
    {
      "inputs": [
        {
          "internalType": "address",
          "name": "from",
          "type": "address"
        },
        {
          "internalType": "address",
          "name": "to",
          "type": "address"
        },
        {
          "internalType": "uint256",
          "name": "tokenId",
          "type": "uint256"
        }
      ],
      "name": "safeTransferFrom",
      "outputs": [],
      "stateMutability": "nonpayable",
      "type": "function"
    },
    {
      "inputs": [
        {
          "internalType": "address",
          "name": "from",
          "type": "address"
        },
        {
          "internalType": "address",
          "name": "to",
          "type": "address"
        },
        {
          "internalType": "uint256",
          "name": "tokenId",
          "type": "uint256"
        },
        {
          "internalType": "bytes",
          "name": "_data",
          "type": "bytes"
        }
      ],
      "name": "safeTransferFrom",
      "outputs": [],
      "stateMutability": "nonpayable",
      "type": "function"
    },
    {
      "inputs": [
        {
          "internalType": "address",
          "name": "operator",
          "type": "address"
        },
        {
          "internalType": "bool",
          "name": "approved",
          "type": "bool"
        }
      ],
      "name": "setApprovalForAll",
      "outputs": [],
      "stateMutability": "nonpayable",
      "type": "function"
    },
    {
      "inputs": [
        {
          "internalType": "string",
          "name": "_baseTokenURI",
          "type": "string"
        }
      ],
      "name": "setBaseURI",
      "outputs": [],
      "stateMutability": "nonpayable",
      "type": "function"
    },
    {
      "inputs": [
        {
          "internalType": "bytes4",
          "name": "interfaceId",
          "type": "bytes4"
        }
      ],
      "name": "supportsInterface",
      "outputs": [
        {
          "internalType": "bool",
          "name": "",
          "type": "bool"
        }
      ],
      "stateMutability": "view",
      "type": "function"
    },
    {
      "inputs": [],
      "name": "symbol",
      "outputs": [
        {
          "internalType": "string",
          "name": "",
          "type": "string"
        }
      ],
      "stateMutability": "view",
      "type": "function"
    },
    {
      "inputs": [
        {
          "internalType": "uint256",
          "name": "index",
          "type": "uint256"
        }
      ],
      "name": "tokenByIndex",
      "outputs": [
        {
          "internalType": "uint256",
          "name": "",
          "type": "uint256"
        }
      ],
      "stateMutability": "view",
      "type": "function"
    },
    {
      "inputs": [
        {
          "internalType": "address",
          "name": "owner",
          "type": "address"
        },
        {
          "internalType": "uint256",
          "name": "index",
          "type": "uint256"
        }
      ],
      "name": "tokenOfOwnerByIndex",
      "outputs": [
        {
          "internalType": "uint256",
          "name": "",
          "type": "uint256"
        }
      ],
      "stateMutability": "view",
      "type": "function"
    },
    {
      "inputs": [
        {
          "internalType": "uint256",
          "name": "tokenId",
          "type": "uint256"
        }
      ],
      "name": "tokenURI",
      "outputs": [
        {
          "internalType": "string",
          "name": "",
          "type": "string"
        }
      ],
      "stateMutability": "view",
      "type": "function"
    },
    {
      "inputs": [],
      "name": "totalSupply",
      "outputs": [
        {
          "internalType": "uint256",
          "name": "",
          "type": "uint256"
        }
      ],
      "stateMutability": "view",
      "type": "function"
    },
    {
      "inputs": [
        {
          "internalType": "address",
          "name": "from",
          "type": "address"
        },
        {
          "internalType": "address",
          "name": "to",
          "type": "address"
        },
        {
          "internalType": "uint256",
          "name": "tokenId",
          "type": "uint256"
        }
      ],
      "name": "transferFrom",
      "outputs": [],
      "stateMutability": "nonpayable",
      "type": "function"
    },
    {
      "inputs": [
        {
          "internalType": "address",
          "name": "newOwner",
          "type": "address"
        }
      ],
      "name": "transferOwnership",
      "outputs": [
        {
          "internalType": "bool",
          "name": "",
          "type": "bool"
        }
      ],
      "stateMutability": "nonpayable",
      "type": "function"
    }
  ],
  "bytecode": "0x60806040523480156200001157600080fd5b506040516200589d3803806200589d833981810160405281019062000037919062000506565b8282816000908051906020019062000051929190620002b9565b5080600190805190602001906200006a929190620002b9565b50505080600e908051906020019062000085929190620002b9565b50620000966200012860201b60201c565b600f60006101000a81548173ffffffffffffffffffffffffffffffffffffffff021916908373ffffffffffffffffffffffffffffffffffffffff160217905550620001087f41444d494e5f524f4c4500000000000000000000000000000000000000000000336200013060201b60201c565b6200011f600d6200014660201b620013cd1760201c565b50505062000623565b600033905090565b6200014282826200015c60201b60201c565b5050565b6001816000016000828254019250508190555050565b6200016e82826200024e60201b60201c565b6200024a576001600c600084815260200190815260200160002060000160008373ffffffffffffffffffffffffffffffffffffffff1673ffffffffffffffffffffffffffffffffffffffff16815260200190815260200160002060006101000a81548160ff021916908315150217905550620001ef6200012860201b60201c565b73ffffffffffffffffffffffffffffffffffffffff168173ffffffffffffffffffffffffffffffffffffffff16837f2f8788117e7eff1d82e926ec794901d17c78024a50270940304540a733656f0d60405160405180910390a45b5050565b6000600c600084815260200190815260200160002060000160008373ffffffffffffffffffffffffffffffffffffffff1673ffffffffffffffffffffffffffffffffffffffff16815260200190815260200160002060009054906101000a900460ff16905092915050565b828054620002c790620005ee565b90600052602060002090601f016020900481019282620002eb576000855562000337565b82601f106200030657805160ff191683800117855562000337565b8280016001018555821562000337579182015b828111156200033657825182559160200191906001019062000319565b5b5090506200034691906200034a565b5090565b5b80821115620003655760008160009055506001016200034b565b5090565b6000604051905090565b600080fd5b600080fd5b600080fd5b600080fd5b6000601f19601f8301169050919050565b7f4e487b7100000000000000000000000000000000000000000000000000000000600052604160045260246000fd5b620003d28262000387565b810181811067ffffffffffffffff82111715620003f457620003f362000398565b5b80604052505050565b60006200040962000369565b9050620004178282620003c7565b919050565b600067ffffffffffffffff8211156200043a576200043962000398565b5b620004458262000387565b9050602081019050919050565b60005b838110156200047257808201518184015260208101905062000455565b8381111562000482576000848401525b50505050565b60006200049f62000499846200041c565b620003fd565b905082815260208101848484011115620004be57620004bd62000382565b5b620004cb84828562000452565b509392505050565b600082601f830112620004eb57620004ea6200037d565b5b8151620004fd84826020860162000488565b91505092915050565b60008060006060848603121562000522576200052162000373565b5b600084015167ffffffffffffffff81111562000543576200054262000378565b5b6200055186828701620004d3565b935050602084015167ffffffffffffffff81111562000575576200057462000378565b5b6200058386828701620004d3565b925050604084015167ffffffffffffffff811115620005a757620005a662000378565b5b620005b586828701620004d3565b9150509250925092565b7f4e487b7100000000000000000000000000000000000000000000000000000000600052602260045260246000fd5b600060028204905060018216806200060757607f821691505b6020821081036200061d576200061c620005bf565b5b50919050565b61526a80620006336000396000f3fe608060405234801561001057600080fd5b50600436106101da5760003560e01c80636352211e1161010457806395d89b41116100a2578063c87b56dd11610071578063c87b56dd1461058e578063d547741f146105be578063e985e9c5146105da578063f2fde38b1461060a576101da565b806395d89b411461051a578063a217fddf14610538578063a22cb46514610556578063b88d4fde14610572576101da565b806375b238fc116100de57806375b238fc1461047e578063831936ef1461049c5780638da5cb5b146104cc57806391d14854146104ea576101da565b80636352211e146104005780636c0360eb1461043057806370a082311461044e576101da565b80632a55205a1161017c57806342842e0e1161014b57806342842e0e1461037c57806342966c68146103985780634f6ccce7146103b457806355f804b3146103e4576101da565b80632a55205a146102e35780632f2ff15d146103145780632f745c591461033057806336568abe14610360576101da565b8063095ea7b3116101b8578063095ea7b31461025d57806318160ddd1461027957806323b872dd14610297578063248a9ca3146102b3576101da565b806301ffc9a7146101df57806306fdde031461020f578063081812fc1461022d575b600080fd5b6101f960048036038101906101f491906133e4565b61063a565b604051610206919061342c565b60405180910390f35b61021761064c565b60405161022491906134e0565b60405180910390f35b61024760048036038101906102429190613538565b6106de565b60405161025491906135a6565b60405180910390f35b610277600480360381019061027291906135ed565b610763565b005b61028161087a565b60405161028e919061363c565b60405180910390f35b6102b160048036038101906102ac9190613657565b610887565b005b6102cd60048036038101906102c891906136e0565b6108e7565b6040516102da919061371c565b60405180910390f35b6102fd60048036038101906102f89190613737565b610907565b60405161030b929190613777565b60405180910390f35b61032e600480360381019061032991906137a0565b610a15565b005b61034a600480360381019061034591906135ed565b610a36565b604051610357919061363c565b60405180910390f35b61037a600480360381019061037591906137a0565b610adb565b005b61039660048036038101906103919190613657565b610b5e565b005b6103b260048036038101906103ad9190613538565b610b7e565b005b6103ce60048036038101906103c99190613538565b610bda565b6040516103db919061363c565b60405180910390f35b6103fe60048036038101906103f99190613915565b610c4b565b005b61041a60048036038101906104159190613538565b610cf5565b60405161042791906135a6565b60405180910390f35b610438610da6565b60405161044591906134e0565b60405180910390f35b6104686004803603810190610463919061395e565b610db5565b604051610475919061363c565b60405180910390f35b610486610e6c565b604051610493919061371c565b60405180910390f35b6104b660048036038101906104b191906139f3565b610e90565b6040516104c3919061363c565b60405180910390f35b6104d4610f8c565b6040516104e191906135a6565b60405180910390f35b61050460048036038101906104ff91906137a0565b610fb2565b604051610511919061342c565b60405180910390f35b61052261101d565b60405161052f91906134e0565b60405180910390f35b6105406110af565b60405161054d919061371c565b60405180910390f35b610570600480360381019061056b9190613a8e565b6110b6565b005b61058c60048036038101906105879190613b6f565b6110cc565b005b6105a860048036038101906105a39190613538565b61112e565b6040516105b591906134e0565b60405180910390f35b6105d860048036038101906105d391906137a0565b611140565b005b6105f460048036038101906105ef9190613bf2565b611161565b604051610601919061342c565b60405180910390f35b610624600480360381019061061f919061395e565b6111f5565b604051610631919061342c565b60405180910390f35b6000610645826113e3565b9050919050565b60606000805461065b90613c61565b80601f016020809104026020016040519081016040528092919081815260200182805461068790613c61565b80156106d45780601f106106a9576101008083540402835291602001916106d4565b820191906000526020600020905b8154815290600101906020018083116106b757829003601f168201915b5050505050905090565b60006106e98261145d565b610728576040517f08c379a000000000000000000000000000000000000000000000000000000000815260040161071f90613d04565b60405180910390fd5b6004600083815260200190815260200160002060009054906101000a900473ffffffffffffffffffffffffffffffffffffffff169050919050565b600061076e82610cf5565b90508073ffffffffffffffffffffffffffffffffffffffff168373ffffffffffffffffffffffffffffffffffffffff16036107de576040517f08c379a00000000000000000000000000000000000000000000000000000000081526004016107d590613d96565b60405180910390fd5b8073ffffffffffffffffffffffffffffffffffffffff166107fd6114c9565b73ffffffffffffffffffffffffffffffffffffffff16148061082c575061082b816108266114c9565b611161565b5b61086b576040517f08c379a000000000000000000000000000000000000000000000000000000000815260040161086290613e28565b60405180910390fd5b61087583836114d1565b505050565b6000600880549050905090565b6108986108926114c9565b8261158a565b6108d7576040517f08c379a00000000000000000000000000000000000000000000000000000000081526004016108ce90613eba565b60405180910390fd5b6108e2838383611668565b505050565b6000600c6000838152602001908152602001600020600101549050919050565b6000806000600b60008681526020019081526020016000206040518060400160405290816000820160009054906101000a900473ffffffffffffffffffffffffffffffffffffffff1673ffffffffffffffffffffffffffffffffffffffff1673ffffffffffffffffffffffffffffffffffffffff1681526020016000820160149054906101000a90046bffffffffffffffffffffffff166bffffffffffffffffffffffff166bffffffffffffffffffffffff1681525050905060006109ca6118ce565b6bffffffffffffffffffffffff1682602001516bffffffffffffffffffffffff16866109f69190613f09565b610a009190613f92565b90508160000151819350935050509250929050565b610a1e826108e7565b610a27816118d8565b610a3183836118ec565b505050565b6000610a4183610db5565b8210610a82576040517f08c379a0000000000000000000000000000000000000000000000000000000008152600401610a7990614035565b60405180910390fd5b600660008473ffffffffffffffffffffffffffffffffffffffff1673ffffffffffffffffffffffffffffffffffffffff168152602001908152602001600020600083815260200190815260200160002054905092915050565b610ae36114c9565b73ffffffffffffffffffffffffffffffffffffffff168173ffffffffffffffffffffffffffffffffffffffff1614610b50576040517f08c379a0000000000000000000000000000000000000000000000000000000008152600401610b47906140c7565b60405180910390fd5b610b5a82826119cd565b5050565b610b79838383604051806020016040528060008152506110cc565b505050565b610b8f610b896114c9565b8261158a565b610bce576040517f08c379a0000000000000000000000000000000000000000000000000000000008152600401610bc590614159565b60405180910390fd5b610bd781611aaf565b50565b6000610be461087a565b8210610c25576040517f08c379a0000000000000000000000000000000000000000000000000000000008152600401610c1c906141eb565b60405180910390fd5b60088281548110610c3957610c3861420b565b5b90600052602060002001549050919050565b3373ffffffffffffffffffffffffffffffffffffffff16600f60009054906101000a900473ffffffffffffffffffffffffffffffffffffffff1673ffffffffffffffffffffffffffffffffffffffff1614610cdb576040517f08c379a0000000000000000000000000000000000000000000000000000000008152600401610cd290614286565b60405180910390fd5b80600e9080519060200190610cf1929190613295565b5050565b6000806002600084815260200190815260200160002060009054906101000a900473ffffffffffffffffffffffffffffffffffffffff169050600073ffffffffffffffffffffffffffffffffffffffff168173ffffffffffffffffffffffffffffffffffffffff1603610d9d576040517f08c379a0000000000000000000000000000000000000000000000000000000008152600401610d9490614318565b60405180910390fd5b80915050919050565b6060610db0611ac4565b905090565b60008073ffffffffffffffffffffffffffffffffffffffff168273ffffffffffffffffffffffffffffffffffffffff1603610e25576040517f08c379a0000000000000000000000000000000000000000000000000000000008152600401610e1c906143aa565b60405180910390fd5b600360008373ffffffffffffffffffffffffffffffffffffffff1673ffffffffffffffffffffffffffffffffffffffff168152602001908152602001600020549050919050565b7fa49807205ce4d355092ef5a8a18f56e8913cf4a201fbe287825b095693c2177581565b6000601060008360600135815260200190815260200160002060009054906101000a900460ff1615610ef7576040517f08c379a0000000000000000000000000000000000000000000000000000000008152600401610eee90614416565b60405180910390fd5b6001601060008460600135815260200190815260200160002060006101000a81548160ff021916908315150217905550610f42843384803603810190610f3d91906144ec565b611b56565b610f4c600d611ca1565b9050610f5f610f596114c9565b82611caf565b610f698185611e88565b610f7b81610f756114c9565b85611efc565b610f85600d6113cd565b9392505050565b600f60009054906101000a900473ffffffffffffffffffffffffffffffffffffffff1681565b6000600c600084815260200190815260200160002060000160008373ffffffffffffffffffffffffffffffffffffffff1673ffffffffffffffffffffffffffffffffffffffff16815260200190815260200160002060009054906101000a900460ff16905092915050565b60606001805461102c90613c61565b80601f016020809104026020016040519081016040528092919081815260200182805461105890613c61565b80156110a55780601f1061107a576101008083540402835291602001916110a5565b820191906000526020600020905b81548152906001019060200180831161108857829003601f168201915b5050505050905090565b6000801b81565b6110c86110c16114c9565b83836120a3565b5050565b6110dd6110d76114c9565b8361158a565b61111c576040517f08c379a000000000000000000000000000000000000000000000000000000000815260040161111390613eba565b60405180910390fd5b6111288484848461220f565b50505050565b60606111398261226b565b9050919050565b611149826108e7565b611152816118d8565b61115c83836119cd565b505050565b6000600560008473ffffffffffffffffffffffffffffffffffffffff1673ffffffffffffffffffffffffffffffffffffffff16815260200190815260200160002060008373ffffffffffffffffffffffffffffffffffffffff1673ffffffffffffffffffffffffffffffffffffffff16815260200190815260200160002060009054906101000a900460ff16905092915050565b60007f41444d494e5f524f4c4500000000000000000000000000000000000000000000611221816118d8565b600073ffffffffffffffffffffffffffffffffffffffff168373ffffffffffffffffffffffffffffffffffffffff1603611290576040517f08c379a00000000000000000000000000000000000000000000000000000000081526004016112879061458b565b60405180910390fd5b6112dc7f41444d494e5f524f4c4500000000000000000000000000000000000000000000600f60009054906101000a900473ffffffffffffffffffffffffffffffffffffffff166119cd565b8273ffffffffffffffffffffffffffffffffffffffff16600f60009054906101000a900473ffffffffffffffffffffffffffffffffffffffff1673ffffffffffffffffffffffffffffffffffffffff167f8be0079c531659141344cd1fd0a4f28419497f9722a3daafe3b4186f6b6457e060405160405180910390a382600f60006101000a81548173ffffffffffffffffffffffffffffffffffffffff021916908373ffffffffffffffffffffffffffffffffffffffff1602179055506113c37f41444d494e5f524f4c4500000000000000000000000000000000000000000000846123bc565b6001915050919050565b6001816000016000828254019250508190555050565b60007f7965db0b000000000000000000000000000000000000000000000000000000007bffffffffffffffffffffffffffffffffffffffffffffffffffffffff1916827bffffffffffffffffffffffffffffffffffffffffffffffffffffffff191614806114565750611455826123ca565b5b9050919050565b60008073ffffffffffffffffffffffffffffffffffffffff166002600084815260200190815260200160002060009054906101000a900473ffffffffffffffffffffffffffffffffffffffff1673ffffffffffffffffffffffffffffffffffffffff1614159050919050565b600033905090565b816004600083815260200190815260200160002060006101000a81548173ffffffffffffffffffffffffffffffffffffffff021916908373ffffffffffffffffffffffffffffffffffffffff160217905550808273ffffffffffffffffffffffffffffffffffffffff1661154483610cf5565b73ffffffffffffffffffffffffffffffffffffffff167f8c5be1e5ebec7d5bd14f71427d1e84f3dd0314c0f7b2291e5b200ac8c7c3b92560405160405180910390a45050565b60006115958261145d565b6115d4576040517f08c379a00000000000000000000000000000000000000000000000000000000081526004016115cb9061461d565b60405180910390fd5b60006115df83610cf5565b90508073ffffffffffffffffffffffffffffffffffffffff168473ffffffffffffffffffffffffffffffffffffffff16148061162157506116208185611161565b5b8061165f57508373ffffffffffffffffffffffffffffffffffffffff16611647846106de565b73ffffffffffffffffffffffffffffffffffffffff16145b91505092915050565b8273ffffffffffffffffffffffffffffffffffffffff1661168882610cf5565b73ffffffffffffffffffffffffffffffffffffffff16146116de576040517f08c379a00000000000000000000000000000000000000000000000000000000081526004016116d5906146af565b60405180910390fd5b600073ffffffffffffffffffffffffffffffffffffffff168273ffffffffffffffffffffffffffffffffffffffff160361174d576040517f08c379a000000000000000000000000000000000000000000000000000000000815260040161174490614741565b60405180910390fd5b611758838383612444565b6117636000826114d1565b6001600360008573ffffffffffffffffffffffffffffffffffffffff1673ffffffffffffffffffffffffffffffffffffffff16815260200190815260200160002060008282546117b39190614761565b925050819055506001600360008473ffffffffffffffffffffffffffffffffffffffff1673ffffffffffffffffffffffffffffffffffffffff168152602001908152602001600020600082825461180a9190614795565b92505081905550816002600083815260200190815260200160002060006101000a81548173ffffffffffffffffffffffffffffffffffffffff021916908373ffffffffffffffffffffffffffffffffffffffff160217905550808273ffffffffffffffffffffffffffffffffffffffff168473ffffffffffffffffffffffffffffffffffffffff167fddf252ad1be2c89b69c2b068fc378daa952ba7f163c4a11628f55a4df523b3ef60405160405180910390a46118c9838383612454565b505050565b60006103e8905090565b6118e9816118e46114c9565b612459565b50565b6118f68282610fb2565b6119c9576001600c600084815260200190815260200160002060000160008373ffffffffffffffffffffffffffffffffffffffff1673ffffffffffffffffffffffffffffffffffffffff16815260200190815260200160002060006101000a81548160ff02191690831515021790555061196e6114c9565b73ffffffffffffffffffffffffffffffffffffffff168173ffffffffffffffffffffffffffffffffffffffff16837f2f8788117e7eff1d82e926ec794901d17c78024a50270940304540a733656f0d60405160405180910390a45b5050565b6119d78282610fb2565b15611aab576000600c600084815260200190815260200160002060000160008373ffffffffffffffffffffffffffffffffffffffff1673ffffffffffffffffffffffffffffffffffffffff16815260200190815260200160002060006101000a81548160ff021916908315150217905550611a506114c9565b73ffffffffffffffffffffffffffffffffffffffff168173ffffffffffffffffffffffffffffffffffffffff16837ff6391f5c32d9c69d2a47ea670b442974b53935d1edc7fd64eb21e047a839171b60405160405180910390a45b5050565b611ab8816124f6565b611ac181612555565b50565b6060600e8054611ad390613c61565b80601f0160208091040260200160405190810160405280929190818152602001828054611aff90613c61565b8015611b4c5780601f10611b2157610100808354040283529160200191611b4c565b820191906000526020600020905b815481529060010190602001808311611b2f57829003601f168201915b5050505050905090565b60003083858460600151604051602001611b7394939291906148f7565b604051602081830303815290604052805190602001209050600181604051602001611b9e91906149ae565b6040516020818303038152906040528051906020012083600001518460200151856040015160405160008152602001604052604051611be094939291906149e3565b6020604051602081039080840390855afa158015611c02573d6000803e3d6000fd5b5050506020604051035173ffffffffffffffffffffffffffffffffffffffff16600f60009054906101000a900473ffffffffffffffffffffffffffffffffffffffff1673ffffffffffffffffffffffffffffffffffffffff1614611c9b576040517f08c379a0000000000000000000000000000000000000000000000000000000008152600401611c9290614a74565b60405180910390fd5b50505050565b600081600001549050919050565b600073ffffffffffffffffffffffffffffffffffffffff168273ffffffffffffffffffffffffffffffffffffffff1603611d1e576040517f08c379a0000000000000000000000000000000000000000000000000000000008152600401611d1590614ae0565b60405180910390fd5b611d278161145d565b15611d67576040517f08c379a0000000000000000000000000000000000000000000000000000000008152600401611d5e90614b4c565b60405180910390fd5b611d7360008383612444565b6001600360008473ffffffffffffffffffffffffffffffffffffffff1673ffffffffffffffffffffffffffffffffffffffff1681526020019081526020016000206000828254611dc39190614795565b92505081905550816002600083815260200190815260200160002060006101000a81548173ffffffffffffffffffffffffffffffffffffffff021916908373ffffffffffffffffffffffffffffffffffffffff160217905550808273ffffffffffffffffffffffffffffffffffffffff16600073ffffffffffffffffffffffffffffffffffffffff167fddf252ad1be2c89b69c2b068fc378daa952ba7f163c4a11628f55a4df523b3ef60405160405180910390a4611e8460008383612454565b5050565b611e918261145d565b611ed0576040517f08c379a0000000000000000000000000000000000000000000000000000000008152600401611ec790614bde565b60405180910390fd5b80600a60008481526020019081526020016000209080519060200190611ef7929190613295565b505050565b611f046118ce565b6bffffffffffffffffffffffff16816bffffffffffffffffffffffff161115611f62576040517f08c379a0000000000000000000000000000000000000000000000000000000008152600401611f5990614c70565b60405180910390fd5b600073ffffffffffffffffffffffffffffffffffffffff168273ffffffffffffffffffffffffffffffffffffffff1603611fd1576040517f08c379a0000000000000000000000000000000000000000000000000000000008152600401611fc890614cdc565b60405180910390fd5b60405180604001604052808373ffffffffffffffffffffffffffffffffffffffff168152602001826bffffffffffffffffffffffff16815250600b600085815260200190815260200160002060008201518160000160006101000a81548173ffffffffffffffffffffffffffffffffffffffff021916908373ffffffffffffffffffffffffffffffffffffffff16021790555060208201518160000160146101000a8154816bffffffffffffffffffffffff02191690836bffffffffffffffffffffffff160217905550905050505050565b8173ffffffffffffffffffffffffffffffffffffffff168373ffffffffffffffffffffffffffffffffffffffff1603612111576040517f08c379a000000000000000000000000000000000000000000000000000000000815260040161210890614d48565b60405180910390fd5b80600560008573ffffffffffffffffffffffffffffffffffffffff1673ffffffffffffffffffffffffffffffffffffffff16815260200190815260200160002060008473ffffffffffffffffffffffffffffffffffffffff1673ffffffffffffffffffffffffffffffffffffffff16815260200190815260200160002060006101000a81548160ff0219169083151502179055508173ffffffffffffffffffffffffffffffffffffffff168373ffffffffffffffffffffffffffffffffffffffff167f17307eab39ab6107e8899845ad3d59bd9653f200f220920489ca2b5937696c3183604051612202919061342c565b60405180910390a3505050565b61221a848484611668565b612226848484846125a8565b612265576040517f08c379a000000000000000000000000000000000000000000000000000000000815260040161225c90614dda565b60405180910390fd5b50505050565b60606122768261145d565b6122b5576040517f08c379a00000000000000000000000000000000000000000000000000000000081526004016122ac90614e6c565b60405180910390fd5b6000600a600084815260200190815260200160002080546122d590613c61565b80601f016020809104026020016040519081016040528092919081815260200182805461230190613c61565b801561234e5780601f106123235761010080835404028352916020019161234e565b820191906000526020600020905b81548152906001019060200180831161233157829003601f168201915b50505050509050600061235f611ac4565b905060008151036123745781925050506123b7565b6000825111156123a9578082604051602001612391929190614e8c565b604051602081830303815290604052925050506123b7565b6123b28461272f565b925050505b919050565b6123c682826118ec565b5050565b60007f2a55205a000000000000000000000000000000000000000000000000000000007bffffffffffffffffffffffffffffffffffffffffffffffffffffffff1916827bffffffffffffffffffffffffffffffffffffffffffffffffffffffff1916148061243d575061243c826127d6565b5b9050919050565b61244f838383612850565b505050565b505050565b6124638282610fb2565b6124f2576124888173ffffffffffffffffffffffffffffffffffffffff166014612962565b6124968360001c6020612962565b6040516020016124a7929190614f48565b6040516020818303038152906040526040517f08c379a00000000000000000000000000000000000000000000000000000000081526004016124e991906134e0565b60405180910390fd5b5050565b600b6000828152602001908152602001600020600080820160006101000a81549073ffffffffffffffffffffffffffffffffffffffff02191690556000820160146101000a8154906bffffffffffffffffffffffff0219169055505050565b61255e81612b9e565b6000600a6000838152602001908152602001600020805461257e90613c61565b9050146125a557600a600082815260200190815260200160002060006125a4919061331b565b5b50565b60006125c98473ffffffffffffffffffffffffffffffffffffffff16612cbb565b15612722578373ffffffffffffffffffffffffffffffffffffffff1663150b7a026125f26114c9565b8786866040518563ffffffff1660e01b81526004016126149493929190614fd7565b6020604051808303816000875af192505050801561265057506040513d601f19601f8201168201806040525081019061264d9190615038565b60015b6126d2573d8060008114612680576040519150601f19603f3d011682016040523d82523d6000602084013e612685565b606091505b5060008151036126ca576040517f08c379a00000000000000000000000000000000000000000000000000000000081526004016126c190614dda565b60405180910390fd5b805181602001fd5b63150b7a0260e01b7bffffffffffffffffffffffffffffffffffffffffffffffffffffffff1916817bffffffffffffffffffffffffffffffffffffffffffffffffffffffff191614915050612727565b600190505b949350505050565b606061273a8261145d565b612779576040517f08c379a0000000000000000000000000000000000000000000000000000000008152600401612770906150d7565b60405180910390fd5b6000612783611ac4565b905060008151116127a357604051806020016040528060008152506127ce565b806127ad84612cde565b6040516020016127be929190614e8c565b6040516020818303038152906040525b915050919050565b60007f780e9d63000000000000000000000000000000000000000000000000000000007bffffffffffffffffffffffffffffffffffffffffffffffffffffffff1916827bffffffffffffffffffffffffffffffffffffffffffffffffffffffff19161480612849575061284882612e3e565b5b9050919050565b61285b838383612f20565b600073ffffffffffffffffffffffffffffffffffffffff168373ffffffffffffffffffffffffffffffffffffffff160361289d5761289881612f25565b6128dc565b8173ffffffffffffffffffffffffffffffffffffffff168373ffffffffffffffffffffffffffffffffffffffff16146128db576128da8382612f6e565b5b5b600073ffffffffffffffffffffffffffffffffffffffff168273ffffffffffffffffffffffffffffffffffffffff160361291e57612919816130db565b61295d565b8273ffffffffffffffffffffffffffffffffffffffff168273ffffffffffffffffffffffffffffffffffffffff161461295c5761295b82826131ac565b5b5b505050565b6060600060028360026129759190613f09565b61297f9190614795565b67ffffffffffffffff811115612998576129976137ea565b5b6040519080825280601f01601f1916602001820160405280156129ca5781602001600182028036833780820191505090505b5090507f300000000000000000000000000000000000000000000000000000000000000081600081518110612a0257612a0161420b565b5b60200101907effffffffffffffffffffffffffffffffffffffffffffffffffffffffffffff1916908160001a9053507f780000000000000000000000000000000000000000000000000000000000000081600181518110612a6657612a6561420b565b5b60200101907effffffffffffffffffffffffffffffffffffffffffffffffffffffffffffff1916908160001a90535060006001846002612aa69190613f09565b612ab09190614795565b90505b6001811115612b50577f3031323334353637383961626364656600000000000000000000000000000000600f861660108110612af257612af161420b565b5b1a60f81b828281518110612b0957612b0861420b565b5b60200101907effffffffffffffffffffffffffffffffffffffffffffffffffffffffffffff1916908160001a905350600485901c945080612b49906150f7565b9050612ab3565b5060008414612b94576040517f08c379a0000000000000000000000000000000000000000000000000000000008152600401612b8b9061516c565b60405180910390fd5b8091505092915050565b6000612ba982610cf5565b9050612bb781600084612444565b612bc26000836114d1565b6001600360008373ffffffffffffffffffffffffffffffffffffffff1673ffffffffffffffffffffffffffffffffffffffff1681526020019081526020016000206000828254612c129190614761565b925050819055506002600083815260200190815260200160002060006101000a81549073ffffffffffffffffffffffffffffffffffffffff021916905581600073ffffffffffffffffffffffffffffffffffffffff168273ffffffffffffffffffffffffffffffffffffffff167fddf252ad1be2c89b69c2b068fc378daa952ba7f163c4a11628f55a4df523b3ef60405160405180910390a4612cb781600084612454565b5050565b6000808273ffffffffffffffffffffffffffffffffffffffff163b119050919050565b606060008203612d25576040518060400160405280600181526020017f30000000000000000000000000000000000000000000000000000000000000008152509050612e39565b600082905060005b60008214612d57578080612d409061518c565b915050600a82612d509190613f92565b9150612d2d565b60008167ffffffffffffffff811115612d7357612d726137ea565b5b6040519080825280601f01601f191660200182016040528015612da55781602001600182028036833780820191505090505b5090505b60008514612e3257600182612dbe9190614761565b9150600a85612dcd91906151d4565b6030612dd99190614795565b60f81b818381518110612def57612dee61420b565b5b60200101907effffffffffffffffffffffffffffffffffffffffffffffffffffffffffffff1916908160001a905350600a85612e2b9190613f92565b9450612da9565b8093505050505b919050565b60007f80ac58cd000000000000000000000000000000000000000000000000000000007bffffffffffffffffffffffffffffffffffffffffffffffffffffffff1916827bffffffffffffffffffffffffffffffffffffffffffffffffffffffff19161480612f0957507f5b5e139f000000000000000000000000000000000000000000000000000000007bffffffffffffffffffffffffffffffffffffffffffffffffffffffff1916827bffffffffffffffffffffffffffffffffffffffffffffffffffffffff1916145b80612f195750612f188261322b565b5b9050919050565b505050565b6008805490506009600083815260200190815260200160002081905550600881908060018154018082558091505060019003906000526020600020016000909190919091505550565b60006001612f7b84610db5565b612f859190614761565b905060006007600084815260200190815260200160002054905081811461306a576000600660008673ffffffffffffffffffffffffffffffffffffffff1673ffffffffffffffffffffffffffffffffffffffff168152602001908152602001600020600084815260200190815260200160002054905080600660008773ffffffffffffffffffffffffffffffffffffffff1673ffffffffffffffffffffffffffffffffffffffff168152602001908152602001600020600084815260200190815260200160002081905550816007600083815260200190815260200160002081905550505b6007600084815260200190815260200160002060009055600660008573ffffffffffffffffffffffffffffffffffffffff1673ffffffffffffffffffffffffffffffffffffffff16815260200190815260200160002060008381526020019081526020016000206000905550505050565b600060016008805490506130ef9190614761565b905060006009600084815260200190815260200160002054905060006008838154811061311f5761311e61420b565b5b9060005260206000200154905080600883815481106131415761314061420b565b5b9060005260206000200181905550816009600083815260200190815260200160002081905550600960008581526020019081526020016000206000905560088054806131905761318f615205565b5b6001900381819060005260206000200160009055905550505050565b60006131b783610db5565b905081600660008573ffffffffffffffffffffffffffffffffffffffff1673ffffffffffffffffffffffffffffffffffffffff168152602001908152602001600020600083815260200190815260200160002081905550806007600084815260200190815260200160002081905550505050565b60007f01ffc9a7000000000000000000000000000000000000000000000000000000007bffffffffffffffffffffffffffffffffffffffffffffffffffffffff1916827bffffffffffffffffffffffffffffffffffffffffffffffffffffffff1916149050919050565b8280546132a190613c61565b90600052602060002090601f0160209004810192826132c3576000855561330a565b82601f106132dc57805160ff191683800117855561330a565b8280016001018555821561330a579182015b828111156133095782518255916020019190600101906132ee565b5b509050613317919061335b565b5090565b50805461332790613c61565b6000825580601f106133395750613358565b601f016020900490600052602060002090810190613357919061335b565b5b50565b5b8082111561337457600081600090555060010161335c565b5090565b6000604051905090565b600080fd5b600080fd5b60007fffffffff0000000000000000000000000000000000000000000000000000000082169050919050565b6133c18161338c565b81146133cc57600080fd5b50565b6000813590506133de816133b8565b92915050565b6000602082840312156133fa576133f9613382565b5b6000613408848285016133cf565b91505092915050565b60008115159050919050565b61342681613411565b82525050565b6000602082019050613441600083018461341d565b92915050565b600081519050919050565b600082825260208201905092915050565b60005b83811015613481578082015181840152602081019050613466565b83811115613490576000848401525b50505050565b6000601f19601f8301169050919050565b60006134b282613447565b6134bc8185613452565b93506134cc818560208601613463565b6134d581613496565b840191505092915050565b600060208201905081810360008301526134fa81846134a7565b905092915050565b6000819050919050565b61351581613502565b811461352057600080fd5b50565b6000813590506135328161350c565b92915050565b60006020828403121561354e5761354d613382565b5b600061355c84828501613523565b91505092915050565b600073ffffffffffffffffffffffffffffffffffffffff82169050919050565b600061359082613565565b9050919050565b6135a081613585565b82525050565b60006020820190506135bb6000830184613597565b92915050565b6135ca81613585565b81146135d557600080fd5b50565b6000813590506135e7816135c1565b92915050565b6000806040838503121561360457613603613382565b5b6000613612858286016135d8565b925050602061362385828601613523565b9150509250929050565b61363681613502565b82525050565b6000602082019050613651600083018461362d565b92915050565b6000806000606084860312156136705761366f613382565b5b600061367e868287016135d8565b935050602061368f868287016135d8565b92505060406136a086828701613523565b9150509250925092565b6000819050919050565b6136bd816136aa565b81146136c857600080fd5b50565b6000813590506136da816136b4565b92915050565b6000602082840312156136f6576136f5613382565b5b6000613704848285016136cb565b91505092915050565b613716816136aa565b82525050565b6000602082019050613731600083018461370d565b92915050565b6000806040838503121561374e5761374d613382565b5b600061375c85828601613523565b925050602061376d85828601613523565b9150509250929050565b600060408201905061378c6000830185613597565b613799602083018461362d565b9392505050565b600080604083850312156137b7576137b6613382565b5b60006137c5858286016136cb565b92505060206137d6858286016135d8565b9150509250929050565b600080fd5b600080fd5b7f4e487b7100000000000000000000000000000000000000000000000000000000600052604160045260246000fd5b61382282613496565b810181811067ffffffffffffffff82111715613841576138406137ea565b5b80604052505050565b6000613854613378565b90506138608282613819565b919050565b600067ffffffffffffffff8211156138805761387f6137ea565b5b61388982613496565b9050602081019050919050565b82818337600083830152505050565b60006138b86138b384613865565b61384a565b9050828152602081018484840111156138d4576138d36137e5565b5b6138df848285613896565b509392505050565b600082601f8301126138fc576138fb6137e0565b5b813561390c8482602086016138a5565b91505092915050565b60006020828403121561392b5761392a613382565b5b600082013567ffffffffffffffff81111561394957613948613387565b5b613955848285016138e7565b91505092915050565b60006020828403121561397457613973613382565b5b6000613982848285016135d8565b91505092915050565b60006bffffffffffffffffffffffff82169050919050565b6139ac8161398b565b81146139b757600080fd5b50565b6000813590506139c9816139a3565b92915050565b600080fd5b6000608082840312156139ea576139e96139cf565b5b81905092915050565b600080600060c08486031215613a0c57613a0b613382565b5b600084013567ffffffffffffffff811115613a2a57613a29613387565b5b613a36868287016138e7565b9350506020613a47868287016139ba565b9250506040613a58868287016139d4565b9150509250925092565b613a6b81613411565b8114613a7657600080fd5b50565b600081359050613a8881613a62565b92915050565b60008060408385031215613aa557613aa4613382565b5b6000613ab3858286016135d8565b9250506020613ac485828601613a79565b9150509250929050565b600067ffffffffffffffff821115613ae957613ae86137ea565b5b613af282613496565b9050602081019050919050565b6000613b12613b0d84613ace565b61384a565b905082815260208101848484011115613b2e57613b2d6137e5565b5b613b39848285613896565b509392505050565b600082601f830112613b5657613b556137e0565b5b8135613b66848260208601613aff565b91505092915050565b60008060008060808587031215613b8957613b88613382565b5b6000613b97878288016135d8565b9450506020613ba8878288016135d8565b9350506040613bb987828801613523565b925050606085013567ffffffffffffffff811115613bda57613bd9613387565b5b613be687828801613b41565b91505092959194509250565b60008060408385031215613c0957613c08613382565b5b6000613c17858286016135d8565b9250506020613c28858286016135d8565b9150509250929050565b7f4e487b7100000000000000000000000000000000000000000000000000000000600052602260045260246000fd5b60006002820490506001821680613c7957607f821691505b602082108103613c8c57613c8b613c32565b5b50919050565b7f4552433732313a20617070726f76656420717565727920666f72206e6f6e657860008201527f697374656e7420746f6b656e0000000000000000000000000000000000000000602082015250565b6000613cee602c83613452565b9150613cf982613c92565b604082019050919050565b60006020820190508181036000830152613d1d81613ce1565b9050919050565b7f4552433732313a20617070726f76616c20746f2063757272656e74206f776e6560008201527f7200000000000000000000000000000000000000000000000000000000000000602082015250565b6000613d80602183613452565b9150613d8b82613d24565b604082019050919050565b60006020820190508181036000830152613daf81613d73565b9050919050565b7f4552433732313a20617070726f76652063616c6c6572206973206e6f74206f7760008201527f6e6572206e6f7220617070726f76656420666f7220616c6c0000000000000000602082015250565b6000613e12603883613452565b9150613e1d82613db6565b604082019050919050565b60006020820190508181036000830152613e4181613e05565b9050919050565b7f4552433732313a207472616e736665722063616c6c6572206973206e6f74206f60008201527f776e6572206e6f7220617070726f766564000000000000000000000000000000602082015250565b6000613ea4603183613452565b9150613eaf82613e48565b604082019050919050565b60006020820190508181036000830152613ed381613e97565b9050919050565b7f4e487b7100000000000000000000000000000000000000000000000000000000600052601160045260246000fd5b6000613f1482613502565b9150613f1f83613502565b9250817fffffffffffffffffffffffffffffffffffffffffffffffffffffffffffffffff0483118215151615613f5857613f57613eda565b5b828202905092915050565b7f4e487b7100000000000000000000000000000000000000000000000000000000600052601260045260246000fd5b6000613f9d82613502565b9150613fa883613502565b925082613fb857613fb7613f63565b5b828204905092915050565b7f455243373231456e756d657261626c653a206f776e657220696e646578206f7560008201527f74206f6620626f756e6473000000000000000000000000000000000000000000602082015250565b600061401f602b83613452565b915061402a82613fc3565b604082019050919050565b6000602082019050818103600083015261404e81614012565b9050919050565b7f416363657373436f6e74726f6c3a2063616e206f6e6c792072656e6f756e636560008201527f20726f6c657320666f722073656c660000000000000000000000000000000000602082015250565b60006140b1602f83613452565b91506140bc82614055565b604082019050919050565b600060208201905081810360008301526140e0816140a4565b9050919050565b7f4552433732314275726e61626c653a2063616c6c6572206973206e6f74206f7760008201527f6e6572206e6f7220617070726f76656400000000000000000000000000000000602082015250565b6000614143603083613452565b915061414e826140e7565b604082019050919050565b6000602082019050818103600083015261417281614136565b9050919050565b7f455243373231456e756d657261626c653a20676c6f62616c20696e646578206f60008201527f7574206f6620626f756e64730000000000000000000000000000000000000000602082015250565b60006141d5602c83613452565b91506141e082614179565b604082019050919050565b60006020820190508181036000830152614204816141c8565b9050919050565b7f4e487b7100000000000000000000000000000000000000000000000000000000600052603260045260246000fd5b7f4f776e61626c653a2063616c6c6572206973206e6f7420746865206f776e6572600082015250565b6000614270602083613452565b915061427b8261423a565b602082019050919050565b6000602082019050818103600083015261429f81614263565b9050919050565b7f4552433732313a206f776e657220717565727920666f72206e6f6e657869737460008201527f656e7420746f6b656e0000000000000000000000000000000000000000000000602082015250565b6000614302602983613452565b915061430d826142a6565b604082019050919050565b60006020820190508181036000830152614331816142f5565b9050919050565b7f4552433732313a2062616c616e636520717565727920666f7220746865207a6560008201527f726f206164647265737300000000000000000000000000000000000000000000602082015250565b6000614394602a83613452565b915061439f82614338565b604082019050919050565b600060208201905081810360008301526143c381614387565b9050919050565b7f4e6f6e6365203a20496e76616c6964204e6f6e63650000000000000000000000600082015250565b6000614400601583613452565b915061440b826143ca565b602082019050919050565b6000602082019050818103600083015261442f816143f3565b9050919050565b600080fd5b600060ff82169050919050565b6144518161443b565b811461445c57600080fd5b50565b60008135905061446e81614448565b92915050565b60006080828403121561448a57614489614436565b5b614494608061384a565b905060006144a48482850161445f565b60008301525060206144b8848285016136cb565b60208301525060406144cc848285016136cb565b60408301525060606144e084828501613523565b60608301525092915050565b60006080828403121561450257614501613382565b5b600061451084828501614474565b91505092915050565b7f4f776e61626c653a206e6577206f776e657220697320746865207a65726f206160008201527f6464726573730000000000000000000000000000000000000000000000000000602082015250565b6000614575602683613452565b915061458082614519565b604082019050919050565b600060208201905081810360008301526145a481614568565b9050919050565b7f4552433732313a206f70657261746f7220717565727920666f72206e6f6e657860008201527f697374656e7420746f6b656e0000000000000000000000000000000000000000602082015250565b6000614607602c83613452565b9150614612826145ab565b604082019050919050565b60006020820190508181036000830152614636816145fa565b9050919050565b7f4552433732313a207472616e736665722066726f6d20696e636f72726563742060008201527f6f776e6572000000000000000000000000000000000000000000000000000000602082015250565b6000614699602583613452565b91506146a48261463d565b604082019050919050565b600060208201905081810360008301526146c88161468c565b9050919050565b7f4552433732313a207472616e7366657220746f20746865207a65726f2061646460008201527f7265737300000000000000000000000000000000000000000000000000000000602082015250565b600061472b602483613452565b9150614736826146cf565b604082019050919050565b6000602082019050818103600083015261475a8161471e565b9050919050565b600061476c82613502565b915061477783613502565b92508282101561478a57614789613eda565b5b828203905092915050565b60006147a082613502565b91506147ab83613502565b9250827fffffffffffffffffffffffffffffffffffffffffffffffffffffffffffffffff038211156147e0576147df613eda565b5b828201905092915050565b6000819050919050565b600061481061480b61480684613565565b6147eb565b613565565b9050919050565b6000614822826147f5565b9050919050565b600061483482614817565b9050919050565b60008160601b9050919050565b60006148538261483b565b9050919050565b600061486582614848565b9050919050565b61487d61487882614829565b61485a565b82525050565b61489461488f82613585565b61485a565b82525050565b600081905092915050565b60006148b082613447565b6148ba818561489a565b93506148ca818560208601613463565b80840191505092915050565b6000819050919050565b6148f16148ec82613502565b6148d6565b82525050565b6000614903828761486c565b6014820191506149138286614883565b60148201915061492382856148a5565b915061492f82846148e0565b60208201915081905095945050505050565b7f19457468657265756d205369676e6564204d6573736167653a0a333200000000600082015250565b6000614977601c8361489a565b915061498282614941565b601c82019050919050565b6000819050919050565b6149a86149a3826136aa565b61498d565b82525050565b60006149b98261496a565b91506149c58284614997565b60208201915081905092915050565b6149dd8161443b565b82525050565b60006080820190506149f8600083018761370d565b614a0560208301866149d4565b614a12604083018561370d565b614a1f606083018461370d565b95945050505050565b7f4f776e6572207369676e20766572696669636174696f6e206661696c65640000600082015250565b6000614a5e601e83613452565b9150614a6982614a28565b602082019050919050565b60006020820190508181036000830152614a8d81614a51565b9050919050565b7f4552433732313a206d696e7420746f20746865207a65726f2061646472657373600082015250565b6000614aca602083613452565b9150614ad582614a94565b602082019050919050565b60006020820190508181036000830152614af981614abd565b9050919050565b7f4552433732313a20746f6b656e20616c7265616479206d696e74656400000000600082015250565b6000614b36601c83613452565b9150614b4182614b00565b602082019050919050565b60006020820190508181036000830152614b6581614b29565b9050919050565b7f45524337323155524953746f726167653a2055524920736574206f66206e6f6e60008201527f6578697374656e7420746f6b656e000000000000000000000000000000000000602082015250565b6000614bc8602e83613452565b9150614bd382614b6c565b604082019050919050565b60006020820190508181036000830152614bf781614bbb565b9050919050565b7f455243323938313a20726f79616c7479206665652077696c6c2065786365656460008201527f2073616c65507269636500000000000000000000000000000000000000000000602082015250565b6000614c5a602a83613452565b9150614c6582614bfe565b604082019050919050565b60006020820190508181036000830152614c8981614c4d565b9050919050565b7f455243323938313a20496e76616c696420706172616d65746572730000000000600082015250565b6000614cc6601b83613452565b9150614cd182614c90565b602082019050919050565b60006020820190508181036000830152614cf581614cb9565b9050919050565b7f4552433732313a20617070726f766520746f2063616c6c657200000000000000600082015250565b6000614d32601983613452565b9150614d3d82614cfc565b602082019050919050565b60006020820190508181036000830152614d6181614d25565b9050919050565b7f4552433732313a207472616e7366657220746f206e6f6e20455243373231526560008201527f63656976657220696d706c656d656e7465720000000000000000000000000000602082015250565b6000614dc4603283613452565b9150614dcf82614d68565b604082019050919050565b60006020820190508181036000830152614df381614db7565b9050919050565b7f45524337323155524953746f726167653a2055524920717565727920666f722060008201527f6e6f6e6578697374656e7420746f6b656e000000000000000000000000000000602082015250565b6000614e56603183613452565b9150614e6182614dfa565b604082019050919050565b60006020820190508181036000830152614e8581614e49565b9050919050565b6000614e9882856148a5565b9150614ea482846148a5565b91508190509392505050565b7f416363657373436f6e74726f6c3a206163636f756e7420000000000000000000600082015250565b6000614ee660178361489a565b9150614ef182614eb0565b601782019050919050565b7f206973206d697373696e6720726f6c6520000000000000000000000000000000600082015250565b6000614f3260118361489a565b9150614f3d82614efc565b601182019050919050565b6000614f5382614ed9565b9150614f5f82856148a5565b9150614f6a82614f25565b9150614f7682846148a5565b91508190509392505050565b600081519050919050565b600082825260208201905092915050565b6000614fa982614f82565b614fb38185614f8d565b9350614fc3818560208601613463565b614fcc81613496565b840191505092915050565b6000608082019050614fec6000830187613597565b614ff96020830186613597565b615006604083018561362d565b81810360608301526150188184614f9e565b905095945050505050565b600081519050615032816133b8565b92915050565b60006020828403121561504e5761504d613382565b5b600061505c84828501615023565b91505092915050565b7f4552433732314d657461646174613a2055524920717565727920666f72206e6f60008201527f6e6578697374656e7420746f6b656e0000000000000000000000000000000000602082015250565b60006150c1602f83613452565b91506150cc82615065565b604082019050919050565b600060208201905081810360008301526150f0816150b4565b9050919050565b600061510282613502565b91506000820361511557615114613eda565b5b600182039050919050565b7f537472696e67733a20686578206c656e67746820696e73756666696369656e74600082015250565b6000615156602083613452565b915061516182615120565b602082019050919050565b6000602082019050818103600083015261518581615149565b9050919050565b600061519782613502565b91507fffffffffffffffffffffffffffffffffffffffffffffffffffffffffffffffff82036151c9576151c8613eda565b5b600182019050919050565b60006151df82613502565b91506151ea83613502565b9250826151fa576151f9613f63565b5b828206905092915050565b7f4e487b7100000000000000000000000000000000000000000000000000000000600052603160045260246000fdfea264697066735822122062a7cb852772f28b41513c70ad26848dcaceeab1bf8401f89aea7604e02ca2ac64736f6c634300080e0033",
  "linkReferences": {},
  "deployedLinkReferences": {}
}