{
  "_format": "hh-sol-artifact-1",
  "contractName": "TransferProxy",
  "sourceName": "contracts/TransferProxy.sol",
  "abi": [
    {
      "inputs": [],
      "stateMutability": "nonpayable",
      "type": "constructor"
    },
    {
      "anonymous": false,
      "inputs": [
        {
          "indexed": true,
          "internalType": "address",
          "name": "previousOwner",
          "type": "address"
        },
        {
          "indexed": true,
          "internalType": "address",
          "name": "newOwner",
          "type": "address"
        }
      ],
      "name": "OwnershipTransferred",
      "type": "event"
    },
    {
      "anonymous": false,
      "inputs": [
        {
          "indexed": true,
          "internalType": "bytes32",
          "name": "role",
          "type": "bytes32"
        },
        {
          "indexed": true,
          "internalType": "bytes32",
          "name": "previousAdminRole",
          "type": "bytes32"
        },
        {
          "indexed": true,
          "internalType": "bytes32",
          "name": "newAdminRole",
          "type": "bytes32"
        }
      ],
      "name": "RoleAdminChanged",
      "type": "event"
    },
    {
      "anonymous": false,
      "inputs": [
        {
          "indexed": true,
          "internalType": "bytes32",
          "name": "role",
          "type": "bytes32"
        },
        {
          "indexed": true,
          "internalType": "address",
          "name": "account",
          "type": "address"
        },
        {
          "indexed": true,
          "internalType": "address",
          "name": "sender",
          "type": "address"
        }
      ],
      "name": "RoleGranted",
      "type": "event"
    },
    {
      "anonymous": false,
      "inputs": [
        {
          "indexed": true,
          "internalType": "bytes32",
          "name": "role",
          "type": "bytes32"
        },
        {
          "indexed": true,
          "internalType": "address",
          "name": "account",
          "type": "address"
        },
        {
          "indexed": true,
          "internalType": "address",
          "name": "sender",
          "type": "address"
        }
      ],
      "name": "RoleRevoked",
      "type": "event"
    },
    {
      "anonymous": false,
      "inputs": [
        {
          "indexed": true,
          "internalType": "address",
          "name": "from",
          "type": "address"
        },
        {
          "indexed": true,
          "internalType": "address",
          "name": "to",
          "type": "address"
        }
      ],
      "name": "operatorChanged",
      "type": "event"
    },
    {
      "inputs": [],
      "name": "ADMIN_ROLE",
      "outputs": [
        {
          "internalType": "bytes32",
          "name": "",
          "type": "bytes32"
        }
      ],
      "stateMutability": "view",
      "type": "function"
    },
    {
      "inputs": [],
      "name": "DEFAULT_ADMIN_ROLE",
      "outputs": [
        {
          "internalType": "bytes32",
          "name": "",
          "type": "bytes32"
        }
      ],
      "stateMutability": "view",
      "type": "function"
    },
    {
      "inputs": [],
      "name": "OPERATOR_ROLE",
      "outputs": [
        {
          "internalType": "bytes32",
          "name": "",
          "type": "bytes32"
        }
      ],
      "stateMutability": "view",
      "type": "function"
    },
    {
      "inputs": [
        {
          "internalType": "address",
          "name": "_operator",
          "type": "address"
        }
      ],
      "name": "changeOperator",
      "outputs": [
        {
          "internalType": "bool",
          "name": "",
          "type": "bool"
        }
      ],
      "stateMutability": "nonpayable",
      "type": "function"
    },
    {
      "inputs": [
        {
          "internalType": "contract IERC1155",
          "name": "token",
          "type": "address"
        },
        {
          "internalType": "address",
          "name": "from",
          "type": "address"
        },
        {
          "internalType": "address",
          "name": "to",
          "type": "address"
        },
        {
          "internalType": "uint256",
          "name": "tokenId",
          "type": "uint256"
        },
        {
          "internalType": "uint256",
          "name": "value",
          "type": "uint256"
        },
        {
          "internalType": "bytes",
          "name": "data",
          "type": "bytes"
        }
      ],
      "name": "erc1155safeTransferFrom",
      "outputs": [],
      "stateMutability": "nonpayable",
      "type": "function"
    },
    {
      "inputs": [
        {
          "internalType": "contract IERC20",
          "name": "token",
          "type": "address"
        },
        {
          "internalType": "address",
          "name": "from",
          "type": "address"
        },
        {
          "internalType": "address",
          "name": "to",
          "type": "address"
        },
        {
          "internalType": "uint256",
          "name": "value",
          "type": "uint256"
        }
      ],
      "name": "erc20safeTransferFrom",
      "outputs": [],
      "stateMutability": "nonpayable",
      "type": "function"
    },
    {
      "inputs": [
        {
          "internalType": "contract IERC721",
          "name": "token",
          "type": "address"
        },
        {
          "internalType": "address",
          "name": "from",
          "type": "address"
        },
        {
          "internalType": "address",
          "name": "to",
          "type": "address"
        },
        {
          "internalType": "uint256",
          "name": "tokenId",
          "type": "uint256"
        }
      ],
      "name": "erc721safeTransferFrom",
      "outputs": [],
      "stateMutability": "nonpayable",
      "type": "function"
    },
    {
      "inputs": [
        {
          "internalType": "bytes32",
          "name": "role",
          "type": "bytes32"
        }
      ],
      "name": "getRoleAdmin",
      "outputs": [
        {
          "internalType": "bytes32",
          "name": "",
          "type": "bytes32"
        }
      ],
      "stateMutability": "view",
      "type": "function"
    },
    {
      "inputs": [
        {
          "internalType": "bytes32",
          "name": "role",
          "type": "bytes32"
        },
        {
          "internalType": "address",
          "name": "account",
          "type": "address"
        }
      ],
      "name": "grantRole",
      "outputs": [],
      "stateMutability": "nonpayable",
      "type": "function"
    },
    {
      "inputs": [
        {
          "internalType": "bytes32",
          "name": "role",
          "type": "bytes32"
        },
        {
          "internalType": "address",
          "name": "account",
          "type": "address"
        }
      ],
      "name": "hasRole",
      "outputs": [
        {
          "internalType": "bool",
          "name": "",
          "type": "bool"
        }
      ],
      "stateMutability": "view",
      "type": "function"
    },
    {
      "inputs": [],
      "name": "operator",
      "outputs": [
        {
          "internalType": "address",
          "name": "",
          "type": "address"
        }
      ],
      "stateMutability": "view",
      "type": "function"
    },
    {
      "inputs": [],
      "name": "owner",
      "outputs": [
        {
          "internalType": "address",
          "name": "",
          "type": "address"
        }
      ],
      "stateMutability": "view",
      "type": "function"
    },
    {
      "inputs": [
        {
          "internalType": "bytes32",
          "name": "role",
          "type": "bytes32"
        },
        {
          "internalType": "address",
          "name": "account",
          "type": "address"
        }
      ],
      "name": "renounceRole",
      "outputs": [],
      "stateMutability": "nonpayable",
      "type": "function"
    },
    {
      "inputs": [
        {
          "internalType": "bytes32",
          "name": "role",
          "type": "bytes32"
        },
        {
          "internalType": "address",
          "name": "account",
          "type": "address"
        }
      ],
      "name": "revokeRole",
      "outputs": [],
      "stateMutability": "nonpayable",
      "type": "function"
    },
    {
      "inputs": [
        {
          "internalType": "bytes4",
          "name": "interfaceId",
          "type": "bytes4"
        }
      ],
      "name": "supportsInterface",
      "outputs": [
        {
          "internalType": "bool",
          "name": "",
          "type": "bool"
        }
      ],
      "stateMutability": "view",
      "type": "function"
    },
    {
      "inputs": [
        {
          "internalType": "address",
          "name": "newOwner",
          "type": "address"
        }
      ],
      "name": "transferOwnership",
      "outputs": [
        {
          "internalType": "bool",
          "name": "",
          "type": "bool"
        }
      ],
      "stateMutability": "nonpayable",
      "type": "function"
    }
  ],
  "bytecode": "0x60806040523480156200001157600080fd5b5033600160006101000a81548173ffffffffffffffffffffffffffffffffffffffff021916908373ffffffffffffffffffffffffffffffffffffffff160217905550620000857f41444d494e5f524f4c450000000000000000000000000000000000000000000033620000df60201b60201c565b620000d97f4f50455241544f525f524f4c4500000000000000000000000000000000000000600260009054906101000a900473ffffffffffffffffffffffffffffffffffffffff16620000df60201b60201c565b62000258565b620000f18282620000f560201b60201c565b5050565b620001078282620001e660201b60201c565b620001e257600160008084815260200190815260200160002060000160008373ffffffffffffffffffffffffffffffffffffffff1673ffffffffffffffffffffffffffffffffffffffff16815260200190815260200160002060006101000a81548160ff021916908315150217905550620001876200025060201b60201c565b73ffffffffffffffffffffffffffffffffffffffff168173ffffffffffffffffffffffffffffffffffffffff16837f2f8788117e7eff1d82e926ec794901d17c78024a50270940304540a733656f0d60405160405180910390a45b5050565b600080600084815260200190815260200160002060000160008373ffffffffffffffffffffffffffffffffffffffff1673ffffffffffffffffffffffffffffffffffffffff16815260200190815260200160002060009054906101000a900460ff16905092915050565b600033905090565b611d2480620002686000396000f3fe608060405234801561001057600080fd5b50600436106101005760003560e01c80638da5cb5b11610097578063d547741f11610066578063d547741f146102ad578063f2fde38b146102c9578063f5b541a6146102f9578063f709b9061461031757610100565b80638da5cb5b1461022557806391d14854146102435780639c1c2ee914610273578063a217fddf1461028f57610100565b806336568abe116100d357806336568abe146101b1578063570ca735146101cd57806375b238fc146101eb578063776062c31461020957610100565b806301ffc9a71461010557806306394c9b14610135578063248a9ca3146101655780632f2ff15d14610195575b600080fd5b61011f600480360381019061011a9190611132565b610333565b60405161012c919061117a565b60405180910390f35b61014f600480360381019061014a91906111f3565b6103ad565b60405161015c919061117a565b60405180910390f35b61017f600480360381019061017a9190611256565b6105a8565b60405161018c9190611292565b60405180910390f35b6101af60048036038101906101aa91906112ad565b6105c7565b005b6101cb60048036038101906101c691906112ad565b6105e8565b005b6101d561066b565b6040516101e291906112fc565b60405180910390f35b6101f3610691565b6040516102009190611292565b60405180910390f35b610223600480360381019061021e919061138b565b6106b5565b005b61022d6107a5565b60405161023a91906112fc565b60405180910390f35b61025d600480360381019061025891906112ad565b6107cb565b60405161026a919061117a565b60405180910390f35b61028d60048036038101906102889190611495565b610835565b005b6102976108de565b6040516102a49190611292565b60405180910390f35b6102c760048036038101906102c291906112ad565b6108e5565b005b6102e360048036038101906102de91906111f3565b610906565b6040516102f0919061117a565b60405180910390f35b610301610ade565b60405161030e9190611292565b60405180910390f35b610331600480360381019061032c9190611582565b610b02565b005b60007f7965db0b000000000000000000000000000000000000000000000000000000007bffffffffffffffffffffffffffffffffffffffffffffffffffffffff1916827bffffffffffffffffffffffffffffffffffffffffffffffffffffffff191614806103a657506103a582610ba2565b5b9050919050565b60007f41444d494e5f524f4c45000000000000000000000000000000000000000000006103d981610c0c565b600073ffffffffffffffffffffffffffffffffffffffff168373ffffffffffffffffffffffffffffffffffffffff1603610448576040517f08c379a000000000000000000000000000000000000000000000000000000000815260040161043f9061166c565b60405180910390fd5b6104947f41444d494e5f524f4c4500000000000000000000000000000000000000000000600260009054906101000a900473ffffffffffffffffffffffffffffffffffffffff16610c20565b82600260006101000a81548173ffffffffffffffffffffffffffffffffffffffff021916908373ffffffffffffffffffffffffffffffffffffffff1602179055506105217f4f50455241544f525f524f4c4500000000000000000000000000000000000000600260009054906101000a900473ffffffffffffffffffffffffffffffffffffffff16610d01565b600260009054906101000a900473ffffffffffffffffffffffffffffffffffffffff1673ffffffffffffffffffffffffffffffffffffffff16600073ffffffffffffffffffffffffffffffffffffffff167f1a377613c0f1788c756a416e15f930cf9e84c3a5e808fa2f00b5a18a91a7b86460405160405180910390a36001915050919050565b6000806000838152602001908152602001600020600101549050919050565b6105d0826105a8565b6105d981610c0c565b6105e38383610d0f565b505050565b6105f0610def565b73ffffffffffffffffffffffffffffffffffffffff168173ffffffffffffffffffffffffffffffffffffffff161461065d576040517f08c379a0000000000000000000000000000000000000000000000000000000008152600401610654906116fe565b60405180910390fd5b6106678282610c20565b5050565b600260009054906101000a900473ffffffffffffffffffffffffffffffffffffffff1681565b7fa49807205ce4d355092ef5a8a18f56e8913cf4a201fbe287825b095693c2177581565b7f4f50455241544f525f524f4c45000000000000000000000000000000000000006106df81610c0c565b8473ffffffffffffffffffffffffffffffffffffffff166323b872dd8585856040518463ffffffff1660e01b815260040161071c9392919061172d565b6020604051808303816000875af115801561073b573d6000803e3d6000fd5b505050506040513d601f19601f8201168201806040525081019061075f9190611790565b61079e576040517f08c379a000000000000000000000000000000000000000000000000000000000815260040161079590611809565b60405180910390fd5b5050505050565b600160009054906101000a900473ffffffffffffffffffffffffffffffffffffffff1681565b600080600084815260200190815260200160002060000160008373ffffffffffffffffffffffffffffffffffffffff1673ffffffffffffffffffffffffffffffffffffffff16815260200190815260200160002060009054906101000a900460ff16905092915050565b7f4f50455241544f525f524f4c450000000000000000000000000000000000000061085f81610c0c565b8773ffffffffffffffffffffffffffffffffffffffff1663f242432a8888888888886040518763ffffffff1660e01b81526004016108a296959493929190611887565b600060405180830381600087803b1580156108bc57600080fd5b505af11580156108d0573d6000803e3d6000fd5b505050505050505050505050565b6000801b81565b6108ee826105a8565b6108f781610c0c565b6109018383610c20565b505050565b60007f41444d494e5f524f4c450000000000000000000000000000000000000000000061093281610c0c565b600073ffffffffffffffffffffffffffffffffffffffff168373ffffffffffffffffffffffffffffffffffffffff16036109a1576040517f08c379a000000000000000000000000000000000000000000000000000000000815260040161099890611955565b60405180910390fd5b6109ed7f41444d494e5f524f4c4500000000000000000000000000000000000000000000600160009054906101000a900473ffffffffffffffffffffffffffffffffffffffff16610c20565b8273ffffffffffffffffffffffffffffffffffffffff16600160009054906101000a900473ffffffffffffffffffffffffffffffffffffffff1673ffffffffffffffffffffffffffffffffffffffff167f8be0079c531659141344cd1fd0a4f28419497f9722a3daafe3b4186f6b6457e060405160405180910390a382600160006101000a81548173ffffffffffffffffffffffffffffffffffffffff021916908373ffffffffffffffffffffffffffffffffffffffff160217905550610ad47f41444d494e5f524f4c450000000000000000000000000000000000000000000084610d01565b6001915050919050565b7f97667070c54ef182b0f5858b034beac1b6f3089aa2d3188bb1e8929f4fa9b92981565b7f4f50455241544f525f524f4c4500000000000000000000000000000000000000610b2c81610c0c565b8473ffffffffffffffffffffffffffffffffffffffff166342842e0e8585856040518463ffffffff1660e01b8152600401610b699392919061172d565b600060405180830381600087803b158015610b8357600080fd5b505af1158015610b97573d6000803e3d6000fd5b505050505050505050565b60007f01ffc9a7000000000000000000000000000000000000000000000000000000007bffffffffffffffffffffffffffffffffffffffffffffffffffffffff1916827bffffffffffffffffffffffffffffffffffffffffffffffffffffffff1916149050919050565b610c1d81610c18610def565b610df7565b50565b610c2a82826107cb565b15610cfd57600080600084815260200190815260200160002060000160008373ffffffffffffffffffffffffffffffffffffffff1673ffffffffffffffffffffffffffffffffffffffff16815260200190815260200160002060006101000a81548160ff021916908315150217905550610ca2610def565b73ffffffffffffffffffffffffffffffffffffffff168173ffffffffffffffffffffffffffffffffffffffff16837ff6391f5c32d9c69d2a47ea670b442974b53935d1edc7fd64eb21e047a839171b60405160405180910390a45b5050565b610d0b8282610d0f565b5050565b610d1982826107cb565b610deb57600160008084815260200190815260200160002060000160008373ffffffffffffffffffffffffffffffffffffffff1673ffffffffffffffffffffffffffffffffffffffff16815260200190815260200160002060006101000a81548160ff021916908315150217905550610d90610def565b73ffffffffffffffffffffffffffffffffffffffff168173ffffffffffffffffffffffffffffffffffffffff16837f2f8788117e7eff1d82e926ec794901d17c78024a50270940304540a733656f0d60405160405180910390a45b5050565b600033905090565b610e0182826107cb565b610e9057610e268173ffffffffffffffffffffffffffffffffffffffff166014610e94565b610e348360001c6020610e94565b604051602001610e45929190611a87565b6040516020818303038152906040526040517f08c379a0000000000000000000000000000000000000000000000000000000008152600401610e879190611afa565b60405180910390fd5b5050565b606060006002836002610ea79190611b4b565b610eb19190611ba5565b67ffffffffffffffff811115610eca57610ec9611bfb565b5b6040519080825280601f01601f191660200182016040528015610efc5781602001600182028036833780820191505090505b5090507f300000000000000000000000000000000000000000000000000000000000000081600081518110610f3457610f33611c2a565b5b60200101907effffffffffffffffffffffffffffffffffffffffffffffffffffffffffffff1916908160001a9053507f780000000000000000000000000000000000000000000000000000000000000081600181518110610f9857610f97611c2a565b5b60200101907effffffffffffffffffffffffffffffffffffffffffffffffffffffffffffff1916908160001a90535060006001846002610fd89190611b4b565b610fe29190611ba5565b90505b6001811115611082577f3031323334353637383961626364656600000000000000000000000000000000600f86166010811061102457611023611c2a565b5b1a60f81b82828151811061103b5761103a611c2a565b5b60200101907effffffffffffffffffffffffffffffffffffffffffffffffffffffffffffff1916908160001a905350600485901c94508061107b90611c59565b9050610fe5565b50600084146110c6576040517f08c379a00000000000000000000000000000000000000000000000000000000081526004016110bd90611cce565b60405180910390fd5b8091505092915050565b600080fd5b600080fd5b60007fffffffff0000000000000000000000000000000000000000000000000000000082169050919050565b61110f816110da565b811461111a57600080fd5b50565b60008135905061112c81611106565b92915050565b600060208284031215611148576111476110d0565b5b60006111568482850161111d565b91505092915050565b60008115159050919050565b6111748161115f565b82525050565b600060208201905061118f600083018461116b565b92915050565b600073ffffffffffffffffffffffffffffffffffffffff82169050919050565b60006111c082611195565b9050919050565b6111d0816111b5565b81146111db57600080fd5b50565b6000813590506111ed816111c7565b92915050565b600060208284031215611209576112086110d0565b5b6000611217848285016111de565b91505092915050565b6000819050919050565b61123381611220565b811461123e57600080fd5b50565b6000813590506112508161122a565b92915050565b60006020828403121561126c5761126b6110d0565b5b600061127a84828501611241565b91505092915050565b61128c81611220565b82525050565b60006020820190506112a76000830184611283565b92915050565b600080604083850312156112c4576112c36110d0565b5b60006112d285828601611241565b92505060206112e3858286016111de565b9150509250929050565b6112f6816111b5565b82525050565b600060208201905061131160008301846112ed565b92915050565b6000611322826111b5565b9050919050565b61133281611317565b811461133d57600080fd5b50565b60008135905061134f81611329565b92915050565b6000819050919050565b61136881611355565b811461137357600080fd5b50565b6000813590506113858161135f565b92915050565b600080600080608085870312156113a5576113a46110d0565b5b60006113b387828801611340565b94505060206113c4878288016111de565b93505060406113d5878288016111de565b92505060606113e687828801611376565b91505092959194509250565b60006113fd826111b5565b9050919050565b61140d816113f2565b811461141857600080fd5b50565b60008135905061142a81611404565b92915050565b600080fd5b600080fd5b600080fd5b60008083601f84011261145557611454611430565b5b8235905067ffffffffffffffff81111561147257611471611435565b5b60208301915083600182028301111561148e5761148d61143a565b5b9250929050565b600080600080600080600060c0888a0312156114b4576114b36110d0565b5b60006114c28a828b0161141b565b97505060206114d38a828b016111de565b96505060406114e48a828b016111de565b95505060606114f58a828b01611376565b94505060806115068a828b01611376565b93505060a088013567ffffffffffffffff811115611527576115266110d5565b5b6115338a828b0161143f565b925092505092959891949750929550565b600061154f826111b5565b9050919050565b61155f81611544565b811461156a57600080fd5b50565b60008135905061157c81611556565b92915050565b6000806000806080858703121561159c5761159b6110d0565b5b60006115aa8782880161156d565b94505060206115bb878288016111de565b93505060406115cc878288016111de565b92505060606115dd87828801611376565b91505092959194509250565b600082825260208201905092915050565b7f4f70657261746f723a206e6577206f70657261746f7220697320746865207a6560008201527f726f206164647265737300000000000000000000000000000000000000000000602082015250565b6000611656602a836115e9565b9150611661826115fa565b604082019050919050565b6000602082019050818103600083015261168581611649565b9050919050565b7f416363657373436f6e74726f6c3a2063616e206f6e6c792072656e6f756e636560008201527f20726f6c657320666f722073656c660000000000000000000000000000000000602082015250565b60006116e8602f836115e9565b91506116f38261168c565b604082019050919050565b60006020820190508181036000830152611717816116db565b9050919050565b61172781611355565b82525050565b600060608201905061174260008301866112ed565b61174f60208301856112ed565b61175c604083018461171e565b949350505050565b61176d8161115f565b811461177857600080fd5b50565b60008151905061178a81611764565b92915050565b6000602082840312156117a6576117a56110d0565b5b60006117b48482850161177b565b91505092915050565b7f6661696c757265207768696c65207472616e7366657272696e67000000000000600082015250565b60006117f3601a836115e9565b91506117fe826117bd565b602082019050919050565b60006020820190508181036000830152611822816117e6565b9050919050565b600082825260208201905092915050565b82818337600083830152505050565b6000601f19601f8301169050919050565b60006118668385611829565b935061187383858461183a565b61187c83611849565b840190509392505050565b600060a08201905061189c60008301896112ed565b6118a960208301886112ed565b6118b6604083018761171e565b6118c3606083018661171e565b81810360808301526118d681848661185a565b9050979650505050505050565b7f4f776e61626c653a206e6577206f776e657220697320746865207a65726f206160008201527f6464726573730000000000000000000000000000000000000000000000000000602082015250565b600061193f6026836115e9565b915061194a826118e3565b604082019050919050565b6000602082019050818103600083015261196e81611932565b9050919050565b600081905092915050565b7f416363657373436f6e74726f6c3a206163636f756e7420000000000000000000600082015250565b60006119b6601783611975565b91506119c182611980565b601782019050919050565b600081519050919050565b60005b838110156119f55780820151818401526020810190506119da565b83811115611a04576000848401525b50505050565b6000611a15826119cc565b611a1f8185611975565b9350611a2f8185602086016119d7565b80840191505092915050565b7f206973206d697373696e6720726f6c6520000000000000000000000000000000600082015250565b6000611a71601183611975565b9150611a7c82611a3b565b601182019050919050565b6000611a92826119a9565b9150611a9e8285611a0a565b9150611aa982611a64565b9150611ab58284611a0a565b91508190509392505050565b6000611acc826119cc565b611ad681856115e9565b9350611ae68185602086016119d7565b611aef81611849565b840191505092915050565b60006020820190508181036000830152611b148184611ac1565b905092915050565b7f4e487b7100000000000000000000000000000000000000000000000000000000600052601160045260246000fd5b6000611b5682611355565b9150611b6183611355565b9250817fffffffffffffffffffffffffffffffffffffffffffffffffffffffffffffffff0483118215151615611b9a57611b99611b1c565b5b828202905092915050565b6000611bb082611355565b9150611bbb83611355565b9250827fffffffffffffffffffffffffffffffffffffffffffffffffffffffffffffffff03821115611bf057611bef611b1c565b5b828201905092915050565b7f4e487b7100000000000000000000000000000000000000000000000000000000600052604160045260246000fd5b7f4e487b7100000000000000000000000000000000000000000000000000000000600052603260045260246000fd5b6000611c6482611355565b915060008203611c7757611c76611b1c565b5b600182039050919050565b7f537472696e67733a20686578206c656e67746820696e73756666696369656e74600082015250565b6000611cb86020836115e9565b9150611cc382611c82565b602082019050919050565b60006020820190508181036000830152611ce781611cab565b905091905056fea2646970667358221220a76f0cc7d572af7b0af8fb3b6fd18459bd3e5883ac02e815dab510a108c0ba5064736f6c634300080e0033",
  "linkReferences": {},
  "deployedLinkReferences": {}
}