{
  "_format": "hh-sol-artifact-1",
  "contractName": "Trade",
  "sourceName": "contracts/Trade.sol",
  "abi": [
    {
      "inputs": [
        {
          "internalType": "uint8",
          "name": "_buyerFee",
          "type": "uint8"
        },
        {
          "internalType": "uint8",
          "name": "_sellerFee",
          "type": "uint8"
        },
        {
          "internalType": "contract ITransferProxy",
          "name": "_transferProxy",
          "type": "address"
        }
      ],
      "stateMutability": "nonpayable",
      "type": "constructor"
    },
    {
      "anonymous": false,
      "inputs": [
        {
          "indexed": true,
          "internalType": "address",
          "name": "assetOwner",
          "type": "address"
        },
        {
          "indexed": true,
          "internalType": "uint256",
          "name": "tokenId",
          "type": "uint256"
        },
        {
          "indexed": false,
          "internalType": "uint256",
          "name": "quantity",
          "type": "uint256"
        },
        {
          "indexed": true,
          "internalType": "address",
          "name": "buyer",
          "type": "address"
        }
      ],
      "name": "BuyAsset",
      "type": "event"
    },
    {
      "anonymous": false,
      "inputs": [
        {
          "indexed": false,
          "internalType": "uint8",
          "name": "buyerFee",
          "type": "uint8"
        }
      ],
      "name": "BuyerFee",
      "type": "event"
    },
    {
      "anonymous": false,
      "inputs": [
        {
          "indexed": true,
          "internalType": "address",
          "name": "assetOwner",
          "type": "address"
        },
        {
          "indexed": true,
          "internalType": "uint256",
          "name": "tokenId",
          "type": "uint256"
        },
        {
          "indexed": false,
          "internalType": "uint256",
          "name": "quantity",
          "type": "uint256"
        },
        {
          "indexed": true,
          "internalType": "address",
          "name": "buyer",
          "type": "address"
        }
      ],
      "name": "ExecuteBid",
      "type": "event"
    },
    {
      "anonymous": false,
      "inputs": [
        {
          "indexed": true,
          "internalType": "address",
          "name": "previousOwner",
          "type": "address"
        },
        {
          "indexed": true,
          "internalType": "address",
          "name": "newOwner",
          "type": "address"
        }
      ],
      "name": "OwnershipTransferred",
      "type": "event"
    },
    {
      "anonymous": false,
      "inputs": [
        {
          "indexed": true,
          "internalType": "bytes32",
          "name": "role",
          "type": "bytes32"
        },
        {
          "indexed": true,
          "internalType": "bytes32",
          "name": "previousAdminRole",
          "type": "bytes32"
        },
        {
          "indexed": true,
          "internalType": "bytes32",
          "name": "newAdminRole",
          "type": "bytes32"
        }
      ],
      "name": "RoleAdminChanged",
      "type": "event"
    },
    {
      "anonymous": false,
      "inputs": [
        {
          "indexed": true,
          "internalType": "bytes32",
          "name": "role",
          "type": "bytes32"
        },
        {
          "indexed": true,
          "internalType": "address",
          "name": "account",
          "type": "address"
        },
        {
          "indexed": true,
          "internalType": "address",
          "name": "sender",
          "type": "address"
        }
      ],
      "name": "RoleGranted",
      "type": "event"
    },
    {
      "anonymous": false,
      "inputs": [
        {
          "indexed": true,
          "internalType": "bytes32",
          "name": "role",
          "type": "bytes32"
        },
        {
          "indexed": true,
          "internalType": "address",
          "name": "account",
          "type": "address"
        },
        {
          "indexed": true,
          "internalType": "address",
          "name": "sender",
          "type": "address"
        }
      ],
      "name": "RoleRevoked",
      "type": "event"
    },
    {
      "anonymous": false,
      "inputs": [
        {
          "indexed": false,
          "internalType": "uint8",
          "name": "sellerFee",
          "type": "uint8"
        }
      ],
      "name": "SellerFee",
      "type": "event"
    },
    {
      "inputs": [],
      "name": "ADMIN_ROLE",
      "outputs": [
        {
          "internalType": "bytes32",
          "name": "",
          "type": "bytes32"
        }
      ],
      "stateMutability": "view",
      "type": "function"
    },
    {
      "inputs": [],
      "name": "DEFAULT_ADMIN_ROLE",
      "outputs": [
        {
          "internalType": "bytes32",
          "name": "",
          "type": "bytes32"
        }
      ],
      "stateMutability": "view",
      "type": "function"
    },
    {
      "inputs": [
        {
          "components": [
            {
              "internalType": "address",
              "name": "seller",
              "type": "address"
            },
            {
              "internalType": "address",
              "name": "buyer",
              "type": "address"
            },
            {
              "internalType": "address",
              "name": "erc20Address",
              "type": "address"
            },
            {
              "internalType": "address",
              "name": "nftAddress",
              "type": "address"
            },
            {
              "internalType": "enum Trade.BuyingAssetType",
              "name": "nftType",
              "type": "uint8"
            },
            {
              "internalType": "uint256",
              "name": "unitPrice",
              "type": "uint256"
            },
            {
              "internalType": "uint256",
              "name": "amount",
              "type": "uint256"
            },
            {
              "internalType": "uint256",
              "name": "tokenId",
              "type": "uint256"
            },
            {
              "internalType": "uint256",
              "name": "qty",
              "type": "uint256"
            }
          ],
          "internalType": "struct Trade.Order",
          "name": "order",
          "type": "tuple"
        },
        {
          "components": [
            {
              "internalType": "uint8",
              "name": "v",
              "type": "uint8"
            },
            {
              "internalType": "bytes32",
              "name": "r",
              "type": "bytes32"
            },
            {
              "internalType": "bytes32",
              "name": "s",
              "type": "bytes32"
            },
            {
              "internalType": "uint256",
              "name": "nonce",
              "type": "uint256"
            }
          ],
          "internalType": "struct Trade.Sign",
          "name": "sign",
          "type": "tuple"
        }
      ],
      "name": "buyAsset",
      "outputs": [
        {
          "internalType": "bool",
          "name": "",
          "type": "bool"
        }
      ],
      "stateMutability": "nonpayable",
      "type": "function"
    },
    {
      "inputs": [],
      "name": "buyerServiceFee",
      "outputs": [
        {
          "internalType": "uint8",
          "name": "",
          "type": "uint8"
        }
      ],
      "stateMutability": "view",
      "type": "function"
    },
    {
      "inputs": [
        {
          "components": [
            {
              "internalType": "address",
              "name": "seller",
              "type": "address"
            },
            {
              "internalType": "address",
              "name": "buyer",
              "type": "address"
            },
            {
              "internalType": "address",
              "name": "erc20Address",
              "type": "address"
            },
            {
              "internalType": "address",
              "name": "nftAddress",
              "type": "address"
            },
            {
              "internalType": "enum Trade.BuyingAssetType",
              "name": "nftType",
              "type": "uint8"
            },
            {
              "internalType": "uint256",
              "name": "unitPrice",
              "type": "uint256"
            },
            {
              "internalType": "uint256",
              "name": "amount",
              "type": "uint256"
            },
            {
              "internalType": "uint256",
              "name": "tokenId",
              "type": "uint256"
            },
            {
              "internalType": "uint256",
              "name": "qty",
              "type": "uint256"
            }
          ],
          "internalType": "struct Trade.Order",
          "name": "order",
          "type": "tuple"
        },
        {
          "components": [
            {
              "internalType": "uint8",
              "name": "v",
              "type": "uint8"
            },
            {
              "internalType": "bytes32",
              "name": "r",
              "type": "bytes32"
            },
            {
              "internalType": "bytes32",
              "name": "s",
              "type": "bytes32"
            },
            {
              "internalType": "uint256",
              "name": "nonce",
              "type": "uint256"
            }
          ],
          "internalType": "struct Trade.Sign",
          "name": "sign",
          "type": "tuple"
        }
      ],
      "name": "executeBid",
      "outputs": [
        {
          "internalType": "bool",
          "name": "",
          "type": "bool"
        }
      ],
      "stateMutability": "nonpayable",
      "type": "function"
    },
    {
      "inputs": [
        {
          "internalType": "bytes32",
          "name": "role",
          "type": "bytes32"
        }
      ],
      "name": "getRoleAdmin",
      "outputs": [
        {
          "internalType": "bytes32",
          "name": "",
          "type": "bytes32"
        }
      ],
      "stateMutability": "view",
      "type": "function"
    },
    {
      "inputs": [
        {
          "internalType": "bytes32",
          "name": "role",
          "type": "bytes32"
        },
        {
          "internalType": "address",
          "name": "account",
          "type": "address"
        }
      ],
      "name": "grantRole",
      "outputs": [],
      "stateMutability": "nonpayable",
      "type": "function"
    },
    {
      "inputs": [
        {
          "internalType": "bytes32",
          "name": "role",
          "type": "bytes32"
        },
        {
          "internalType": "address",
          "name": "account",
          "type": "address"
        }
      ],
      "name": "hasRole",
      "outputs": [
        {
          "internalType": "bool",
          "name": "",
          "type": "bool"
        }
      ],
      "stateMutability": "view",
      "type": "function"
    },
    {
      "inputs": [],
      "name": "owner",
      "outputs": [
        {
          "internalType": "address",
          "name": "",
          "type": "address"
        }
      ],
      "stateMutability": "view",
      "type": "function"
    },
    {
      "inputs": [
        {
          "internalType": "bytes32",
          "name": "role",
          "type": "bytes32"
        },
        {
          "internalType": "address",
          "name": "account",
          "type": "address"
        }
      ],
      "name": "renounceRole",
      "outputs": [],
      "stateMutability": "nonpayable",
      "type": "function"
    },
    {
      "inputs": [
        {
          "internalType": "bytes32",
          "name": "role",
          "type": "bytes32"
        },
        {
          "internalType": "address",
          "name": "account",
          "type": "address"
        }
      ],
      "name": "revokeRole",
      "outputs": [],
      "stateMutability": "nonpayable",
      "type": "function"
    },
    {
      "inputs": [],
      "name": "sellerServiceFee",
      "outputs": [
        {
          "internalType": "uint8",
          "name": "",
          "type": "uint8"
        }
      ],
      "stateMutability": "view",
      "type": "function"
    },
    {
      "inputs": [
        {
          "internalType": "uint8",
          "name": "_buyerFee",
          "type": "uint8"
        }
      ],
      "name": "setBuyerServiceFee",
      "outputs": [
        {
          "internalType": "bool",
          "name": "",
          "type": "bool"
        }
      ],
      "stateMutability": "nonpayable",
      "type": "function"
    },
    {
      "inputs": [
        {
          "internalType": "uint8",
          "name": "_sellerFee",
          "type": "uint8"
        }
      ],
      "name": "setSellerServiceFee",
      "outputs": [
        {
          "internalType": "bool",
          "name": "",
          "type": "bool"
        }
      ],
      "stateMutability": "nonpayable",
      "type": "function"
    },
    {
      "inputs": [
        {
          "internalType": "bytes4",
          "name": "interfaceId",
          "type": "bytes4"
        }
      ],
      "name": "supportsInterface",
      "outputs": [
        {
          "internalType": "bool",
          "name": "",
          "type": "bool"
        }
      ],
      "stateMutability": "view",
      "type": "function"
    },
    {
      "inputs": [
        {
          "internalType": "address",
          "name": "newOwner",
          "type": "address"
        }
      ],
      "name": "transferOwnership",
      "outputs": [
        {
          "internalType": "bool",
          "name": "",
          "type": "bool"
        }
      ],
      "stateMutability": "nonpayable",
      "type": "function"
    },
    {
      "inputs": [],
      "name": "transferProxy",
      "outputs": [
        {
          "internalType": "contract ITransferProxy",
          "name": "",
          "type": "address"
        }
      ],
      "stateMutability": "view",
      "type": "function"
    }
  ],
  "bytecode": "0x60806040523480156200001157600080fd5b50604051620030353803806200303583398181016040528101906200003791906200035e565b82600160006101000a81548160ff021916908360ff160217905550816001806101000a81548160ff021916908360ff16021790555080600160026101000a81548173ffffffffffffffffffffffffffffffffffffffff021916908373ffffffffffffffffffffffffffffffffffffffff16021790555033600260006101000a81548173ffffffffffffffffffffffffffffffffffffffff021916908373ffffffffffffffffffffffffffffffffffffffff160217905550620001207f41444d494e5f524f4c4500000000000000000000000000000000000000000000336200012960201b60201c565b505050620003ba565b6200013b82826200013f60201b60201c565b5050565b6200015182826200023060201b60201c565b6200022c57600160008084815260200190815260200160002060000160008373ffffffffffffffffffffffffffffffffffffffff1673ffffffffffffffffffffffffffffffffffffffff16815260200190815260200160002060006101000a81548160ff021916908315150217905550620001d16200029a60201b60201c565b73ffffffffffffffffffffffffffffffffffffffff168173ffffffffffffffffffffffffffffffffffffffff16837f2f8788117e7eff1d82e926ec794901d17c78024a50270940304540a733656f0d60405160405180910390a45b5050565b600080600084815260200190815260200160002060000160008373ffffffffffffffffffffffffffffffffffffffff1673ffffffffffffffffffffffffffffffffffffffff16815260200190815260200160002060009054906101000a900460ff16905092915050565b600033905090565b600080fd5b600060ff82169050919050565b620002bf81620002a7565b8114620002cb57600080fd5b50565b600081519050620002df81620002b4565b92915050565b600073ffffffffffffffffffffffffffffffffffffffff82169050919050565b60006200031282620002e5565b9050919050565b6000620003268262000305565b9050919050565b620003388162000319565b81146200034457600080fd5b50565b60008151905062000358816200032d565b92915050565b6000806000606084860312156200037a5762000379620002a2565b5b60006200038a86828701620002ce565b93505060206200039d86828701620002ce565b9250506040620003b08682870162000347565b9150509250925092565b612c6b80620003ca6000396000f3fe608060405234801561001057600080fd5b506004361061010b5760003560e01c80638da5cb5b116100a2578063a3667c7b11610071578063a3667c7b146102bc578063a96b446d146102ec578063d547741f1461031c578063e90f93e914610338578063f2fde38b146103685761010b565b80638da5cb5b1461023257806391d14854146102505780639c66809d14610280578063a217fddf1461029e5761010b565b806336568abe116100de57806336568abe146101bc57806360085da6146101d85780636e667db3146101f657806375b238fc146102145761010b565b806301ffc9a714610110578063248a9ca31461014057806326981e2d146101705780632f2ff15d146101a0575b600080fd5b61012a60048036038101906101259190611b73565b610398565b6040516101379190611bbb565b60405180910390f35b61015a60048036038101906101559190611c0c565b610412565b6040516101679190611c48565b60405180910390f35b61018a60048036038101906101859190611ca7565b610431565b6040516101979190611bbb565b60405180910390f35b6101ba60048036038101906101b59190611d47565b61066b565b005b6101d660048036038101906101d19190611d47565b61068c565b005b6101e061070f565b6040516101ed9190611da3565b60405180910390f35b6101fe610724565b60405161020b9190611e1d565b60405180910390f35b61021c61074a565b6040516102299190611c48565b60405180910390f35b61023a61076e565b6040516102479190611e47565b60405180910390f35b61026a60048036038101906102659190611d47565b610794565b6040516102779190611bbb565b60405180910390f35b6102886107fe565b6040516102959190611da3565b60405180910390f35b6102a6610815565b6040516102b39190611c48565b60405180910390f35b6102d660048036038101906102d19190611e8e565b61081c565b6040516102e39190611bbb565b60405180910390f35b61030660048036038101906103019190611e8e565b6108b0565b6040516103139190611bbb565b60405180910390f35b61033660048036038101906103319190611d47565b610947565b005b610352600480360381019061034d9190611ca7565b610968565b60405161035f9190611bbb565b60405180910390f35b610382600480360381019061037d9190611ebb565b610b4d565b60405161038f9190611bbb565b60405180910390f35b60007f7965db0b000000000000000000000000000000000000000000000000000000007bffffffffffffffffffffffffffffffffffffffffffffffffffffffff1916827bffffffffffffffffffffffffffffffffffffffffffffffffffffffff1916148061040b575061040a82610d25565b5b9050919050565b6000806000838152602001908152602001600020600101549050919050565b6000600360008360600135815260200190815260200160002060009054906101000a900460ff1615610498576040517f08c379a000000000000000000000000000000000000000000000000000000000815260040161048f90611f45565b60405180910390fd5b6001600360008460600135815260200190815260200160002060006101000a81548160ff02191690831515021790555060006105028460c001358560800160208101906104e59190611f8a565b8660600160208101906104f89190611ebb565b8760e00135610d8f565b90508361010001358460a001356105199190611ff0565b8160600151101561055f576040517f08c379a000000000000000000000000000000000000000000000000000000000815260040161055690612096565b60405180910390fd5b6105bb8460000160208101906105759190611ebb565b8560e001358660a001358760400160208101906105929190611ebb565b8860600160208101906105a59190611ebb565b888036038101906105b691906121eb565b610fee565b60003390506105de8583838860000160208101906105d99190611ebb565b6110a5565b3373ffffffffffffffffffffffffffffffffffffffff168560e0013586600001602081019061060d9190611ebb565b73ffffffffffffffffffffffffffffffffffffffff167fb10197cef009fd301a90b892d25451c22c3701eb18ee2df1250d31e514fff3948861010001356040516106579190612227565b60405180910390a460019250505092915050565b61067482610412565b61067d816114be565b61068783836114d2565b505050565b6106946115b2565b73ffffffffffffffffffffffffffffffffffffffff168173ffffffffffffffffffffffffffffffffffffffff1614610701576040517f08c379a00000000000000000000000000000000000000000000000000000000081526004016106f8906122b4565b60405180910390fd5b61070b82826115ba565b5050565b600060018054906101000a900460ff16905090565b600160029054906101000a900473ffffffffffffffffffffffffffffffffffffffff1681565b7fa49807205ce4d355092ef5a8a18f56e8913cf4a201fbe287825b095693c2177581565b600260009054906101000a900473ffffffffffffffffffffffffffffffffffffffff1681565b600080600084815260200190815260200160002060000160008373ffffffffffffffffffffffffffffffffffffffff1673ffffffffffffffffffffffffffffffffffffffff16815260200190815260200160002060009054906101000a900460ff16905092915050565b6000600160009054906101000a900460ff16905090565b6000801b81565b60007f41444d494e5f524f4c4500000000000000000000000000000000000000000000610848816114be565b826001806101000a81548160ff021916908360ff1602179055507f04e959c7352d9eda8a6d989e4fee25ff0bf44c87386b7259d8500343c4e9992e60018054906101000a900460ff1660405161089e9190611da3565b60405180910390a16001915050919050565b60007f41444d494e5f524f4c45000000000000000000000000000000000000000000006108dc816114be565b82600160006101000a81548160ff021916908360ff1602179055507f1715ed10763088cbfba08a6ecfb6e5894eac73040cb1899d10d3f96ced2bd0ef600160009054906101000a900460ff166040516109359190611da3565b60405180910390a16001915050919050565b61095082610412565b610959816114be565b61096383836115ba565b505050565b6000600360008360600135815260200190815260200160002060009054906101000a900460ff16156109cf576040517f08c379a00000000000000000000000000000000000000000000000000000000081526004016109c690611f45565b60405180910390fd5b6001600360008460600135815260200190815260200160002060006101000a81548160ff0219169083151502179055506000610a398460c00135856080016020810190610a1c9190611f8a565b866060016020810190610a2f9190611ebb565b8760e00135610d8f565b9050610a9d846020016020810190610a519190611ebb565b8560e001358660c00135876040016020810190610a6e9190611ebb565b886060016020810190610a819190611ebb565b89610100013589803603810190610a9891906121eb565b61169b565b6000339050610ac08583876020016020810190610aba9190611ebb565b846110a5565b846020016020810190610ad39190611ebb565b73ffffffffffffffffffffffffffffffffffffffff168560e001353373ffffffffffffffffffffffffffffffffffffffff167fec34853c156da04e4792f1c735112ae54e5ed52bac58db5014b26746f306a362886101000135604051610b399190612227565b60405180910390a460019250505092915050565b60007f41444d494e5f524f4c4500000000000000000000000000000000000000000000610b79816114be565b600073ffffffffffffffffffffffffffffffffffffffff168373ffffffffffffffffffffffffffffffffffffffff1603610be8576040517f08c379a0000000000000000000000000000000000000000000000000000000008152600401610bdf90612346565b60405180910390fd5b610c347f41444d494e5f524f4c4500000000000000000000000000000000000000000000600260009054906101000a900473ffffffffffffffffffffffffffffffffffffffff166115ba565b8273ffffffffffffffffffffffffffffffffffffffff16600260009054906101000a900473ffffffffffffffffffffffffffffffffffffffff1673ffffffffffffffffffffffffffffffffffffffff167f8be0079c531659141344cd1fd0a4f28419497f9722a3daafe3b4186f6b6457e060405160405180910390a382600260006101000a81548173ffffffffffffffffffffffffffffffffffffffff021916908373ffffffffffffffffffffffffffffffffffffffff160217905550610d1b7f41444d494e5f524f4c450000000000000000000000000000000000000000000084611755565b6001915050919050565b60007f01ffc9a7000000000000000000000000000000000000000000000000000000007bffffffffffffffffffffffffffffffffffffffffffffffffffffffff1916827bffffffffffffffffffffffffffffffffffffffffffffffffffffffff1916149050919050565b610d97611ac7565b6000806000806000600160009054906101000a900460ff1660ff166103e8610dbf9190612374565b61ffff166103e88b610dd19190611ff0565b610ddb91906123db565b90506000818b610deb919061240c565b905060006103e860018054906101000a900460ff1660ff1684610e0e9190611ff0565b610e1891906123db565b90508082610e269190612440565b9550600180811115610e3b57610e3a612496565b5b8b6001811115610e4e57610e4d612496565b5b03610ed7578973ffffffffffffffffffffffffffffffffffffffff16632a55205a8a856040518363ffffffff1660e01b8152600401610e8e9291906124c5565b6040805180830381865afa158015610eaa573d6000803e3d6000fd5b505050506040513d601f19601f82011682018060405250810190610ece9190612518565b80965081985050505b60006001811115610eeb57610eea612496565b5b8b6001811115610efe57610efd612496565b5b03610f87578973ffffffffffffffffffffffffffffffffffffffff16632a55205a8a856040518363ffffffff1660e01b8152600401610f3e9291906124c5565b6040805180830381865afa158015610f5a573d6000803e3d6000fd5b505050506040513d601f19601f82011682018060405250810190610f7e9190612518565b80965081985050505b808584610f94919061240c565b610f9e919061240c565b93506040518060a001604052808781526020018581526020018681526020018481526020018873ffffffffffffffffffffffffffffffffffffffff16815250975050505050505050949350505050565b600082868587856060015160405160200161100d9594939291906125c1565b60405160208183030381529060405280519060200120905061102f8183611763565b73ffffffffffffffffffffffffffffffffffffffff168773ffffffffffffffffffffffffffffffffffffffff161461109c576040517f08c379a00000000000000000000000000000000000000000000000000000000081526004016110939061266c565b60405180910390fd5b50505050505050565b6001808111156110b8576110b7612496565b5b8460800160208101906110cb9190611f8a565b60018111156110dd576110dc612496565b5b0361118c57600160029054906101000a900473ffffffffffffffffffffffffffffffffffffffff1673ffffffffffffffffffffffffffffffffffffffff1663f709b9068560600160208101906111339190611ebb565b83858860e001356040518563ffffffff1660e01b815260040161115994939291906126ad565b600060405180830381600087803b15801561117357600080fd5b505af1158015611187573d6000803e3d6000fd5b505050505b600060018111156111a05761119f612496565b5b8460800160208101906111b39190611f8a565b60018111156111c5576111c4612496565b5b0361127b57600160029054906101000a900473ffffffffffffffffffffffffffffffffffffffff1673ffffffffffffffffffffffffffffffffffffffff16639c1c2ee985606001602081019061121b9190611ebb565b83858860e001358961010001356040518663ffffffff1660e01b815260040161124895949392919061274a565b600060405180830381600087803b15801561126257600080fd5b505af1158015611276573d6000803e3d6000fd5b505050505b60008360000151111561135457600160029054906101000a900473ffffffffffffffffffffffffffffffffffffffff1673ffffffffffffffffffffffffffffffffffffffff1663776062c38560400160208101906112d99190611ebb565b84600260009054906101000a900473ffffffffffffffffffffffffffffffffffffffff1687600001516040518563ffffffff1660e01b815260040161132194939291906127d1565b600060405180830381600087803b15801561133b57600080fd5b505af115801561134f573d6000803e3d6000fd5b505050505b60008360400151111561140f57600160029054906101000a900473ffffffffffffffffffffffffffffffffffffffff1673ffffffffffffffffffffffffffffffffffffffff1663776062c38560400160208101906113b29190611ebb565b84866080015187604001516040518563ffffffff1660e01b81526004016113dc94939291906127d1565b600060405180830381600087803b1580156113f657600080fd5b505af115801561140a573d6000803e3d6000fd5b505050505b600160029054906101000a900473ffffffffffffffffffffffffffffffffffffffff1673ffffffffffffffffffffffffffffffffffffffff1663776062c38560400160208101906114609190611ebb565b848487602001516040518563ffffffff1660e01b815260040161148694939291906127d1565b600060405180830381600087803b1580156114a057600080fd5b505af11580156114b4573d6000803e3d6000fd5b5050505050505050565b6114cf816114ca6115b2565b6117ee565b50565b6114dc8282610794565b6115ae57600160008084815260200190815260200160002060000160008373ffffffffffffffffffffffffffffffffffffffff1673ffffffffffffffffffffffffffffffffffffffff16815260200190815260200160002060006101000a81548160ff0219169083151502179055506115536115b2565b73ffffffffffffffffffffffffffffffffffffffff168173ffffffffffffffffffffffffffffffffffffffff16837f2f8788117e7eff1d82e926ec794901d17c78024a50270940304540a733656f0d60405160405180910390a45b5050565b600033905090565b6115c48282610794565b1561169757600080600084815260200190815260200160002060000160008373ffffffffffffffffffffffffffffffffffffffff1673ffffffffffffffffffffffffffffffffffffffff16815260200190815260200160002060006101000a81548160ff02191690831515021790555061163c6115b2565b73ffffffffffffffffffffffffffffffffffffffff168173ffffffffffffffffffffffffffffffffffffffff16837ff6391f5c32d9c69d2a47ea670b442974b53935d1edc7fd64eb21e047a839171b60405160405180910390a45b5050565b6000838786888686606001516040516020016116bc96959493929190612816565b6040516020818303038152906040528051906020012090506116de8183611763565b73ffffffffffffffffffffffffffffffffffffffff168873ffffffffffffffffffffffffffffffffffffffff161461174b576040517f08c379a0000000000000000000000000000000000000000000000000000000008152600401611742906128d2565b60405180910390fd5b5050505050505050565b61175f82826114d2565b5050565b6000600183604051602001611778919061296a565b60405160208183030381529060405280519060200120836000015184602001518560400151604051600081526020016040526040516117ba9493929190612990565b6020604051602081039080840390855afa1580156117dc573d6000803e3d6000fd5b50505060206040510351905092915050565b6117f88282610794565b6118875761181d8173ffffffffffffffffffffffffffffffffffffffff16601461188b565b61182b8360001c602061188b565b60405160200161183c929190612adc565b6040516020818303038152906040526040517f08c379a000000000000000000000000000000000000000000000000000000000815260040161187e9190612b4f565b60405180910390fd5b5050565b60606000600283600261189e9190611ff0565b6118a89190612440565b67ffffffffffffffff8111156118c1576118c06120cc565b5b6040519080825280601f01601f1916602001820160405280156118f35781602001600182028036833780820191505090505b5090507f30000000000000000000000000000000000000000000000000000000000000008160008151811061192b5761192a612b71565b5b60200101907effffffffffffffffffffffffffffffffffffffffffffffffffffffffffffff1916908160001a9053507f78000000000000000000000000000000000000000000000000000000000000008160018151811061198f5761198e612b71565b5b60200101907effffffffffffffffffffffffffffffffffffffffffffffffffffffffffffff1916908160001a905350600060018460026119cf9190611ff0565b6119d99190612440565b90505b6001811115611a79577f3031323334353637383961626364656600000000000000000000000000000000600f861660108110611a1b57611a1a612b71565b5b1a60f81b828281518110611a3257611a31612b71565b5b60200101907effffffffffffffffffffffffffffffffffffffffffffffffffffffffffffff1916908160001a905350600485901c945080611a7290612ba0565b90506119dc565b5060008414611abd576040517f08c379a0000000000000000000000000000000000000000000000000000000008152600401611ab490612c15565b60405180910390fd5b8091505092915050565b6040518060a0016040528060008152602001600081526020016000815260200160008152602001600073ffffffffffffffffffffffffffffffffffffffff1681525090565b6000604051905090565b600080fd5b60007fffffffff0000000000000000000000000000000000000000000000000000000082169050919050565b611b5081611b1b565b8114611b5b57600080fd5b50565b600081359050611b6d81611b47565b92915050565b600060208284031215611b8957611b88611b16565b5b6000611b9784828501611b5e565b91505092915050565b60008115159050919050565b611bb581611ba0565b82525050565b6000602082019050611bd06000830184611bac565b92915050565b6000819050919050565b611be981611bd6565b8114611bf457600080fd5b50565b600081359050611c0681611be0565b92915050565b600060208284031215611c2257611c21611b16565b5b6000611c3084828501611bf7565b91505092915050565b611c4281611bd6565b82525050565b6000602082019050611c5d6000830184611c39565b92915050565b600080fd5b60006101208284031215611c7f57611c7e611c63565b5b81905092915050565b600060808284031215611c9e57611c9d611c63565b5b81905092915050565b6000806101a08385031215611cbf57611cbe611b16565b5b6000611ccd85828601611c68565b925050610120611cdf85828601611c88565b9150509250929050565b600073ffffffffffffffffffffffffffffffffffffffff82169050919050565b6000611d1482611ce9565b9050919050565b611d2481611d09565b8114611d2f57600080fd5b50565b600081359050611d4181611d1b565b92915050565b60008060408385031215611d5e57611d5d611b16565b5b6000611d6c85828601611bf7565b9250506020611d7d85828601611d32565b9150509250929050565b600060ff82169050919050565b611d9d81611d87565b82525050565b6000602082019050611db86000830184611d94565b92915050565b6000819050919050565b6000611de3611dde611dd984611ce9565b611dbe565b611ce9565b9050919050565b6000611df582611dc8565b9050919050565b6000611e0782611dea565b9050919050565b611e1781611dfc565b82525050565b6000602082019050611e326000830184611e0e565b92915050565b611e4181611d09565b82525050565b6000602082019050611e5c6000830184611e38565b92915050565b611e6b81611d87565b8114611e7657600080fd5b50565b600081359050611e8881611e62565b92915050565b600060208284031215611ea457611ea3611b16565b5b6000611eb284828501611e79565b91505092915050565b600060208284031215611ed157611ed0611b16565b5b6000611edf84828501611d32565b91505092915050565b600082825260208201905092915050565b7f4e6f6e6365203a20496e76616c6964204e6f6e63650000000000000000000000600082015250565b6000611f2f601583611ee8565b9150611f3a82611ef9565b602082019050919050565b60006020820190508181036000830152611f5e81611f22565b9050919050565b60028110611f7257600080fd5b50565b600081359050611f8481611f65565b92915050565b600060208284031215611fa057611f9f611b16565b5b6000611fae84828501611f75565b91505092915050565b6000819050919050565b7f4e487b7100000000000000000000000000000000000000000000000000000000600052601160045260246000fd5b6000611ffb82611fb7565b915061200683611fb7565b9250817fffffffffffffffffffffffffffffffffffffffffffffffffffffffffffffffff048311821515161561203f5761203e611fc1565b5b828202905092915050565b7f5061696420696e76616c696420616d6f756e7400000000000000000000000000600082015250565b6000612080601383611ee8565b915061208b8261204a565b602082019050919050565b600060208201905081810360008301526120af81612073565b9050919050565b600080fd5b6000601f19601f8301169050919050565b7f4e487b7100000000000000000000000000000000000000000000000000000000600052604160045260246000fd5b612104826120bb565b810181811067ffffffffffffffff82111715612123576121226120cc565b5b80604052505050565b6000612136611b0c565b905061214282826120fb565b919050565b61215081611fb7565b811461215b57600080fd5b50565b60008135905061216d81612147565b92915050565b600060808284031215612189576121886120b6565b5b612193608061212c565b905060006121a384828501611e79565b60008301525060206121b784828501611bf7565b60208301525060406121cb84828501611bf7565b60408301525060606121df8482850161215e565b60608301525092915050565b60006080828403121561220157612200611b16565b5b600061220f84828501612173565b91505092915050565b61222181611fb7565b82525050565b600060208201905061223c6000830184612218565b92915050565b7f416363657373436f6e74726f6c3a2063616e206f6e6c792072656e6f756e636560008201527f20726f6c657320666f722073656c660000000000000000000000000000000000602082015250565b600061229e602f83611ee8565b91506122a982612242565b604082019050919050565b600060208201905081810360008301526122cd81612291565b9050919050565b7f4f776e61626c653a206e6577206f776e657220697320746865207a65726f206160008201527f6464726573730000000000000000000000000000000000000000000000000000602082015250565b6000612330602683611ee8565b915061233b826122d4565b604082019050919050565b6000602082019050818103600083015261235f81612323565b9050919050565b600061ffff82169050919050565b600061237f82612366565b915061238a83612366565b92508261ffff038211156123a1576123a0611fc1565b5b828201905092915050565b7f4e487b7100000000000000000000000000000000000000000000000000000000600052601260045260246000fd5b60006123e682611fb7565b91506123f183611fb7565b925082612401576124006123ac565b5b828204905092915050565b600061241782611fb7565b915061242283611fb7565b92508282101561243557612434611fc1565b5b828203905092915050565b600061244b82611fb7565b915061245683611fb7565b9250827fffffffffffffffffffffffffffffffffffffffffffffffffffffffffffffffff0382111561248b5761248a611fc1565b5b828201905092915050565b7f4e487b7100000000000000000000000000000000000000000000000000000000600052602160045260246000fd5b60006040820190506124da6000830185612218565b6124e76020830184612218565b9392505050565b6000815190506124fd81611d1b565b92915050565b60008151905061251281612147565b92915050565b6000806040838503121561252f5761252e611b16565b5b600061253d858286016124ee565b925050602061254e85828601612503565b9150509250929050565b60008160601b9050919050565b600061257082612558565b9050919050565b600061258282612565565b9050919050565b61259a61259582611d09565b612577565b82525050565b6000819050919050565b6125bb6125b682611fb7565b6125a0565b82525050565b60006125cd8288612589565b6014820191506125dd82876125aa565b6020820191506125ed8286612589565b6014820191506125fd82856125aa565b60208201915061260d82846125aa565b6020820191508190509695505050505050565b7f73656c6c6572207369676e20766572696669636174696f6e206661696c656400600082015250565b6000612656601f83611ee8565b915061266182612620565b602082019050919050565b6000602082019050818103600083015261268581612649565b9050919050565b600061269782611dea565b9050919050565b6126a78161268c565b82525050565b60006080820190506126c2600083018761269e565b6126cf6020830186611e38565b6126dc6040830185611e38565b6126e96060830184612218565b95945050505050565b60006126fd82611dea565b9050919050565b61270d816126f2565b82525050565b600082825260208201905092915050565b50565b6000612734600083612713565b915061273f82612724565b600082019050919050565b600060c08201905061275f6000830188612704565b61276c6020830187611e38565b6127796040830186611e38565b6127866060830185612218565b6127936080830184612218565b81810360a08301526127a481612727565b90509695505050505050565b60006127bb82611dea565b9050919050565b6127cb816127b0565b82525050565b60006080820190506127e660008301876127c2565b6127f36020830186611e38565b6128006040830185611e38565b61280d6060830184612218565b95945050505050565b60006128228289612589565b60148201915061283282886125aa565b6020820191506128428287612589565b60148201915061285282866125aa565b60208201915061286282856125aa565b60208201915061287282846125aa565b602082019150819050979650505050505050565b7f6275796572207369676e20766572696669636174696f6e206661696c65640000600082015250565b60006128bc601e83611ee8565b91506128c782612886565b602082019050919050565b600060208201905081810360008301526128eb816128af565b9050919050565b600081905092915050565b7f19457468657265756d205369676e6564204d6573736167653a0a333200000000600082015250565b6000612933601c836128f2565b915061293e826128fd565b601c82019050919050565b6000819050919050565b61296461295f82611bd6565b612949565b82525050565b600061297582612926565b91506129818284612953565b60208201915081905092915050565b60006080820190506129a56000830187611c39565b6129b26020830186611d94565b6129bf6040830185611c39565b6129cc6060830184611c39565b95945050505050565b7f416363657373436f6e74726f6c3a206163636f756e7420000000000000000000600082015250565b6000612a0b6017836128f2565b9150612a16826129d5565b601782019050919050565b600081519050919050565b60005b83811015612a4a578082015181840152602081019050612a2f565b83811115612a59576000848401525b50505050565b6000612a6a82612a21565b612a7481856128f2565b9350612a84818560208601612a2c565b80840191505092915050565b7f206973206d697373696e6720726f6c6520000000000000000000000000000000600082015250565b6000612ac66011836128f2565b9150612ad182612a90565b601182019050919050565b6000612ae7826129fe565b9150612af38285612a5f565b9150612afe82612ab9565b9150612b0a8284612a5f565b91508190509392505050565b6000612b2182612a21565b612b2b8185611ee8565b9350612b3b818560208601612a2c565b612b44816120bb565b840191505092915050565b60006020820190508181036000830152612b698184612b16565b905092915050565b7f4e487b7100000000000000000000000000000000000000000000000000000000600052603260045260246000fd5b6000612bab82611fb7565b915060008203612bbe57612bbd611fc1565b5b600182039050919050565b7f537472696e67733a20686578206c656e67746820696e73756666696369656e74600082015250565b6000612bff602083611ee8565b9150612c0a82612bc9565b602082019050919050565b60006020820190508181036000830152612c2e81612bf2565b905091905056fea26469706673582212203c57c1da2eb982db6f13653f7aa5961849dffa96c0dd0e87ee518f15da1f3e3064736f6c634300080e0033",
  "linkReferences": {},
  "deployedLinkReferences": {}
}